{
  "contractName": "Auction",
  "abi": [
    {
      "inputs": [],
      "stateMutability": "nonpayable",
      "type": "constructor"
    },
    {
      "anonymous": false,
      "inputs": [
        {
          "indexed": true,
          "internalType": "address",
          "name": "owner",
          "type": "address"
        },
        {
          "indexed": true,
          "internalType": "address",
          "name": "approved",
          "type": "address"
        },
        {
          "indexed": true,
          "internalType": "uint256",
          "name": "tokenId",
          "type": "uint256"
        }
      ],
      "name": "Approval",
      "type": "event"
    },
    {
      "anonymous": false,
      "inputs": [
        {
          "indexed": true,
          "internalType": "address",
          "name": "owner",
          "type": "address"
        },
        {
          "indexed": true,
          "internalType": "address",
          "name": "operator",
          "type": "address"
        },
        {
          "indexed": false,
          "internalType": "bool",
          "name": "approved",
          "type": "bool"
        }
      ],
      "name": "ApprovalForAll",
      "type": "event"
    },
    {
      "anonymous": false,
      "inputs": [
        {
          "indexed": true,
          "internalType": "uint256",
          "name": "tokenId",
          "type": "uint256"
        },
        {
          "indexed": true,
          "internalType": "address",
          "name": "seller",
          "type": "address"
        },
        {
          "indexed": false,
          "internalType": "uint256",
          "name": "startingPrice",
          "type": "uint256"
        },
        {
          "indexed": false,
          "internalType": "uint256",
          "name": "endTime",
          "type": "uint256"
        }
      ],
      "name": "AuctionCreated",
      "type": "event"
    },
    {
      "anonymous": false,
      "inputs": [
        {
          "indexed": true,
          "internalType": "uint256",
          "name": "tokenId",
          "type": "uint256"
        },
        {
          "indexed": true,
          "internalType": "address",
          "name": "winner",
          "type": "address"
        },
        {
          "indexed": false,
          "internalType": "uint256",
          "name": "winningBid",
          "type": "uint256"
        }
      ],
      "name": "AuctionEnded",
      "type": "event"
    },
    {
      "anonymous": false,
      "inputs": [
        {
          "indexed": false,
          "internalType": "uint256",
          "name": "_fromTokenId",
          "type": "uint256"
        },
        {
          "indexed": false,
          "internalType": "uint256",
          "name": "_toTokenId",
          "type": "uint256"
        }
      ],
      "name": "BatchMetadataUpdate",
      "type": "event"
    },
    {
      "anonymous": false,
      "inputs": [
        {
          "indexed": true,
          "internalType": "uint256",
          "name": "tokenId",
          "type": "uint256"
        },
        {
          "indexed": true,
          "internalType": "address",
          "name": "bidder",
          "type": "address"
        },
        {
          "indexed": false,
          "internalType": "uint256",
          "name": "bidAmount",
          "type": "uint256"
        }
      ],
      "name": "BidPlaced",
      "type": "event"
    },
    {
      "anonymous": false,
      "inputs": [
        {
          "indexed": false,
          "internalType": "uint256",
          "name": "_tokenId",
          "type": "uint256"
        }
      ],
      "name": "MetadataUpdate",
      "type": "event"
    },
    {
      "anonymous": false,
      "inputs": [
        {
          "indexed": true,
          "internalType": "address",
          "name": "from",
          "type": "address"
        },
        {
          "indexed": true,
          "internalType": "address",
          "name": "to",
          "type": "address"
        },
        {
          "indexed": true,
          "internalType": "uint256",
          "name": "tokenId",
          "type": "uint256"
        }
      ],
      "name": "Transfer",
      "type": "event"
    },
    {
      "inputs": [
        {
          "internalType": "address",
          "name": "to",
          "type": "address"
        },
        {
          "internalType": "uint256",
          "name": "tokenId",
          "type": "uint256"
        }
      ],
      "name": "approve",
      "outputs": [],
      "stateMutability": "nonpayable",
      "type": "function"
    },
    {
      "inputs": [
        {
          "internalType": "uint256",
          "name": "",
          "type": "uint256"
        }
      ],
      "name": "auctions",
      "outputs": [
        {
          "internalType": "uint256",
          "name": "tokenId",
          "type": "uint256"
        },
        {
          "internalType": "address payable",
          "name": "seller",
          "type": "address"
        },
        {
          "internalType": "uint256",
          "name": "startingPrice",
          "type": "uint256"
        },
        {
          "internalType": "uint256",
          "name": "highestBid",
          "type": "uint256"
        },
        {
          "internalType": "address payable",
          "name": "highestBidder",
          "type": "address"
        },
        {
          "internalType": "uint256",
          "name": "endTime",
          "type": "uint256"
        },
        {
          "internalType": "bool",
          "name": "isActive",
          "type": "bool"
        }
      ],
      "stateMutability": "view",
      "type": "function",
      "constant": true
    },
    {
      "inputs": [
        {
          "internalType": "address",
          "name": "owner",
          "type": "address"
        }
      ],
      "name": "balanceOf",
      "outputs": [
        {
          "internalType": "uint256",
          "name": "",
          "type": "uint256"
        }
      ],
      "stateMutability": "view",
      "type": "function",
      "constant": true
    },
    {
      "inputs": [
        {
          "internalType": "uint256",
          "name": "tokenId",
          "type": "uint256"
        }
      ],
      "name": "getApproved",
      "outputs": [
        {
          "internalType": "address",
          "name": "",
          "type": "address"
        }
      ],
      "stateMutability": "view",
      "type": "function",
      "constant": true
    },
    {
      "inputs": [],
      "name": "highestBidAmount",
      "outputs": [
        {
          "internalType": "uint256",
          "name": "",
          "type": "uint256"
        }
      ],
      "stateMutability": "view",
      "type": "function",
      "constant": true
    },
    {
      "inputs": [],
      "name": "highestBidder",
      "outputs": [
        {
          "internalType": "address",
          "name": "",
          "type": "address"
        }
      ],
      "stateMutability": "view",
      "type": "function",
      "constant": true
    },
    {
      "inputs": [
        {
          "internalType": "address",
          "name": "owner",
          "type": "address"
        },
        {
          "internalType": "address",
          "name": "operator",
          "type": "address"
        }
      ],
      "name": "isApprovedForAll",
      "outputs": [
        {
          "internalType": "bool",
          "name": "",
          "type": "bool"
        }
      ],
      "stateMutability": "view",
      "type": "function",
      "constant": true
    },
    {
      "inputs": [],
      "name": "name",
      "outputs": [
        {
          "internalType": "string",
          "name": "",
          "type": "string"
        }
      ],
      "stateMutability": "view",
      "type": "function",
      "constant": true
    },
    {
      "inputs": [
        {
          "internalType": "uint256",
          "name": "tokenId",
          "type": "uint256"
        }
      ],
      "name": "ownerOf",
      "outputs": [
        {
          "internalType": "address",
          "name": "",
          "type": "address"
        }
      ],
      "stateMutability": "view",
      "type": "function",
      "constant": true
    },
    {
      "inputs": [
        {
          "internalType": "address",
          "name": "from",
          "type": "address"
        },
        {
          "internalType": "address",
          "name": "to",
          "type": "address"
        },
        {
          "internalType": "uint256",
          "name": "tokenId",
          "type": "uint256"
        }
      ],
      "name": "safeTransferFrom",
      "outputs": [],
      "stateMutability": "nonpayable",
      "type": "function"
    },
    {
      "inputs": [
        {
          "internalType": "address",
          "name": "from",
          "type": "address"
        },
        {
          "internalType": "address",
          "name": "to",
          "type": "address"
        },
        {
          "internalType": "uint256",
          "name": "tokenId",
          "type": "uint256"
        },
        {
          "internalType": "bytes",
          "name": "data",
          "type": "bytes"
        }
      ],
      "name": "safeTransferFrom",
      "outputs": [],
      "stateMutability": "nonpayable",
      "type": "function"
    },
    {
      "inputs": [
        {
          "internalType": "address",
          "name": "operator",
          "type": "address"
        },
        {
          "internalType": "bool",
          "name": "approved",
          "type": "bool"
        }
      ],
      "name": "setApprovalForAll",
      "outputs": [],
      "stateMutability": "nonpayable",
      "type": "function"
    },
    {
      "inputs": [
        {
          "internalType": "bytes4",
          "name": "interfaceId",
          "type": "bytes4"
        }
      ],
      "name": "supportsInterface",
      "outputs": [
        {
          "internalType": "bool",
          "name": "",
          "type": "bool"
        }
      ],
      "stateMutability": "view",
      "type": "function",
      "constant": true
    },
    {
      "inputs": [],
      "name": "symbol",
      "outputs": [
        {
          "internalType": "string",
          "name": "",
          "type": "string"
        }
      ],
      "stateMutability": "view",
      "type": "function",
      "constant": true
    },
    {
      "inputs": [
        {
          "internalType": "uint256",
          "name": "tokenId",
          "type": "uint256"
        }
      ],
      "name": "tokenURI",
      "outputs": [
        {
          "internalType": "string",
          "name": "",
          "type": "string"
        }
      ],
      "stateMutability": "view",
      "type": "function",
      "constant": true
    },
    {
      "inputs": [
        {
          "internalType": "address",
          "name": "from",
          "type": "address"
        },
        {
          "internalType": "address",
          "name": "to",
          "type": "address"
        },
        {
          "internalType": "uint256",
          "name": "tokenId",
          "type": "uint256"
        }
      ],
      "name": "transferFrom",
      "outputs": [],
      "stateMutability": "nonpayable",
      "type": "function"
    },
    {
      "inputs": [],
      "name": "placeBid",
      "outputs": [],
      "stateMutability": "payable",
      "type": "function",
      "payable": true
    },
    {
      "inputs": [],
      "name": "getContractBalance",
      "outputs": [
        {
          "internalType": "uint256",
          "name": "",
          "type": "uint256"
        }
      ],
      "stateMutability": "view",
      "type": "function",
      "constant": true
    },
    {
      "inputs": [
        {
          "internalType": "address",
          "name": "_address",
          "type": "address"
        }
      ],
      "name": "getBiddersBid",
      "outputs": [
        {
          "internalType": "uint256",
          "name": "",
          "type": "uint256"
        }
      ],
      "stateMutability": "view",
      "type": "function",
      "constant": true
    },
    {
      "inputs": [],
      "name": "getHighestBidAmount",
      "outputs": [
        {
          "internalType": "uint256",
          "name": "",
          "type": "uint256"
        }
      ],
      "stateMutability": "view",
      "type": "function",
      "constant": true
    },
    {
      "inputs": [],
      "name": "getHighestBidder",
      "outputs": [
        {
          "internalType": "address",
          "name": "",
          "type": "address"
        }
      ],
      "stateMutability": "view",
      "type": "function",
      "constant": true
    },
    {
      "inputs": [
        {
          "internalType": "address payable",
          "name": "_address",
          "type": "address"
        }
      ],
      "name": "withdrawFunds",
      "outputs": [],
      "stateMutability": "nonpayable",
      "type": "function"
    }
  ],
  "bytecode": "0x6080604052600160075542600c553480156200001a57600080fd5b506040518060400160405280600c81526020017f41756374696f6e546f6b656e00000000000000000000000000000000000000008152506040518060400160405280600381526020017f41544b000000000000000000000000000000000000000000000000000000000081525081600090816200009891906200032d565b508060019081620000aa91906200032d565b50505062000414565b600081519050919050565b7f4e487b7100000000000000000000000000000000000000000000000000000000600052604160045260246000fd5b7f4e487b7100000000000000000000000000000000000000000000000000000000600052602260045260246000fd5b600060028204905060018216806200013557607f821691505b6020821081036200014b576200014a620000ed565b5b50919050565b60008190508160005260206000209050919050565b60006020601f8301049050919050565b600082821b905092915050565b600060088302620001b57fffffffffffffffffffffffffffffffffffffffffffffffffffffffffffffffff8262000176565b620001c1868362000176565b95508019841693508086168417925050509392505050565b6000819050919050565b6000819050919050565b60006200020e620002086200020284620001d9565b620001e3565b620001d9565b9050919050565b6000819050919050565b6200022a83620001ed565b62000242620002398262000215565b84845462000183565b825550505050565b600090565b620002596200024a565b620002668184846200021f565b505050565b5b818110156200028e57620002826000826200024f565b6001810190506200026c565b5050565b601f821115620002dd57620002a78162000151565b620002b28462000166565b81016020851015620002c2578190505b620002da620002d18562000166565b8301826200026b565b50505b505050565b600082821c905092915050565b60006200030260001984600802620002e2565b1980831691505092915050565b60006200031d8383620002ef565b9150826002028217905092915050565b6200033882620000b3565b67ffffffffffffffff811115620003545762000353620000be565b5b6200036082546200011c565b6200036d82828562000292565b600060209050601f831160018114620003a5576000841562000390578287015190505b6200039c85826200030f565b8655506200040c565b601f198416620003b58662000151565b60005b82811015620003df57848901518255600182019150602085019450602081019050620003b8565b86831015620003ff5784890151620003fb601f891682620002ef565b8355505b6001600288020188555050505b505050505050565b61296780620004246000396000f3fe6080604052600436106101345760003560e01c806368742da6116100ab57806395d89b411161006f57806395d89b4114610453578063a22cb4651461047e578063b88d4fde146104a7578063c87b56dd146104d0578063e985e9c51461050d578063ecfc7ecc1461054a57610134565b806368742da61461036c5780636f9fb98a1461039557806370a08231146103c05780638f9b4874146103fd57806391f901571461042857610134565b8063095ea7b3116100fd578063095ea7b31461024657806323b872dd1461026f5780632d9ffe9f1461029857806342842e0e146102c3578063571a26a0146102ec5780636352211e1461032f57610134565b80623495a41461013957806301ffc9a714610164578063058f4629146101a157806306fdde03146101de578063081812fc14610209575b600080fd5b34801561014557600080fd5b5061014e610554565b60405161015b9190611bc4565b60405180910390f35b34801561017057600080fd5b5061018b60048036038101906101869190611c4b565b61057e565b6040516101989190611c93565b60405180910390f35b3480156101ad57600080fd5b506101c860048036038101906101c39190611cda565b6105df565b6040516101d59190611d20565b60405180910390f35b3480156101ea57600080fd5b506101f3610628565b6040516102009190611dcb565b60405180910390f35b34801561021557600080fd5b50610230600480360381019061022b9190611e19565b6106ba565b60405161023d9190611bc4565b60405180910390f35b34801561025257600080fd5b5061026d60048036038101906102689190611e46565b610700565b005b34801561027b57600080fd5b5061029660048036038101906102919190611e86565b610817565b005b3480156102a457600080fd5b506102ad610877565b6040516102ba9190611d20565b60405180910390f35b3480156102cf57600080fd5b506102ea60048036038101906102e59190611e86565b610881565b005b3480156102f857600080fd5b50610313600480360381019061030e9190611e19565b6108a1565b6040516103269796959493929190611efa565b60405180910390f35b34801561033b57600080fd5b5061035660048036038101906103519190611e19565b610930565b6040516103639190611bc4565b60405180910390f35b34801561037857600080fd5b50610393600480360381019061038e9190611f95565b6109b6565b005b3480156103a157600080fd5b506103aa610a88565b6040516103b79190611d20565b60405180910390f35b3480156103cc57600080fd5b506103e760048036038101906103e29190611cda565b610a90565b6040516103f49190611d20565b60405180910390f35b34801561040957600080fd5b50610412610b47565b60405161041f9190611d20565b60405180910390f35b34801561043457600080fd5b5061043d610b4d565b60405161044a9190611bc4565b60405180910390f35b34801561045f57600080fd5b50610468610b73565b6040516104759190611dcb565b60405180910390f35b34801561048a57600080fd5b506104a560048036038101906104a09190611fee565b610c05565b005b3480156104b357600080fd5b506104ce60048036038101906104c99190612163565b610c1b565b005b3480156104dc57600080fd5b506104f760048036038101906104f29190611e19565b610c7d565b6040516105049190611dcb565b60405180910390f35b34801561051957600080fd5b50610534600480360381019061052f91906121e6565b610d8f565b6040516105419190611c93565b60405180910390f35b610552610e23565b005b6000600b60009054906101000a900473ffffffffffffffffffffffffffffffffffffffff16905090565b6000634906490660e01b7bffffffffffffffffffffffffffffffffffffffffffffffffffffffff1916827bffffffffffffffffffffffffffffffffffffffffffffffffffffffff191614806105d857506105d782610f01565b5b9050919050565b6000600960008373ffffffffffffffffffffffffffffffffffffffff1673ffffffffffffffffffffffffffffffffffffffff168152602001908152602001600020549050919050565b60606000805461063790612255565b80601f016020809104026020016040519081016040528092919081815260200182805461066390612255565b80156106b05780601f10610685576101008083540402835291602001916106b0565b820191906000526020600020905b81548152906001019060200180831161069357829003601f168201915b5050505050905090565b60006106c582610fe3565b6004600083815260200190815260200160002060009054906101000a900473ffffffffffffffffffffffffffffffffffffffff169050919050565b600061070b82610930565b90508073ffffffffffffffffffffffffffffffffffffffff168373ffffffffffffffffffffffffffffffffffffffff160361077b576040517f08c379a0000000000000000000000000000000000000000000000000000000008152600401610772906122f8565b60405180910390fd5b8073ffffffffffffffffffffffffffffffffffffffff1661079a61102e565b73ffffffffffffffffffffffffffffffffffffffff1614806107c957506107c8816107c361102e565b610d8f565b5b610808576040517f08c379a00000000000000000000000000000000000000000000000000000000081526004016107ff9061238a565b60405180910390fd5b6108128383611036565b505050565b61082861082261102e565b826110ef565b610867576040517f08c379a000000000000000000000000000000000000000000000000000000000815260040161085e9061241c565b60405180910390fd5b610872838383611184565b505050565b6000600a54905090565b61089c83838360405180602001604052806000815250610c1b565b505050565b60086020528060005260406000206000915090508060000154908060010160009054906101000a900473ffffffffffffffffffffffffffffffffffffffff16908060020154908060030154908060040160009054906101000a900473ffffffffffffffffffffffffffffffffffffffff16908060050154908060060160009054906101000a900460ff16905087565b60008061093c8361147d565b9050600073ffffffffffffffffffffffffffffffffffffffff168173ffffffffffffffffffffffffffffffffffffffff16036109ad576040517f08c379a00000000000000000000000000000000000000000000000000000000081526004016109a490612488565b60405180910390fd5b80915050919050565b6000600960008373ffffffffffffffffffffffffffffffffffffffff1673ffffffffffffffffffffffffffffffffffffffff168152602001908152602001600020541115610a85578073ffffffffffffffffffffffffffffffffffffffff166108fc600960008473ffffffffffffffffffffffffffffffffffffffff1673ffffffffffffffffffffffffffffffffffffffff168152602001908152602001600020549081150290604051600060405180830381858888f19350505050158015610a83573d6000803e3d6000fd5b505b50565b600047905090565b60008073ffffffffffffffffffffffffffffffffffffffff168273ffffffffffffffffffffffffffffffffffffffff1603610b00576040517f08c379a0000000000000000000000000000000000000000000000000000000008152600401610af79061251a565b60405180910390fd5b600360008373ffffffffffffffffffffffffffffffffffffffff1673ffffffffffffffffffffffffffffffffffffffff168152602001908152602001600020549050919050565b600a5481565b600b60009054906101000a900473ffffffffffffffffffffffffffffffffffffffff1681565b606060018054610b8290612255565b80601f0160208091040260200160405190810160405280929190818152602001828054610bae90612255565b8015610bfb5780601f10610bd057610100808354040283529160200191610bfb565b820191906000526020600020905b815481529060010190602001808311610bde57829003601f168201915b5050505050905090565b610c17610c1061102e565b83836114ba565b5050565b610c2c610c2661102e565b836110ef565b610c6b576040517f08c379a0000000000000000000000000000000000000000000000000000000008152600401610c629061241c565b60405180910390fd5b610c7784848484611626565b50505050565b6060610c8882610fe3565b6000600660008481526020019081526020016000208054610ca890612255565b80601f0160208091040260200160405190810160405280929190818152602001828054610cd490612255565b8015610d215780601f10610cf657610100808354040283529160200191610d21565b820191906000526020600020905b815481529060010190602001808311610d0457829003601f168201915b505050505090506000610d32611682565b90506000815103610d47578192505050610d8a565b600082511115610d7c578082604051602001610d64929190612576565b60405160208183030381529060405292505050610d8a565b610d8584611699565b925050505b919050565b6000600560008473ffffffffffffffffffffffffffffffffffffffff1673ffffffffffffffffffffffffffffffffffffffff16815260200190815260200160002060008373ffffffffffffffffffffffffffffffffffffffff1673ffffffffffffffffffffffffffffffffffffffff16815260200190815260200160002060009054906101000a900460ff16905092915050565b600034600960003373ffffffffffffffffffffffffffffffffffffffff1673ffffffffffffffffffffffffffffffffffffffff16815260200190815260200160002054610e7091906125c9565b905080600960003373ffffffffffffffffffffffffffffffffffffffff1673ffffffffffffffffffffffffffffffffffffffff1681526020019081526020016000208190555080600a8190555033600b60006101000a81548173ffffffffffffffffffffffffffffffffffffffff021916908373ffffffffffffffffffffffffffffffffffffffff16021790555050565b60007f80ac58cd000000000000000000000000000000000000000000000000000000007bffffffffffffffffffffffffffffffffffffffffffffffffffffffff1916827bffffffffffffffffffffffffffffffffffffffffffffffffffffffff19161480610fcc57507f5b5e139f000000000000000000000000000000000000000000000000000000007bffffffffffffffffffffffffffffffffffffffffffffffffffffffff1916827bffffffffffffffffffffffffffffffffffffffffffffffffffffffff1916145b80610fdc5750610fdb82611701565b5b9050919050565b610fec8161176b565b61102b576040517f08c379a000000000000000000000000000000000000000000000000000000000815260040161102290612488565b60405180910390fd5b50565b600033905090565b816004600083815260200190815260200160002060006101000a81548173ffffffffffffffffffffffffffffffffffffffff021916908373ffffffffffffffffffffffffffffffffffffffff160217905550808273ffffffffffffffffffffffffffffffffffffffff166110a983610930565b73ffffffffffffffffffffffffffffffffffffffff167f8c5be1e5ebec7d5bd14f71427d1e84f3dd0314c0f7b2291e5b200ac8c7c3b92560405160405180910390a45050565b6000806110fb83610930565b90508073ffffffffffffffffffffffffffffffffffffffff168473ffffffffffffffffffffffffffffffffffffffff16148061113d575061113c8185610d8f565b5b8061117b57508373ffffffffffffffffffffffffffffffffffffffff16611163846106ba565b73ffffffffffffffffffffffffffffffffffffffff16145b91505092915050565b8273ffffffffffffffffffffffffffffffffffffffff166111a482610930565b73ffffffffffffffffffffffffffffffffffffffff16146111fa576040517f08c379a00000000000000000000000000000000000000000000000000000000081526004016111f19061266f565b60405180910390fd5b600073ffffffffffffffffffffffffffffffffffffffff168273ffffffffffffffffffffffffffffffffffffffff1603611269576040517f08c379a000000000000000000000000000000000000000000000000000000000815260040161126090612701565b60405180910390fd5b61127683838360016117ac565b8273ffffffffffffffffffffffffffffffffffffffff1661129682610930565b73ffffffffffffffffffffffffffffffffffffffff16146112ec576040517f08c379a00000000000000000000000000000000000000000000000000000000081526004016112e39061266f565b60405180910390fd5b6004600082815260200190815260200160002060006101000a81549073ffffffffffffffffffffffffffffffffffffffff02191690556001600360008573ffffffffffffffffffffffffffffffffffffffff1673ffffffffffffffffffffffffffffffffffffffff168152602001908152602001600020600082825403925050819055506001600360008473ffffffffffffffffffffffffffffffffffffffff1673ffffffffffffffffffffffffffffffffffffffff16815260200190815260200160002060008282540192505081905550816002600083815260200190815260200160002060006101000a81548173ffffffffffffffffffffffffffffffffffffffff021916908373ffffffffffffffffffffffffffffffffffffffff160217905550808273ffffffffffffffffffffffffffffffffffffffff168473ffffffffffffffffffffffffffffffffffffffff167fddf252ad1be2c89b69c2b068fc378daa952ba7f163c4a11628f55a4df523b3ef60405160405180910390a461147883838360016117b2565b505050565b60006002600083815260200190815260200160002060009054906101000a900473ffffffffffffffffffffffffffffffffffffffff169050919050565b8173ffffffffffffffffffffffffffffffffffffffff168373ffffffffffffffffffffffffffffffffffffffff1603611528576040517f08c379a000000000000000000000000000000000000000000000000000000000815260040161151f9061276d565b60405180910390fd5b80600560008573ffffffffffffffffffffffffffffffffffffffff1673ffffffffffffffffffffffffffffffffffffffff16815260200190815260200160002060008473ffffffffffffffffffffffffffffffffffffffff1673ffffffffffffffffffffffffffffffffffffffff16815260200190815260200160002060006101000a81548160ff0219169083151502179055508173ffffffffffffffffffffffffffffffffffffffff168373ffffffffffffffffffffffffffffffffffffffff167f17307eab39ab6107e8899845ad3d59bd9653f200f220920489ca2b5937696c31836040516116199190611c93565b60405180910390a3505050565b611631848484611184565b61163d848484846117b8565b61167c576040517f08c379a0000000000000000000000000000000000000000000000000000000008152600401611673906127ff565b60405180910390fd5b50505050565b606060405180602001604052806000815250905090565b60606116a482610fe3565b60006116ae611682565b905060008151116116ce57604051806020016040528060008152506116f9565b806116d88461193f565b6040516020016116e9929190612576565b6040516020818303038152906040525b915050919050565b60007f01ffc9a7000000000000000000000000000000000000000000000000000000007bffffffffffffffffffffffffffffffffffffffffffffffffffffffff1916827bffffffffffffffffffffffffffffffffffffffffffffffffffffffff1916149050919050565b60008073ffffffffffffffffffffffffffffffffffffffff1661178d8361147d565b73ffffffffffffffffffffffffffffffffffffffff1614159050919050565b50505050565b50505050565b60006117d98473ffffffffffffffffffffffffffffffffffffffff16611a0d565b15611932578373ffffffffffffffffffffffffffffffffffffffff1663150b7a0261180261102e565b8786866040518563ffffffff1660e01b81526004016118249493929190612874565b6020604051808303816000875af192505050801561186057506040513d601f19601f8201168201806040525081019061185d91906128d5565b60015b6118e2573d8060008114611890576040519150601f19603f3d011682016040523d82523d6000602084013e611895565b606091505b5060008151036118da576040517f08c379a00000000000000000000000000000000000000000000000000000000081526004016118d1906127ff565b60405180910390fd5b805181602001fd5b63150b7a0260e01b7bffffffffffffffffffffffffffffffffffffffffffffffffffffffff1916817bffffffffffffffffffffffffffffffffffffffffffffffffffffffff191614915050611937565b600190505b949350505050565b60606000600161194e84611a30565b01905060008167ffffffffffffffff81111561196d5761196c612038565b5b6040519080825280601f01601f19166020018201604052801561199f5781602001600182028036833780820191505090505b509050600082602001820190505b600115611a02578080600190039150507f3031323334353637383961626364656600000000000000000000000000000000600a86061a8153600a85816119f6576119f5612902565b5b049450600085036119ad575b819350505050919050565b6000808273ffffffffffffffffffffffffffffffffffffffff163b119050919050565b600080600090507a184f03e93ff9f4daa797ed6e38ed64bf6a1f0100000000000000008310611a8e577a184f03e93ff9f4daa797ed6e38ed64bf6a1f0100000000000000008381611a8457611a83612902565b5b0492506040810190505b6d04ee2d6d415b85acef81000000008310611acb576d04ee2d6d415b85acef81000000008381611ac157611ac0612902565b5b0492506020810190505b662386f26fc100008310611afa57662386f26fc100008381611af057611aef612902565b5b0492506010810190505b6305f5e1008310611b23576305f5e1008381611b1957611b18612902565b5b0492506008810190505b6127108310611b48576127108381611b3e57611b3d612902565b5b0492506004810190505b60648310611b6b5760648381611b6157611b60612902565b5b0492506002810190505b600a8310611b7a576001810190505b80915050919050565b600073ffffffffffffffffffffffffffffffffffffffff82169050919050565b6000611bae82611b83565b9050919050565b611bbe81611ba3565b82525050565b6000602082019050611bd96000830184611bb5565b92915050565b6000604051905090565b600080fd5b600080fd5b60007fffffffff0000000000000000000000000000000000000000000000000000000082169050919050565b611c2881611bf3565b8114611c3357600080fd5b50565b600081359050611c4581611c1f565b92915050565b600060208284031215611c6157611c60611be9565b5b6000611c6f84828501611c36565b91505092915050565b60008115159050919050565b611c8d81611c78565b82525050565b6000602082019050611ca86000830184611c84565b92915050565b611cb781611ba3565b8114611cc257600080fd5b50565b600081359050611cd481611cae565b92915050565b600060208284031215611cf057611cef611be9565b5b6000611cfe84828501611cc5565b91505092915050565b6000819050919050565b611d1a81611d07565b82525050565b6000602082019050611d356000830184611d11565b92915050565b600081519050919050565b600082825260208201905092915050565b60005b83811015611d75578082015181840152602081019050611d5a565b60008484015250505050565b6000601f19601f8301169050919050565b6000611d9d82611d3b565b611da78185611d46565b9350611db7818560208601611d57565b611dc081611d81565b840191505092915050565b60006020820190508181036000830152611de58184611d92565b905092915050565b611df681611d07565b8114611e0157600080fd5b50565b600081359050611e1381611ded565b92915050565b600060208284031215611e2f57611e2e611be9565b5b6000611e3d84828501611e04565b91505092915050565b60008060408385031215611e5d57611e5c611be9565b5b6000611e6b85828601611cc5565b9250506020611e7c85828601611e04565b9150509250929050565b600080600060608486031215611e9f57611e9e611be9565b5b6000611ead86828701611cc5565b9350506020611ebe86828701611cc5565b9250506040611ecf86828701611e04565b9150509250925092565b6000611ee482611b83565b9050919050565b611ef481611ed9565b82525050565b600060e082019050611f0f600083018a611d11565b611f1c6020830189611eeb565b611f296040830188611d11565b611f366060830187611d11565b611f436080830186611eeb565b611f5060a0830185611d11565b611f5d60c0830184611c84565b98975050505050505050565b611f7281611ed9565b8114611f7d57600080fd5b50565b600081359050611f8f81611f69565b92915050565b600060208284031215611fab57611faa611be9565b5b6000611fb984828501611f80565b91505092915050565b611fcb81611c78565b8114611fd657600080fd5b50565b600081359050611fe881611fc2565b92915050565b6000806040838503121561200557612004611be9565b5b600061201385828601611cc5565b925050602061202485828601611fd9565b9150509250929050565b600080fd5b600080fd5b7f4e487b7100000000000000000000000000000000000000000000000000000000600052604160045260246000fd5b61207082611d81565b810181811067ffffffffffffffff8211171561208f5761208e612038565b5b80604052505050565b60006120a2611bdf565b90506120ae8282612067565b919050565b600067ffffffffffffffff8211156120ce576120cd612038565b5b6120d782611d81565b9050602081019050919050565b82818337600083830152505050565b6000612106612101846120b3565b612098565b90508281526020810184848401111561212257612121612033565b5b61212d8482856120e4565b509392505050565b600082601f83011261214a5761214961202e565b5b813561215a8482602086016120f3565b91505092915050565b6000806000806080858703121561217d5761217c611be9565b5b600061218b87828801611cc5565b945050602061219c87828801611cc5565b93505060406121ad87828801611e04565b925050606085013567ffffffffffffffff8111156121ce576121cd611bee565b5b6121da87828801612135565b91505092959194509250565b600080604083850312156121fd576121fc611be9565b5b600061220b85828601611cc5565b925050602061221c85828601611cc5565b9150509250929050565b7f4e487b7100000000000000000000000000000000000000000000000000000000600052602260045260246000fd5b6000600282049050600182168061226d57607f821691505b6020821081036122805761227f612226565b5b50919050565b7f4552433732313a20617070726f76616c20746f2063757272656e74206f776e6560008201527f7200000000000000000000000000000000000000000000000000000000000000602082015250565b60006122e2602183611d46565b91506122ed82612286565b604082019050919050565b60006020820190508181036000830152612311816122d5565b9050919050565b7f4552433732313a20617070726f76652063616c6c6572206973206e6f7420746f60008201527f6b656e206f776e6572206f7220617070726f76656420666f7220616c6c000000602082015250565b6000612374603d83611d46565b915061237f82612318565b604082019050919050565b600060208201905081810360008301526123a381612367565b9050919050565b7f4552433732313a2063616c6c6572206973206e6f7420746f6b656e206f776e6560008201527f72206f7220617070726f76656400000000000000000000000000000000000000602082015250565b6000612406602d83611d46565b9150612411826123aa565b604082019050919050565b60006020820190508181036000830152612435816123f9565b9050919050565b7f4552433732313a20696e76616c696420746f6b656e2049440000000000000000600082015250565b6000612472601883611d46565b915061247d8261243c565b602082019050919050565b600060208201905081810360008301526124a181612465565b9050919050565b7f4552433732313a2061646472657373207a65726f206973206e6f74206120766160008201527f6c6964206f776e65720000000000000000000000000000000000000000000000602082015250565b6000612504602983611d46565b915061250f826124a8565b604082019050919050565b60006020820190508181036000830152612533816124f7565b9050919050565b600081905092915050565b600061255082611d3b565b61255a818561253a565b935061256a818560208601611d57565b80840191505092915050565b60006125828285612545565b915061258e8284612545565b91508190509392505050565b7f4e487b7100000000000000000000000000000000000000000000000000000000600052601160045260246000fd5b60006125d482611d07565b91506125df83611d07565b92508282019050808211156125f7576125f661259a565b5b92915050565b7f4552433732313a207472616e736665722066726f6d20696e636f72726563742060008201527f6f776e6572000000000000000000000000000000000000000000000000000000602082015250565b6000612659602583611d46565b9150612664826125fd565b604082019050919050565b600060208201905081810360008301526126888161264c565b9050919050565b7f4552433732313a207472616e7366657220746f20746865207a65726f2061646460008201527f7265737300000000000000000000000000000000000000000000000000000000602082015250565b60006126eb602483611d46565b91506126f68261268f565b604082019050919050565b6000602082019050818103600083015261271a816126de565b9050919050565b7f4552433732313a20617070726f766520746f2063616c6c657200000000000000600082015250565b6000612757601983611d46565b915061276282612721565b602082019050919050565b600060208201905081810360008301526127868161274a565b9050919050565b7f4552433732313a207472616e7366657220746f206e6f6e20455243373231526560008201527f63656976657220696d706c656d656e7465720000000000000000000000000000602082015250565b60006127e9603283611d46565b91506127f48261278d565b604082019050919050565b60006020820190508181036000830152612818816127dc565b9050919050565b600081519050919050565b600082825260208201905092915050565b60006128468261281f565b612850818561282a565b9350612860818560208601611d57565b61286981611d81565b840191505092915050565b60006080820190506128896000830187611bb5565b6128966020830186611bb5565b6128a36040830185611d11565b81810360608301526128b5818461283b565b905095945050505050565b6000815190506128cf81611c1f565b92915050565b6000602082840312156128eb576128ea611be9565b5b60006128f9848285016128c0565b91505092915050565b7f4e487b7100000000000000000000000000000000000000000000000000000000600052601260045260246000fdfea2646970667358221220f165421b83676b46e0502c000babb0da3ee12d7c8fb97fdc1388b4f40d5885c064736f6c63430008130033",
  "immutableReferences": {},
  "source": "// SPDX-License-Identifier: MIT\r\npragma solidity 0.8.19;\r\n\r\nimport \"@openzeppelin/contracts/token/ERC721/ERC721.sol\";\r\nimport \"@openzeppelin/contracts/token/ERC721/extensions/ERC721URIStorage.sol\";\r\n\r\ncontract Auction is ERC721URIStorage {\r\n    uint256 private _tokenId = 1;\r\n\r\n    struct AuctionItem {\r\n        uint256 tokenId;\r\n        address payable seller;\r\n        uint256 startingPrice;\r\n        uint256 highestBid;\r\n        address payable highestBidder;\r\n        uint256 endTime;\r\n        bool isActive;\r\n    }\r\n\r\n    mapping(uint256 => AuctionItem) public auctions;\r\n\r\n    event AuctionCreated(\r\n        uint256 indexed tokenId,\r\n        address indexed seller,\r\n        uint256 startingPrice,\r\n        uint256 endTime\r\n    );\r\n    \r\n    event BidPlaced(\r\n        uint256 indexed tokenId,\r\n        address indexed bidder,\r\n        uint256 bidAmount\r\n    );\r\n\r\n    event AuctionEnded(\r\n        uint256 indexed tokenId,\r\n        address indexed winner,\r\n        uint256 winningBid\r\n    );\r\n\r\n    constructor() ERC721(\"AuctionToken\", \"ATK\") {}\r\n\r\n    function mintToken(string memory tokenURI) internal returns (bool) {\r\n         _mint(msg.sender, _tokenId);\r\n        _setTokenURI(_tokenId, tokenURI);\r\n         _tokenId++;\r\n        return true;\r\n    }\r\n\r\n    mapping(address => uint256) biddersData;\r\n    uint256 public highestBidAmount;\r\n    address public highestBidder;\r\n    uint256 startTime = block.timestamp;\r\n    uint256 endTime;\r\n\r\n\r\n    // put new bid\r\n    function placeBid() public payable {\r\n        uint256 totalAmount = biddersData[msg.sender] + msg.value;\r\n\r\n        // require(block.timestamp < endTime, \"Auction has ended\");\r\n        // require(msg.value > 0, \"Bid amount must be greater than zero\");\r\n        // require(totalAmount > highestBidAmount, \"Bid amount must be higher than the current highest bid\");\r\n        \r\n        biddersData[msg.sender] = totalAmount;\r\n        highestBidAmount = totalAmount;\r\n        highestBidder = msg.sender;\r\n    }\r\n\r\n    // get contract balance\r\n    function getContractBalance() public view returns (uint256) {\r\n        return address(this).balance;\r\n    }\r\n\r\n    // get bidders bid\r\n    function getBiddersBid(address _address) public view returns (uint256) {\r\n        return biddersData[_address];\r\n    }\r\n\r\n    // get highest bid amount\r\n    function getHighestBidAmount() public view returns (uint256) {\r\n        return highestBidAmount;\r\n    }\r\n\r\n    // highest bidder details\r\n    function getHighestBidder() public view returns (address) {\r\n        return highestBidder;\r\n    }\r\n\r\n    // end auction\r\n    // function endAuction(uint _endTime) public {\r\n    //     endTime = block.timestamp + _endTime;\r\n    // }\r\n    \r\n    // withdraw funds\r\n    function withdrawFunds(address payable _address) public {\r\n        if(biddersData[_address] > 0){\r\n            _address.transfer(biddersData[_address]);\r\n        }\r\n    }\r\n\r\n    \r\n}",
  "sourcePath": "D:\\CSUF\\AdvBlockchain\\Auction-DApp\\new-auction\\contracts\\Auction.sol",
  "compiler": {
    "name": "solc",
    "version": "0.8.19+commit.7dd6d404.Emscripten.clang"
  },
  "schemaVersion": "3.4.16",
  "updatedAt": "2025-04-14T19:46:43.080Z",
  "networkType": "ethereum",
  "devdoc": {
    "events": {
      "Approval(address,address,uint256)": {
        "details": "Emitted when `owner` enables `approved` to manage the `tokenId` token."
      },
      "ApprovalForAll(address,address,bool)": {
        "details": "Emitted when `owner` enables or disables (`approved`) `operator` to manage all of its assets."
      },
      "BatchMetadataUpdate(uint256,uint256)": {
        "details": "This event emits when the metadata of a range of tokens is changed. So that the third-party platforms such as NFT market could timely update the images and related attributes of the NFTs."
      },
      "MetadataUpdate(uint256)": {
        "details": "This event emits when the metadata of a token is changed. So that the third-party platforms such as NFT market could timely update the images and related attributes of the NFT."
      },
      "Transfer(address,address,uint256)": {
        "details": "Emitted when `tokenId` token is transferred from `from` to `to`."
      }
    },
    "kind": "dev",
    "methods": {
      "approve(address,uint256)": {
        "details": "See {IERC721-approve}."
      },
      "balanceOf(address)": {
        "details": "See {IERC721-balanceOf}."
      },
      "getApproved(uint256)": {
        "details": "See {IERC721-getApproved}."
      },
      "isApprovedForAll(address,address)": {
        "details": "See {IERC721-isApprovedForAll}."
      },
      "name()": {
        "details": "See {IERC721Metadata-name}."
      },
      "ownerOf(uint256)": {
        "details": "See {IERC721-ownerOf}."
      },
      "safeTransferFrom(address,address,uint256)": {
        "details": "See {IERC721-safeTransferFrom}."
      },
      "safeTransferFrom(address,address,uint256,bytes)": {
        "details": "See {IERC721-safeTransferFrom}."
      },
      "setApprovalForAll(address,bool)": {
        "details": "See {IERC721-setApprovalForAll}."
      },
      "supportsInterface(bytes4)": {
        "details": "See {IERC165-supportsInterface}"
      },
      "symbol()": {
        "details": "See {IERC721Metadata-symbol}."
      },
      "tokenURI(uint256)": {
        "details": "See {IERC721Metadata-tokenURI}."
      },
      "transferFrom(address,address,uint256)": {
        "details": "See {IERC721-transferFrom}."
      }
    },
    "version": 1
  },
  "userdoc": {
    "kind": "user",
    "methods": {},
    "version": 1
  }
}