{
  "contractName": "Auction",
  "abi": [
    {
      "inputs": [
        {
          "internalType": "address",
          "name": "_nftContract",
          "type": "address"
        }
      ],
      "stateMutability": "nonpayable",
      "type": "constructor"
    },
    {
      "anonymous": false,
      "inputs": [
        {
          "indexed": false,
          "internalType": "uint256",
          "name": "tokenId",
          "type": "uint256"
        },
        {
          "indexed": false,
          "internalType": "address",
          "name": "winner",
          "type": "address"
        },
        {
          "indexed": false,
          "internalType": "uint256",
          "name": "finalPrice",
          "type": "uint256"
        }
      ],
      "name": "AuctionEnded",
      "type": "event"
    },
    {
      "anonymous": false,
      "inputs": [
        {
          "indexed": true,
          "internalType": "uint256",
          "name": "tokenId",
          "type": "uint256"
        },
        {
          "indexed": false,
          "internalType": "address",
          "name": "seller",
          "type": "address"
        },
        {
          "indexed": false,
          "internalType": "address",
          "name": "owner",
          "type": "address"
        },
        {
          "indexed": false,
          "internalType": "uint256",
          "name": "price",
          "type": "uint256"
        },
        {
          "indexed": false,
          "internalType": "bool",
          "name": "sold",
          "type": "bool"
        }
      ],
      "name": "AuctionItemCreated",
      "type": "event"
    },
    {
      "anonymous": false,
      "inputs": [
        {
          "indexed": false,
          "internalType": "uint256",
          "name": "tokenId",
          "type": "uint256"
        },
        {
          "indexed": false,
          "internalType": "address",
          "name": "bidder",
          "type": "address"
        },
        {
          "indexed": false,
          "internalType": "uint256",
          "name": "amount",
          "type": "uint256"
        }
      ],
      "name": "NewBid",
      "type": "event"
    },
    {
      "inputs": [
        {
          "internalType": "uint256",
          "name": "",
          "type": "uint256"
        }
      ],
      "name": "auctionedItem",
      "outputs": [
        {
          "internalType": "uint256",
          "name": "tokenId",
          "type": "uint256"
        },
        {
          "internalType": "address payable",
          "name": "owner",
          "type": "address"
        },
        {
          "internalType": "address payable",
          "name": "seller",
          "type": "address"
        },
        {
          "internalType": "address",
          "name": "winner",
          "type": "address"
        },
        {
          "internalType": "uint256",
          "name": "price",
          "type": "uint256"
        },
        {
          "internalType": "bool",
          "name": "sold",
          "type": "bool"
        },
        {
          "internalType": "bool",
          "name": "live",
          "type": "bool"
        },
        {
          "internalType": "bool",
          "name": "biddable",
          "type": "bool"
        },
        {
          "internalType": "uint256",
          "name": "bids",
          "type": "uint256"
        },
        {
          "internalType": "uint256",
          "name": "duration",
          "type": "uint256"
        },
        {
          "internalType": "uint256",
          "name": "endTime",
          "type": "uint256"
        },
        {
          "internalType": "uint256",
          "name": "auctionId",
          "type": "uint256"
        }
      ],
      "stateMutability": "view",
      "type": "function",
      "constant": true
    },
    {
      "inputs": [
        {
          "internalType": "uint256",
          "name": "",
          "type": "uint256"
        }
      ],
      "name": "auctionedItemExists",
      "outputs": [
        {
          "internalType": "bool",
          "name": "",
          "type": "bool"
        }
      ],
      "stateMutability": "view",
      "type": "function",
      "constant": true
    },
    {
      "inputs": [
        {
          "internalType": "uint256",
          "name": "",
          "type": "uint256"
        },
        {
          "internalType": "uint256",
          "name": "",
          "type": "uint256"
        }
      ],
      "name": "biddersOf",
      "outputs": [
        {
          "internalType": "address",
          "name": "bidder",
          "type": "address"
        },
        {
          "internalType": "uint256",
          "name": "bidAmount",
          "type": "uint256"
        },
        {
          "internalType": "uint256",
          "name": "timestamp",
          "type": "uint256"
        },
        {
          "internalType": "bool",
          "name": "refunded",
          "type": "bool"
        },
        {
          "internalType": "bool",
          "name": "won",
          "type": "bool"
        }
      ],
      "stateMutability": "view",
      "type": "function",
      "constant": true
    },
    {
      "inputs": [],
      "name": "companyAcc",
      "outputs": [
        {
          "internalType": "address",
          "name": "",
          "type": "address"
        }
      ],
      "stateMutability": "view",
      "type": "function",
      "constant": true
    },
    {
      "inputs": [
        {
          "internalType": "string",
          "name": "",
          "type": "string"
        }
      ],
      "name": "existingURIs",
      "outputs": [
        {
          "internalType": "uint256",
          "name": "",
          "type": "uint256"
        }
      ],
      "stateMutability": "view",
      "type": "function",
      "constant": true
    },
    {
      "inputs": [],
      "name": "nftContract",
      "outputs": [
        {
          "internalType": "contract NFTAuction",
          "name": "",
          "type": "address"
        }
      ],
      "stateMutability": "view",
      "type": "function",
      "constant": true
    },
    {
      "inputs": [],
      "name": "owner",
      "outputs": [
        {
          "internalType": "address payable",
          "name": "",
          "type": "address"
        }
      ],
      "stateMutability": "view",
      "type": "function",
      "constant": true
    },
    {
      "inputs": [],
      "name": "royaltyFee",
      "outputs": [
        {
          "internalType": "uint256",
          "name": "",
          "type": "uint256"
        }
      ],
      "stateMutability": "view",
      "type": "function",
      "constant": true
    },
    {
      "inputs": [
        {
          "internalType": "uint256",
          "name": "tokenId",
          "type": "uint256"
        },
        {
          "internalType": "uint256",
          "name": "price",
          "type": "uint256"
        },
        {
          "internalType": "uint256",
          "name": "duration",
          "type": "uint256"
        }
      ],
      "name": "createAuction",
      "outputs": [],
      "stateMutability": "nonpayable",
      "type": "function"
    },
    {
      "inputs": [
        {
          "internalType": "uint256",
          "name": "tokenId",
          "type": "uint256"
        }
      ],
      "name": "placeBid",
      "outputs": [],
      "stateMutability": "payable",
      "type": "function",
      "payable": true
    },
    {
      "inputs": [
        {
          "internalType": "uint256",
          "name": "tokenId",
          "type": "uint256"
        }
      ],
      "name": "claimPrize",
      "outputs": [],
      "stateMutability": "nonpayable",
      "type": "function"
    },
    {
      "inputs": [
        {
          "internalType": "uint256",
          "name": "tokenId",
          "type": "uint256"
        }
      ],
      "name": "getAuctionStatus",
      "outputs": [
        {
          "internalType": "bool",
          "name": "isLive",
          "type": "bool"
        },
        {
          "internalType": "bool",
          "name": "isSold",
          "type": "bool"
        },
        {
          "internalType": "uint256",
          "name": "currentPrice",
          "type": "uint256"
        },
        {
          "internalType": "address",
          "name": "currentWinner",
          "type": "address"
        },
        {
          "internalType": "uint256",
          "name": "timeRemaining",
          "type": "uint256"
        },
        {
          "internalType": "uint256",
          "name": "totalBids",
          "type": "uint256"
        }
      ],
      "stateMutability": "view",
      "type": "function",
      "constant": true
    },
    {
      "inputs": [],
      "name": "getActiveAuctions",
      "outputs": [
        {
          "components": [
            {
              "internalType": "uint256",
              "name": "tokenId",
              "type": "uint256"
            },
            {
              "internalType": "address payable",
              "name": "owner",
              "type": "address"
            },
            {
              "internalType": "address payable",
              "name": "seller",
              "type": "address"
            },
            {
              "internalType": "address",
              "name": "winner",
              "type": "address"
            },
            {
              "internalType": "uint256",
              "name": "price",
              "type": "uint256"
            },
            {
              "internalType": "bool",
              "name": "sold",
              "type": "bool"
            },
            {
              "internalType": "bool",
              "name": "live",
              "type": "bool"
            },
            {
              "internalType": "bool",
              "name": "biddable",
              "type": "bool"
            },
            {
              "internalType": "uint256",
              "name": "bids",
              "type": "uint256"
            },
            {
              "internalType": "uint256",
              "name": "duration",
              "type": "uint256"
            },
            {
              "internalType": "uint256",
              "name": "endTime",
              "type": "uint256"
            },
            {
              "internalType": "uint256",
              "name": "auctionId",
              "type": "uint256"
            }
          ],
          "internalType": "struct Auction.AuctionStruct[]",
          "name": "",
          "type": "tuple[]"
        }
      ],
      "stateMutability": "view",
      "type": "function",
      "constant": true
    },
    {
      "inputs": [
        {
          "internalType": "uint256",
          "name": "tokenId",
          "type": "uint256"
        }
      ],
      "name": "getAuctionDetails",
      "outputs": [
        {
          "components": [
            {
              "internalType": "uint256",
              "name": "tokenId",
              "type": "uint256"
            },
            {
              "internalType": "address payable",
              "name": "owner",
              "type": "address"
            },
            {
              "internalType": "address payable",
              "name": "seller",
              "type": "address"
            },
            {
              "internalType": "address",
              "name": "winner",
              "type": "address"
            },
            {
              "internalType": "uint256",
              "name": "price",
              "type": "uint256"
            },
            {
              "internalType": "bool",
              "name": "sold",
              "type": "bool"
            },
            {
              "internalType": "bool",
              "name": "live",
              "type": "bool"
            },
            {
              "internalType": "bool",
              "name": "biddable",
              "type": "bool"
            },
            {
              "internalType": "uint256",
              "name": "bids",
              "type": "uint256"
            },
            {
              "internalType": "uint256",
              "name": "duration",
              "type": "uint256"
            },
            {
              "internalType": "uint256",
              "name": "endTime",
              "type": "uint256"
            },
            {
              "internalType": "uint256",
              "name": "auctionId",
              "type": "uint256"
            }
          ],
          "internalType": "struct Auction.AuctionStruct",
          "name": "",
          "type": "tuple"
        }
      ],
      "stateMutability": "view",
      "type": "function",
      "constant": true
    },
    {
      "inputs": [
        {
          "internalType": "uint256",
          "name": "tokenId",
          "type": "uint256"
        }
      ],
      "name": "getBidders",
      "outputs": [
        {
          "components": [
            {
              "internalType": "address",
              "name": "bidder",
              "type": "address"
            },
            {
              "internalType": "uint256",
              "name": "bidAmount",
              "type": "uint256"
            },
            {
              "internalType": "uint256",
              "name": "timestamp",
              "type": "uint256"
            },
            {
              "internalType": "bool",
              "name": "refunded",
              "type": "bool"
            },
            {
              "internalType": "bool",
              "name": "won",
              "type": "bool"
            }
          ],
          "internalType": "struct Auction.BidderStruct[]",
          "name": "",
          "type": "tuple[]"
        }
      ],
      "stateMutability": "view",
      "type": "function",
      "constant": true
    },
    {
      "inputs": [],
      "name": "getCompletedAuctions",
      "outputs": [
        {
          "components": [
            {
              "internalType": "uint256",
              "name": "tokenId",
              "type": "uint256"
            },
            {
              "internalType": "address payable",
              "name": "owner",
              "type": "address"
            },
            {
              "internalType": "address payable",
              "name": "seller",
              "type": "address"
            },
            {
              "internalType": "address",
              "name": "winner",
              "type": "address"
            },
            {
              "internalType": "uint256",
              "name": "price",
              "type": "uint256"
            },
            {
              "internalType": "bool",
              "name": "sold",
              "type": "bool"
            },
            {
              "internalType": "bool",
              "name": "live",
              "type": "bool"
            },
            {
              "internalType": "bool",
              "name": "biddable",
              "type": "bool"
            },
            {
              "internalType": "uint256",
              "name": "bids",
              "type": "uint256"
            },
            {
              "internalType": "uint256",
              "name": "duration",
              "type": "uint256"
            },
            {
              "internalType": "uint256",
              "name": "endTime",
              "type": "uint256"
            },
            {
              "internalType": "uint256",
              "name": "auctionId",
              "type": "uint256"
            }
          ],
          "internalType": "struct Auction.AuctionStruct[]",
          "name": "",
          "type": "tuple[]"
        }
      ],
      "stateMutability": "view",
      "type": "function",
      "constant": true
    },
    {
      "inputs": [
        {
          "internalType": "uint256",
          "name": "tokenId",
          "type": "uint256"
        }
      ],
      "name": "reclaimAuction",
      "outputs": [],
      "stateMutability": "nonpayable",
      "type": "function"
    }
  ],
  "bytecode": "0x60806040523480156200001157600080fd5b5060405162004f2438038062004f24833981810160405281019062000037919062000132565b600160008190555080600460006101000a81548173ffffffffffffffffffffffffffffffffffffffff021916908373ffffffffffffffffffffffffffffffffffffffff16021790555033600160006101000a81548173ffffffffffffffffffffffffffffffffffffffff021916908373ffffffffffffffffffffffffffffffffffffffff1602179055505062000164565b600080fd5b600073ffffffffffffffffffffffffffffffffffffffff82169050919050565b6000620000fa82620000cd565b9050919050565b6200010c81620000ed565b81146200011857600080fd5b50565b6000815190506200012c8162000101565b92915050565b6000602082840312156200014b576200014a620000c8565b5b60006200015b848285016200011b565b91505092915050565b614db080620001746000396000f3fe6080604052600436106100fe5760003560e01c8063cda4beef11610095578063d709815411610064578063d70981541461033a578063e154e0d014610363578063ea6bc91b146103a0578063f20e5e35146103e1578063f37971df1461041e576100fe565b8063cda4beef14610290578063cf44b5d5146102b9578063d36acc39146102e4578063d56d229d1461030f576100fe565b80638da5cb5b116100d15780638da5cb5b146101f35780639979ef451461021e578063b8997a971461023a578063cb7b43ef14610265576100fe565b806308c41169146101035780631c4b184f1461014b5780634fa7b507146101745780637765c52c146101b1575b600080fd5b34801561010f57600080fd5b5061012a60048036038101906101259190613475565b61045b565b6040516101429c9b9a9998979695949392919061352e565b60405180910390f35b34801561015757600080fd5b50610172600480360381019061016d9190613475565b610542565b005b34801561018057600080fd5b5061019b60048036038101906101969190613475565b610acd565b6040516101a8919061372c565b60405180910390f35b3480156101bd57600080fd5b506101d860048036038101906101d39190613475565b610c3f565b6040516101ea9695949392919061374e565b60405180910390f35b3480156101ff57600080fd5b50610208610d4c565b60405161021591906137af565b60405180910390f35b61023860048036038101906102339190613475565b610d72565b005b34801561024657600080fd5b5061024f61151e565b60405161025c91906137ca565b60405180910390f35b34801561027157600080fd5b5061027a611524565b604051610287919061399a565b60405180910390f35b34801561029c57600080fd5b506102b760048036038101906102b291906139bc565b6118b2565b005b3480156102c557600080fd5b506102ce611fe7565b6040516102db919061399a565b60405180910390f35b3480156102f057600080fd5b506102f9612375565b6040516103069190613a0f565b60405180910390f35b34801561031b57600080fd5b5061032461239b565b6040516103319190613a89565b60405180910390f35b34801561034657600080fd5b50610361600480360381019061035c9190613475565b6123c1565b005b34801561036f57600080fd5b5061038a60048036038101906103859190613475565b612f1d565b6040516103979190613aa4565b60405180910390f35b3480156103ac57600080fd5b506103c760048036038101906103c29190613abf565b612f3d565b6040516103d8959493929190613aff565b60405180910390f35b3480156103ed57600080fd5b5061040860048036038101906104039190613475565b612fca565b6040516104159190613c48565b60405180910390f35b34801561042a57600080fd5b5061044560048036038101906104409190613daa565b6131e7565b60405161045291906137ca565b60405180910390f35b60066020528060005260406000206000915090508060000154908060010160009054906101000a900473ffffffffffffffffffffffffffffffffffffffff16908060020160009054906101000a900473ffffffffffffffffffffffffffffffffffffffff16908060030160009054906101000a900473ffffffffffffffffffffffffffffffffffffffff16908060040154908060050160009054906101000a900460ff16908060050160019054906101000a900460ff16908060050160029054906101000a900460ff1690806006015490806007015490806008015490806009015490508c565b61054a613215565b6007600082815260200190815260200160002060009054906101000a900460ff166105aa576040517f08c379a00000000000000000000000000000000000000000000000000000000081526004016105a190613e50565b60405180910390fd5b6006600082815260200190815260200160002060050160019054906101000a900460ff1661060d576040517f08c379a000000000000000000000000000000000000000000000000000000000815260040161060490613ee2565b60405180910390fd5b600073ffffffffffffffffffffffffffffffffffffffff166006600083815260200190815260200160002060030160009054906101000a900473ffffffffffffffffffffffffffffffffffffffff1673ffffffffffffffffffffffffffffffffffffffff16146106b2576040517f08c379a00000000000000000000000000000000000000000000000000000000081526004016106a990613f74565b60405180910390fd5b60006006600083815260200190815260200160002060050160016101000a81548160ff02191690831515021790555060006006600083815260200190815260200160002060050160006101000a81548160ff02191690831515021790555060006006600083815260200190815260200160002060050160026101000a81548160ff02191690831515021790555061074881613264565b6000805b600b8054905081101561079a5782600b828154811061076e5761076d613f94565b5b906000526020600020015403610787576001915061079a565b808061079290613ff2565b91505061074c565b50806107ca57600b8290806001815401808255809150506001900390600052602060002001600090919091909150555b600460009054906101000a900473ffffffffffffffffffffffffffffffffffffffff1673ffffffffffffffffffffffffffffffffffffffff166323b872dd3033856040518463ffffffff1660e01b81526004016108299392919061403a565b600060405180830381600087803b15801561084357600080fd5b505af1925050508015610854575060015b6109a25760016006600084815260200190815260200160002060050160016101000a81548160ff02191690831515021790555060006006600084815260200190815260200160002060050160006101000a81548160ff02191690831515021790555060016006600084815260200190815260200160002060050160026101000a81548160ff0219169083151502179055506000805b600a805490508110156109375783600a828154811061090b5761090a613f94565b5b9060005260206000200154036109245760019150610937565b808061092f90613ff2565b9150506108e9565b508061096757600a8390806001815401808255809150506001900390600052602060002001600090919091909150555b6040517f08c379a0000000000000000000000000000000000000000000000000000000008152600401610999906140bd565b60405180910390fd5b600460009054906101000a900473ffffffffffffffffffffffffffffffffffffffff1673ffffffffffffffffffffffffffffffffffffffff16637192711f83336040518363ffffffff1660e01b81526004016109ff9291906140dd565b600060405180830381600087803b158015610a1957600080fd5b505af1158015610a2d573d6000803e3d6000fd5b50505050600460009054906101000a900473ffffffffffffffffffffffffffffffffffffffff1673ffffffffffffffffffffffffffffffffffffffff1663dc4dc5078360006040518363ffffffff1660e01b8152600401610a8f929190614106565b600060405180830381600087803b158015610aa957600080fd5b505af1158015610abd573d6000803e3d6000fd5b5050505050610aca61332f565b50565b60606007600083815260200190815260200160002060009054906101000a900460ff16610b2f576040517f08c379a0000000000000000000000000000000000000000000000000000000008152600401610b2690613e50565b60405180910390fd5b60096000838152602001908152602001600020805480602002602001604051908101604052809291908181526020016000905b82821015610c3457838290600052602060002090600402016040518060a00160405290816000820160009054906101000a900473ffffffffffffffffffffffffffffffffffffffff1673ffffffffffffffffffffffffffffffffffffffff1673ffffffffffffffffffffffffffffffffffffffff16815260200160018201548152602001600282015481526020016003820160009054906101000a900460ff161515151581526020016003820160019054906101000a900460ff16151515158152505081526020019060010190610b62565b505050509050919050565b6000806000806000806007600088815260200190815260200160002060009054906101000a900460ff16610ca8576040517f08c379a0000000000000000000000000000000000000000000000000000000008152600401610c9f90613e50565b60405180910390fd5b60006006600089815260200190815260200160002090508060050160019054906101000a900460ff1696508060050160009054906101000a900460ff169550806004015494508060030160009054906101000a900473ffffffffffffffffffffffffffffffffffffffff1693508060080154421015610d3657428160080154610d31919061412f565b610d39565b60005b9250806006015491505091939550919395565b600160009054906101000a900473ffffffffffffffffffffffffffffffffffffffff1681565b610d7a613215565b6007600082815260200190815260200160002060009054906101000a900460ff16610dda576040517f08c379a0000000000000000000000000000000000000000000000000000000008152600401610dd190613e50565b60405180910390fd5b6006600082815260200190815260200160002060050160019054906101000a900460ff16610e3d576040517f08c379a0000000000000000000000000000000000000000000000000000000008152600401610e34906141af565b60405180910390fd5b6006600082815260200190815260200160002060050160029054906101000a900460ff16610ea0576040517f08c379a0000000000000000000000000000000000000000000000000000000008152600401610e9790614241565b60405180910390fd5b60066000828152602001908152602001600020600801544210610ef8576040517f08c379a0000000000000000000000000000000000000000000000000000000008152600401610eef906142ad565b60405180910390fd5b6006600082815260200190815260200160002060020160009054906101000a900473ffffffffffffffffffffffffffffffffffffffff1673ffffffffffffffffffffffffffffffffffffffff163373ffffffffffffffffffffffffffffffffffffffff1603610f9c576040517f08c379a0000000000000000000000000000000000000000000000000000000008152600401610f939061433f565b60405180910390fd5b60066000828152602001908152602001600020600401543411610ff4576040517f08c379a0000000000000000000000000000000000000000000000000000000008152600401610feb906143d1565b60405180910390fd5b60006006600083815260200190815260200160002060030160009054906101000a900473ffffffffffffffffffffffffffffffffffffffff169050600060066000848152602001908152602001600020600401549050611052613339565b33816000019073ffffffffffffffffffffffffffffffffffffffff16908173ffffffffffffffffffffffffffffffffffffffff16815250503481602001818152505042816040018181525050600081606001901515908115158152505060008160800190151590811515815250506009600085815260200190815260200160002081908060018154018082558091505060019003906000526020600020906004020160009091909190915060008201518160000160006101000a81548173ffffffffffffffffffffffffffffffffffffffff021916908373ffffffffffffffffffffffffffffffffffffffff160217905550602082015181600101556040820151816002015560608201518160030160006101000a81548160ff02191690831515021790555060808201518160030160016101000a81548160ff021916908315150217905550505060016006600086815260200190815260200160002060060160008282546111c191906143f1565b92505081905550346006600086815260200190815260200160002060040181905550336006600086815260200190815260200160002060030160006101000a81548173ffffffffffffffffffffffffffffffffffffffff021916908373ffffffffffffffffffffffffffffffffffffffff160217905550600073ffffffffffffffffffffffffffffffffffffffff168373ffffffffffffffffffffffffffffffffffffffff16141580156112755750600082115b156114d55760005b600160096000878152602001908152602001600020805490506112a0919061412f565b811015611426578373ffffffffffffffffffffffffffffffffffffffff166009600087815260200190815260200160002082815481106112e3576112e2613f94565b5b906000526020600020906004020160000160009054906101000a900473ffffffffffffffffffffffffffffffffffffffff1673ffffffffffffffffffffffffffffffffffffffff1614801561136d57508260096000878152602001908152602001600020828154811061135957611358613f94565b5b906000526020600020906004020160010154145b80156113ba575060096000868152602001908152602001600020818154811061139957611398613f94565b5b906000526020600020906004020160030160009054906101000a900460ff16155b156114135760016009600087815260200190815260200160002082815481106113e6576113e5613f94565b5b906000526020600020906004020160030160006101000a81548160ff021916908315150217905550611426565b808061141e90613ff2565b91505061127d565b5060008373ffffffffffffffffffffffffffffffffffffffff168360405161144d90614456565b60006040518083038185875af1925050503d806000811461148a576040519150601f19603f3d011682016040523d82523d6000602084013e61148f565b606091505b50509050806114d3576040517f08c379a00000000000000000000000000000000000000000000000000000000081526004016114ca906144b7565b60405180910390fd5b505b7f558a0d5d5468d74b0db24c74eb348b42271c2ebb4c9e953ced38aaed95fa4361843334604051611508939291906144d7565b60405180910390a150505061151b61332f565b50565b60035481565b60606000805b600b805490508110156115cf576000600b828154811061154d5761154c613f94565b5b906000526020600020015490506007600082815260200190815260200160002060009054906101000a900460ff1680156115a757506006600082815260200190815260200160002060050160009054906101000a900460ff165b156115bb5782806115b790613ff2565b9350505b5080806115c790613ff2565b91505061152a565b5060008167ffffffffffffffff8111156115ec576115eb613c7f565b5b60405190808252806020026020018201604052801561162557816020015b611612613382565b81526020019060019003908161160a5790505b5090506000805b600b805490508110801561163f57508382105b156118a8576000600b828154811061165a57611659613f94565b5b906000526020600020015490506007600082815260200190815260200160002060009054906101000a900460ff1680156116b457506006600082815260200190815260200160002060050160009054906101000a900460ff165b15611894576006600082815260200190815260200160002060405180610180016040529081600082015481526020016001820160009054906101000a900473ffffffffffffffffffffffffffffffffffffffff1673ffffffffffffffffffffffffffffffffffffffff1673ffffffffffffffffffffffffffffffffffffffff1681526020016002820160009054906101000a900473ffffffffffffffffffffffffffffffffffffffff1673ffffffffffffffffffffffffffffffffffffffff1673ffffffffffffffffffffffffffffffffffffffff1681526020016003820160009054906101000a900473ffffffffffffffffffffffffffffffffffffffff1673ffffffffffffffffffffffffffffffffffffffff1673ffffffffffffffffffffffffffffffffffffffff168152602001600482015481526020016005820160009054906101000a900460ff161515151581526020016005820160019054906101000a900460ff161515151581526020016005820160029054906101000a900460ff1615151515815260200160068201548152602001600782015481526020016008820154815260200160098201548152505084848151811061187a57611879613f94565b5b6020026020010181905250828061189090613ff2565b9350505b5080806118a090613ff2565b91505061162c565b5081935050505090565b6118ba613215565b6000600460009054906101000a900473ffffffffffffffffffffffffffffffffffffffff1673ffffffffffffffffffffffffffffffffffffffff16638e264590856040518263ffffffff1660e01b815260040161191791906137ca565b60a060405180830381865afa158015611934573d6000803e3d6000fd5b505050506040513d601f19601f82011682018060405250810190611958919061460c565b90503373ffffffffffffffffffffffffffffffffffffffff16816040015173ffffffffffffffffffffffffffffffffffffffff16146119cc576040517f08c379a00000000000000000000000000000000000000000000000000000000081526004016119c3906146ab565b60405180910390fd5b60008311611a0f576040517f08c379a0000000000000000000000000000000000000000000000000000000008152600401611a0690614717565b60405180910390fd5b60008211611a52576040517f08c379a0000000000000000000000000000000000000000000000000000000008152600401611a49906147a9565b60405180910390fd5b6007600085815260200190815260200160002060009054906101000a900460ff161580611aa057506006600085815260200190815260200160002060050160019054906101000a900460ff16155b611adf576040517f08c379a0000000000000000000000000000000000000000000000000000000008152600401611ad69061483b565b60405180910390fd5b611ae7613382565b848160000181815250508160400151816040019073ffffffffffffffffffffffffffffffffffffffff16908173ffffffffffffffffffffffffffffffffffffffff1681525050600460009054906101000a900473ffffffffffffffffffffffffffffffffffffffff16816020019073ffffffffffffffffffffffffffffffffffffffff16908173ffffffffffffffffffffffffffffffffffffffff16815250508381608001818152505082816101200181815250508242611ba891906143f1565b81610140018181525050848161016001818152505080600660008781526020019081526020016000206000820151816000015560208201518160010160006101000a81548173ffffffffffffffffffffffffffffffffffffffff021916908373ffffffffffffffffffffffffffffffffffffffff16021790555060408201518160020160006101000a81548173ffffffffffffffffffffffffffffffffffffffff021916908373ffffffffffffffffffffffffffffffffffffffff16021790555060608201518160030160006101000a81548173ffffffffffffffffffffffffffffffffffffffff021916908373ffffffffffffffffffffffffffffffffffffffff1602179055506080820151816004015560a08201518160050160006101000a81548160ff02191690831515021790555060c08201518160050160016101000a81548160ff02191690831515021790555060e08201518160050160026101000a81548160ff021916908315150217905550610100820151816006015561012082015181600701556101408201518160080155610160820151816009015590505060016007600087815260200190815260200160002060006101000a81548160ff0219169083151502179055506006600086815260200190815260200160002060050160019054906101000a900460ff16611f73576000600460009054906101000a900473ffffffffffffffffffffffffffffffffffffffff1673ffffffffffffffffffffffffffffffffffffffff16636352211e876040518263ffffffff1660e01b8152600401611dfa91906137ca565b602060405180830381865afa158015611e17573d6000803e3d6000fd5b505050506040513d601f19601f82011682018060405250810190611e3b9190614887565b9050600460009054906101000a900473ffffffffffffffffffffffffffffffffffffffff1673ffffffffffffffffffffffffffffffffffffffff166323b872dd8230896040518463ffffffff1660e01b8152600401611e9c9392919061403a565b600060405180830381600087803b158015611eb657600080fd5b505af1158015611eca573d6000803e3d6000fd5b505050506000600660008881526020019081526020016000206006018190555060016006600088815260200190815260200160002060050160016101000a81548160ff02191690831515021790555060016006600088815260200190815260200160002060050160026101000a81548160ff021916908315150217905550600a869080600181540180825580915050600190039060005260206000200160009091909190915055505b847fa693a8f68fe4df789541ddd1b84d32ccaea90adddcc88406b4bbbf6466328d3c8360400151600460009054906101000a900473ffffffffffffffffffffffffffffffffffffffff16876000604051611fd094939291906148d5565b60405180910390a25050611fe261332f565b505050565b60606000805b600a80549050811015612092576000600a82815481106120105761200f613f94565b5b906000526020600020015490506007600082815260200190815260200160002060009054906101000a900460ff16801561206a57506006600082815260200190815260200160002060050160019054906101000a900460ff165b1561207e57828061207a90613ff2565b9350505b50808061208a90613ff2565b915050611fed565b5060008167ffffffffffffffff8111156120af576120ae613c7f565b5b6040519080825280602002602001820160405280156120e857816020015b6120d5613382565b8152602001906001900390816120cd5790505b5090506000805b600a805490508110801561210257508382105b1561236b576000600a828154811061211d5761211c613f94565b5b906000526020600020015490506007600082815260200190815260200160002060009054906101000a900460ff16801561217757506006600082815260200190815260200160002060050160019054906101000a900460ff165b15612357576006600082815260200190815260200160002060405180610180016040529081600082015481526020016001820160009054906101000a900473ffffffffffffffffffffffffffffffffffffffff1673ffffffffffffffffffffffffffffffffffffffff1673ffffffffffffffffffffffffffffffffffffffff1681526020016002820160009054906101000a900473ffffffffffffffffffffffffffffffffffffffff1673ffffffffffffffffffffffffffffffffffffffff1673ffffffffffffffffffffffffffffffffffffffff1681526020016003820160009054906101000a900473ffffffffffffffffffffffffffffffffffffffff1673ffffffffffffffffffffffffffffffffffffffff1673ffffffffffffffffffffffffffffffffffffffff168152602001600482015481526020016005820160009054906101000a900460ff161515151581526020016005820160019054906101000a900460ff161515151581526020016005820160029054906101000a900460ff1615151515815260200160068201548152602001600782015481526020016008820154815260200160098201548152505084848151811061233d5761233c613f94565b5b6020026020010181905250828061235390613ff2565b9350505b50808061236390613ff2565b9150506120ef565b5081935050505090565b600260009054906101000a900473ffffffffffffffffffffffffffffffffffffffff1681565b600460009054906101000a900473ffffffffffffffffffffffffffffffffffffffff1681565b6123c9613215565b6007600082815260200190815260200160002060009054906101000a900460ff16612429576040517f08c379a000000000000000000000000000000000000000000000000000000000815260040161242090613e50565b60405180910390fd5b6006600082815260200190815260200160002060050160019054906101000a900460ff1661248c576040517f08c379a000000000000000000000000000000000000000000000000000000000815260040161248390613ee2565b60405180910390fd5b3373ffffffffffffffffffffffffffffffffffffffff166006600083815260200190815260200160002060030160009054906101000a900473ffffffffffffffffffffffffffffffffffffffff1673ffffffffffffffffffffffffffffffffffffffff1614612530576040517f08c379a00000000000000000000000000000000000000000000000000000000081526004016125279061498c565b60405180910390fd5b600073ffffffffffffffffffffffffffffffffffffffff166006600083815260200190815260200160002060030160009054906101000a900473ffffffffffffffffffffffffffffffffffffffff1673ffffffffffffffffffffffffffffffffffffffff16036125d5576040517f08c379a00000000000000000000000000000000000000000000000000000000081526004016125cc906149f8565b60405180910390fd5b60006006600083815260200190815260200160002060040154905060006006600084815260200190815260200160002060020160009054906101000a900473ffffffffffffffffffffffffffffffffffffffff16905060006006600085815260200190815260200160002060010160009054906101000a900473ffffffffffffffffffffffffffffffffffffffff16905060006006600086815260200190815260200160002060050160016101000a81548160ff02191690831515021790555060016006600086815260200190815260200160002060050160006101000a81548160ff02191690831515021790555060006006600086815260200190815260200160002060050160026101000a81548160ff0219169083151502179055506126fc84613264565b600b84908060018154018082558091505060019003906000526020600020016000909190919091505560005b6009600086815260200190815260200160002080549050811015612878573373ffffffffffffffffffffffffffffffffffffffff1660096000878152602001908152602001600020828154811061278257612781613f94565b5b906000526020600020906004020160000160009054906101000a900473ffffffffffffffffffffffffffffffffffffffff1673ffffffffffffffffffffffffffffffffffffffff1614801561280c5750836009600087815260200190815260200160002082815481106127f8576127f7613f94565b5b906000526020600020906004020160010154145b1561286557600160096000878152602001908152602001600020828154811061283857612837613f94565b5b906000526020600020906004020160030160016101000a81548160ff021916908315150217905550612878565b808061287090613ff2565b915050612728565b50600060646003548561288b9190614a18565b6128959190614a89565b9050600081856128a5919061412f565b9050600460009054906101000a900473ffffffffffffffffffffffffffffffffffffffff1673ffffffffffffffffffffffffffffffffffffffff16636352211e876040518263ffffffff1660e01b815260040161290291906137ca565b602060405180830381865afa92505050801561293c57506040513d601f19601f820116820180604052508101906129399190614887565b60015b61297b576040517f08c379a000000000000000000000000000000000000000000000000000000000815260040161297290614b2c565b60405180910390fd5b3073ffffffffffffffffffffffffffffffffffffffff168173ffffffffffffffffffffffffffffffffffffffff16146129e9576040517f08c379a00000000000000000000000000000000000000000000000000000000081526004016129e090614bbe565b60405180910390fd5b50600460009054906101000a900473ffffffffffffffffffffffffffffffffffffffff1673ffffffffffffffffffffffffffffffffffffffff166323b872dd3033896040518463ffffffff1660e01b8152600401612a499392919061403a565b600060405180830381600087803b158015612a6357600080fd5b505af1925050508015612a74575060015b612bc25760016006600088815260200190815260200160002060050160016101000a81548160ff02191690831515021790555060006006600088815260200190815260200160002060050160006101000a81548160ff02191690831515021790555060016006600088815260200190815260200160002060050160026101000a81548160ff0219169083151502179055506000805b600a80549050811015612b575787600a8281548110612b2b57612b2a613f94565b5b906000526020600020015403612b445760019150612b57565b8080612b4f90613ff2565b915050612b09565b5080612b8757600a8790806001815401808255809150506001900390600052602060002001600090919091909150555b6040517f08c379a0000000000000000000000000000000000000000000000000000000008152600401612bb9906140bd565b60405180910390fd5b336006600088815260200190815260200160002060010160006101000a81548173ffffffffffffffffffffffffffffffffffffffff021916908373ffffffffffffffffffffffffffffffffffffffff160217905550600460009054906101000a900473ffffffffffffffffffffffffffffffffffffffff1673ffffffffffffffffffffffffffffffffffffffff16637192711f87336040518363ffffffff1660e01b8152600401612c749291906140dd565b600060405180830381600087803b158015612c8e57600080fd5b505af1158015612ca2573d6000803e3d6000fd5b50505050600460009054906101000a900473ffffffffffffffffffffffffffffffffffffffff1673ffffffffffffffffffffffffffffffffffffffff166382367b2d87876040518363ffffffff1660e01b8152600401612d03929190614bde565b600060405180830381600087803b158015612d1d57600080fd5b505af1158015612d31573d6000803e3d6000fd5b5050505060008473ffffffffffffffffffffffffffffffffffffffff1682604051612d5b90614456565b60006040518083038185875af1925050503d8060008114612d98576040519150601f19603f3d011682016040523d82523d6000602084013e612d9d565b606091505b5050905080612de1576040517f08c379a0000000000000000000000000000000000000000000000000000000008152600401612dd890614c53565b60405180910390fd5b600083118015612e1e5750600073ffffffffffffffffffffffffffffffffffffffff168473ffffffffffffffffffffffffffffffffffffffff1614155b15612ed15760008473ffffffffffffffffffffffffffffffffffffffff1684604051612e4990614456565b60006040518083038185875af1925050503d8060008114612e86576040519150601f19603f3d011682016040523d82523d6000602084013e612e8b565b606091505b5050905080612ecf576040517f08c379a0000000000000000000000000000000000000000000000000000000008152600401612ec690614cbf565b60405180910390fd5b505b7fd2aa34a4fdbbc6dff6a3e56f46e0f3ae2a31d7785ff3487aa5c95c642acea501873388604051612f04939291906144d7565b60405180910390a1505050505050612f1a61332f565b50565b60076020528060005260406000206000915054906101000a900460ff1681565b60096020528160005260406000208181548110612f5957600080fd5b9060005260206000209060040201600091509150508060000160009054906101000a900473ffffffffffffffffffffffffffffffffffffffff16908060010154908060020154908060030160009054906101000a900460ff16908060030160019054906101000a900460ff16905085565b612fd2613382565b6007600083815260200190815260200160002060009054906101000a900460ff16613032576040517f08c379a000000000000000000000000000000000000000000000000000000000815260040161302990613e50565b60405180910390fd5b6006600083815260200190815260200160002060405180610180016040529081600082015481526020016001820160009054906101000a900473ffffffffffffffffffffffffffffffffffffffff1673ffffffffffffffffffffffffffffffffffffffff1673ffffffffffffffffffffffffffffffffffffffff1681526020016002820160009054906101000a900473ffffffffffffffffffffffffffffffffffffffff1673ffffffffffffffffffffffffffffffffffffffff1673ffffffffffffffffffffffffffffffffffffffff1681526020016003820160009054906101000a900473ffffffffffffffffffffffffffffffffffffffff1673ffffffffffffffffffffffffffffffffffffffff1673ffffffffffffffffffffffffffffffffffffffff168152602001600482015481526020016005820160009054906101000a900460ff161515151581526020016005820160019054906101000a900460ff161515151581526020016005820160029054906101000a900460ff161515151581526020016006820154815260200160078201548152602001600882015481526020016009820154815250509050919050565b6008818051602081018201805184825260208301602085012081835280955050505050506000915090505481565b60026000540361325a576040517f08c379a000000000000000000000000000000000000000000000000000000000815260040161325190614d2b565b60405180910390fd5b6002600081905550565b60005b600a8054905081101561332b5781600a828154811061328957613288613f94565b5b90600052602060002001540361331857600a6001600a805490506132ad919061412f565b815481106132be576132bd613f94565b5b9060005260206000200154600a82815481106132dd576132dc613f94565b5b9060005260206000200181905550600a8054806132fd576132fc614d4b565b5b6001900381819060005260206000200160009055905561332b565b808061332390613ff2565b915050613267565b5050565b6001600081905550565b6040518060a00160405280600073ffffffffffffffffffffffffffffffffffffffff16815260200160008152602001600081526020016000151581526020016000151581525090565b60405180610180016040528060008152602001600073ffffffffffffffffffffffffffffffffffffffff168152602001600073ffffffffffffffffffffffffffffffffffffffff168152602001600073ffffffffffffffffffffffffffffffffffffffff16815260200160008152602001600015158152602001600015158152602001600015158152602001600081526020016000815260200160008152602001600081525090565b6000604051905090565b600080fd5b600080fd5b6000819050919050565b6134528161343f565b811461345d57600080fd5b50565b60008135905061346f81613449565b92915050565b60006020828403121561348b5761348a613435565b5b600061349984828501613460565b91505092915050565b6134ab8161343f565b82525050565b600073ffffffffffffffffffffffffffffffffffffffff82169050919050565b60006134dc826134b1565b9050919050565b6134ec816134d1565b82525050565b60006134fd826134b1565b9050919050565b61350d816134f2565b82525050565b60008115159050919050565b61352881613513565b82525050565b600061018082019050613544600083018f6134a2565b613551602083018e6134e3565b61355e604083018d6134e3565b61356b606083018c613504565b613578608083018b6134a2565b61358560a083018a61351f565b61359260c083018961351f565b61359f60e083018861351f565b6135ad6101008301876134a2565b6135bb6101208301866134a2565b6135c96101408301856134a2565b6135d76101608301846134a2565b9d9c50505050505050505050505050565b600081519050919050565b600082825260208201905092915050565b6000819050602082019050919050565b61361d816134f2565b82525050565b61362c8161343f565b82525050565b61363b81613513565b82525050565b60a0820160008201516136576000850182613614565b50602082015161366a6020850182613623565b50604082015161367d6040850182613623565b5060608201516136906060850182613632565b5060808201516136a36080850182613632565b50505050565b60006136b58383613641565b60a08301905092915050565b6000602082019050919050565b60006136d9826135e8565b6136e381856135f3565b93506136ee83613604565b8060005b8381101561371f57815161370688826136a9565b9750613711836136c1565b9250506001810190506136f2565b5085935050505092915050565b6000602082019050818103600083015261374681846136ce565b905092915050565b600060c082019050613763600083018961351f565b613770602083018861351f565b61377d60408301876134a2565b61378a6060830186613504565b61379760808301856134a2565b6137a460a08301846134a2565b979650505050505050565b60006020820190506137c460008301846134e3565b92915050565b60006020820190506137df60008301846134a2565b92915050565b600081519050919050565b600082825260208201905092915050565b6000819050602082019050919050565b61381a816134d1565b82525050565b610180820160008201516138376000850182613623565b50602082015161384a6020850182613811565b50604082015161385d6040850182613811565b5060608201516138706060850182613614565b5060808201516138836080850182613623565b5060a082015161389660a0850182613632565b5060c08201516138a960c0850182613632565b5060e08201516138bc60e0850182613632565b506101008201516138d1610100850182613623565b506101208201516138e6610120850182613623565b506101408201516138fb610140850182613623565b50610160820151613910610160850182613623565b50505050565b60006139228383613820565b6101808301905092915050565b6000602082019050919050565b6000613947826137e5565b61395181856137f0565b935061395c83613801565b8060005b8381101561398d5781516139748882613916565b975061397f8361392f565b925050600181019050613960565b5085935050505092915050565b600060208201905081810360008301526139b4818461393c565b905092915050565b6000806000606084860312156139d5576139d4613435565b5b60006139e386828701613460565b93505060206139f486828701613460565b9250506040613a0586828701613460565b9150509250925092565b6000602082019050613a246000830184613504565b92915050565b6000819050919050565b6000613a4f613a4a613a45846134b1565b613a2a565b6134b1565b9050919050565b6000613a6182613a34565b9050919050565b6000613a7382613a56565b9050919050565b613a8381613a68565b82525050565b6000602082019050613a9e6000830184613a7a565b92915050565b6000602082019050613ab9600083018461351f565b92915050565b60008060408385031215613ad657613ad5613435565b5b6000613ae485828601613460565b9250506020613af585828601613460565b9150509250929050565b600060a082019050613b146000830188613504565b613b2160208301876134a2565b613b2e60408301866134a2565b613b3b606083018561351f565b613b48608083018461351f565b9695505050505050565b61018082016000820151613b696000850182613623565b506020820151613b7c6020850182613811565b506040820151613b8f6040850182613811565b506060820151613ba26060850182613614565b506080820151613bb56080850182613623565b5060a0820151613bc860a0850182613632565b5060c0820151613bdb60c0850182613632565b5060e0820151613bee60e0850182613632565b50610100820151613c03610100850182613623565b50610120820151613c18610120850182613623565b50610140820151613c2d610140850182613623565b50610160820151613c42610160850182613623565b50505050565b600061018082019050613c5e6000830184613b52565b92915050565b600080fd5b600080fd5b6000601f19601f8301169050919050565b7f4e487b7100000000000000000000000000000000000000000000000000000000600052604160045260246000fd5b613cb782613c6e565b810181811067ffffffffffffffff82111715613cd657613cd5613c7f565b5b80604052505050565b6000613ce961342b565b9050613cf58282613cae565b919050565b600067ffffffffffffffff821115613d1557613d14613c7f565b5b613d1e82613c6e565b9050602081019050919050565b82818337600083830152505050565b6000613d4d613d4884613cfa565b613cdf565b905082815260208101848484011115613d6957613d68613c69565b5b613d74848285613d2b565b509392505050565b600082601f830112613d9157613d90613c64565b5b8135613da1848260208601613d3a565b91505092915050565b600060208284031215613dc057613dbf613435565b5b600082013567ffffffffffffffff811115613dde57613ddd61343a565b5b613dea84828501613d7c565b91505092915050565b600082825260208201905092915050565b7f41756374696f6e20646f6573206e6f7420657869737400000000000000000000600082015250565b6000613e3a601683613df3565b9150613e4582613e04565b602082019050919050565b60006020820190508181036000830152613e6981613e2d565b9050919050565b7f41756374696f6e206973206e6f7420616374697665206f7220616c726561647960008201527f20636c61696d6564000000000000000000000000000000000000000000000000602082015250565b6000613ecc602883613df3565b9150613ed782613e70565b604082019050919050565b60006020820190508181036000830152613efb81613ebf565b9050919050565b7f41756374696f6e20686173206269647320616e642063616e6e6f74206265207260008201527f65636c61696d6564000000000000000000000000000000000000000000000000602082015250565b6000613f5e602883613df3565b9150613f6982613f02565b604082019050919050565b60006020820190508181036000830152613f8d81613f51565b9050919050565b7f4e487b7100000000000000000000000000000000000000000000000000000000600052603260045260246000fd5b7f4e487b7100000000000000000000000000000000000000000000000000000000600052601160045260246000fd5b6000613ffd8261343f565b91507fffffffffffffffffffffffffffffffffffffffffffffffffffffffffffffffff820361402f5761402e613fc3565b5b600182019050919050565b600060608201905061404f6000830186613504565b61405c6020830185613504565b61406960408301846134a2565b949350505050565b7f4e4654207472616e73666572206661696c656400000000000000000000000000600082015250565b60006140a7601383613df3565b91506140b282614071565b602082019050919050565b600060208201905081810360008301526140d68161409a565b9050919050565b60006040820190506140f260008301856134a2565b6140ff6020830184613504565b9392505050565b600060408201905061411b60008301856134a2565b614128602083018461351f565b9392505050565b600061413a8261343f565b91506141458361343f565b925082820390508181111561415d5761415c613fc3565b5b92915050565b7f41756374696f6e206973206e6f74206c69766500000000000000000000000000600082015250565b6000614199601383613df3565b91506141a482614163565b602082019050919050565b600060208201905081810360008301526141c88161418c565b9050919050565b7f42696464696e67206973206e6f7420616c6c6f77656420666f7220746869732060008201527f61756374696f6e00000000000000000000000000000000000000000000000000602082015250565b600061422b602783613df3565b9150614236826141cf565b604082019050919050565b6000602082019050818103600083015261425a8161421e565b9050919050565b7f41756374696f6e2068617320656e646564000000000000000000000000000000600082015250565b6000614297601183613df3565b91506142a282614261565b602082019050919050565b600060208201905081810360008301526142c68161428a565b9050919050565b7f53656c6c65722063616e6e6f7420626964206f6e207468656972206f776e206160008201527f756374696f6e0000000000000000000000000000000000000000000000000000602082015250565b6000614329602683613df3565b9150614334826142cd565b604082019050919050565b600060208201905081810360008301526143588161431c565b9050919050565b7f426964206d75737420626520686967686572207468616e2063757272656e742060008201527f7072696365000000000000000000000000000000000000000000000000000000602082015250565b60006143bb602583613df3565b91506143c68261435f565b604082019050919050565b600060208201905081810360008301526143ea816143ae565b9050919050565b60006143fc8261343f565b91506144078361343f565b925082820190508082111561441f5761441e613fc3565b5b92915050565b600081905092915050565b50565b6000614440600083614425565b915061444b82614430565b600082019050919050565b600061446182614433565b9150819050919050565b7f4661696c656420746f20726566756e642070726576696f757320626964646572600082015250565b60006144a1602083613df3565b91506144ac8261446b565b602082019050919050565b600060208201905081810360008301526144d081614494565b9050919050565b60006060820190506144ec60008301866134a2565b6144f96020830185613504565b61450660408301846134a2565b949350505050565b600080fd5b60008151905061452281613449565b92915050565b614531816134d1565b811461453c57600080fd5b50565b60008151905061454e81614528565b92915050565b61455d81613513565b811461456857600080fd5b50565b60008151905061457a81614554565b92915050565b600060a082840312156145965761459561450e565b5b6145a060a0613cdf565b905060006145b084828501614513565b60008301525060206145c48482850161453f565b60208301525060406145d88482850161453f565b60408301525060606145ec84828501614513565b60608301525060806146008482850161456b565b60808301525092915050565b600060a0828403121561462257614621613435565b5b600061463084828501614580565b91505092915050565b7f4e6f7420617574686f72697a656420746f2061756374696f6e2074686973207460008201527f6f6b656e00000000000000000000000000000000000000000000000000000000602082015250565b6000614695602483613df3565b91506146a082614639565b604082019050919050565b600060208201905081810360008301526146c481614688565b9050919050565b7f5072696365206d757374206e6f74206265206e65676174697665000000000000600082015250565b6000614701601a83613df3565b915061470c826146cb565b602082019050919050565b60006020820190508181036000830152614730816146f4565b9050919050565b7f41756374696f6e206475726174696f6e206d757374206265206772656174657260008201527f207468616e203000000000000000000000000000000000000000000000000000602082015250565b6000614793602783613df3565b915061479e82614737565b604082019050919050565b600060208201905081810360008301526147c281614786565b9050919050565b7f546f6b656e20616c72656164792068617320616e20616374697665206175637460008201527f696f6e0000000000000000000000000000000000000000000000000000000000602082015250565b6000614825602383613df3565b9150614830826147c9565b604082019050919050565b6000602082019050818103600083015261485481614818565b9050919050565b614864816134f2565b811461486f57600080fd5b50565b6000815190506148818161485b565b92915050565b60006020828403121561489d5761489c613435565b5b60006148ab84828501614872565b91505092915050565b60006148bf82613a56565b9050919050565b6148cf816148b4565b82525050565b60006080820190506148ea60008301876148c6565b6148f76020830186613504565b61490460408301856134a2565b614911606083018461351f565b95945050505050565b7f596f7520617265206e6f74207468652077696e6e6572206f662074686973206160008201527f756374696f6e0000000000000000000000000000000000000000000000000000602082015250565b6000614976602683613df3565b91506149818261491a565b604082019050919050565b600060208201905081810360008301526149a581614969565b9050919050565b7f4e6f2077696e6e657220666f7220746869732061756374696f6e000000000000600082015250565b60006149e2601a83613df3565b91506149ed826149ac565b602082019050919050565b60006020820190508181036000830152614a11816149d5565b9050919050565b6000614a238261343f565b9150614a2e8361343f565b9250828202614a3c8161343f565b91508282048414831517614a5357614a52613fc3565b5b5092915050565b7f4e487b7100000000000000000000000000000000000000000000000000000000600052601260045260246000fd5b6000614a948261343f565b9150614a9f8361343f565b925082614aaf57614aae614a5a565b5b828204905092915050565b7f4e4654206f776e65727368697020766572696669636174696f6e206661696c6560008201527f6400000000000000000000000000000000000000000000000000000000000000602082015250565b6000614b16602183613df3565b9150614b2182614aba565b604082019050919050565b60006020820190508181036000830152614b4581614b09565b9050919050565b7f41756374696f6e20636f6e747261637420646f65736e2774206f776e2074686560008201527f204e465400000000000000000000000000000000000000000000000000000000602082015250565b6000614ba8602483613df3565b9150614bb382614b4c565b604082019050919050565b60006020820190508181036000830152614bd781614b9b565b9050919050565b6000604082019050614bf360008301856134a2565b614c0060208301846134a2565b9392505050565b7f4661696c656420746f207061792073656c6c6572000000000000000000000000600082015250565b6000614c3d601483613df3565b9150614c4882614c07565b602082019050919050565b60006020820190508181036000830152614c6c81614c30565b9050919050565b7f4661696c656420746f2070617920726f79616c74696573000000000000000000600082015250565b6000614ca9601783613df3565b9150614cb482614c73565b602082019050919050565b60006020820190508181036000830152614cd881614c9c565b9050919050565b7f5265656e7472616e637947756172643a207265656e7472616e742063616c6c00600082015250565b6000614d15601f83613df3565b9150614d2082614cdf565b602082019050919050565b60006020820190508181036000830152614d4481614d08565b9050919050565b7f4e487b7100000000000000000000000000000000000000000000000000000000600052603160045260246000fdfea264697066735822122073172c4feb08dcba0b6318135bb1c428c2b15f9fbc977180a4be224a26f171c864736f6c63430008130033",
  "immutableReferences": {},
  "source": "// SPDX-License-Identifier: MIT\npragma solidity 0.8.19;\n\nimport \"@openzeppelin/contracts/token/ERC721/IERC721.sol\";\nimport \"@openzeppelin/contracts/security/ReentrancyGuard.sol\";\nimport \"./NFTAuction.sol\";\n\ncontract Auction is ReentrancyGuard {\n    address payable public owner;\n    address public companyAcc;\n    uint public royaltyFee;\n\n    NFTAuction public nftContract;\n\n    uint private ids;\n\n    mapping(uint => AuctionStruct) public auctionedItem;\n    mapping(uint => bool) public auctionedItemExists;\n    mapping(string => uint) public existingURIs;\n    mapping(uint => BidderStruct[]) public biddersOf;\n    \n    // Track all tokens that have active auctions\n    uint[] private activeAuctionIds;\n    // Track all tokens that have been auctioned\n    uint[] private auctionedTokenIds;\n\n    constructor(address _nftContract) {\n        nftContract = NFTAuction(_nftContract);\n        owner = payable(msg.sender);\n        // We will dynamically track auctions instead of relying on ids variable\n    }\n\n    struct BidderStruct {\n        address bidder;\n        uint bidAmount;\n        uint timestamp;\n        bool refunded;\n        bool won;\n    }\n\n    struct AuctionStruct {\n        uint tokenId;\n        address payable owner;\n        address payable seller;\n        address winner;\n        uint price;\n        bool sold;\n        bool live;\n        bool biddable;\n        uint bids;\n        uint duration;\n        uint endTime;  // Added endTime field to track when the auction ends\n        uint auctionId; // Unique identifier for the auction\n    }\n\n    event AuctionItemCreated(\n        uint indexed tokenId,\n        address seller,\n        address owner,\n        uint price,\n        bool sold\n    );\n\n    function createAuction(\n        uint tokenId,\n        uint price,\n        uint duration\n    ) public nonReentrant {\n        // get token info from NFTAuction contract\n        NFTAuction.ListedToken memory tokenInfo = nftContract.getListedTokenForId(tokenId);\n\n        // Check if caller is the seller\n        require(\n            tokenInfo.seller == msg.sender,\n            \"Not authorized to auction this token\"\n        );\n        \n        require(price > 0 ether, \"Price must not be negative\");\n        require(duration > 0, \"Auction duration must be greater than 0\");\n        \n        // Check if this token already has an active auction\n        require(!auctionedItemExists[tokenId] || !auctionedItem[tokenId].live, \n                \"Token already has an active auction\");\n\n        AuctionStruct memory item;\n        item.tokenId = tokenId;\n        item.seller = payable(tokenInfo.seller);\n        item.owner = payable(address(nftContract));\n        item.price = price;\n        item.duration = duration;\n        item.endTime = block.timestamp + duration;\n        item.auctionId = tokenId;  // Using tokenId as the auctionId for simplicity\n\n        auctionedItem[tokenId] = item;\n        auctionedItemExists[tokenId] = true;\n\n        // Check if the auction is not already live\n        if(!auctionedItem[tokenId].live) {\n            // Determine where the NFT currently is and transfer accordingly\n            address currentOwner = IERC721(address(nftContract)).ownerOf(tokenId);\n            \n            // If owned by user, transfer from user to this contract\n            // If owned by nftContract, transfer from nftContract to this contract\n            IERC721(address(nftContract)).transferFrom(\n                currentOwner,\n                address(this),\n                tokenId\n            );\n            \n            auctionedItem[tokenId].bids = 0;\n            auctionedItem[tokenId].live = true;\n            auctionedItem[tokenId].biddable = true;\n            \n            // Add to active auctions list\n            activeAuctionIds.push(tokenId);\n        }\n\n        emit AuctionItemCreated(\n            tokenId,\n            tokenInfo.seller,\n            address(nftContract),\n            price,\n            false\n        );\n    }\n\n    function placeBid(uint tokenId) public payable nonReentrant {\n        require(auctionedItemExists[tokenId], \"Auction does not exist\");\n        require(auctionedItem[tokenId].live, \"Auction is not live\");\n        require(auctionedItem[tokenId].biddable, \"Bidding is not allowed for this auction\");\n        require(block.timestamp < auctionedItem[tokenId].endTime, \"Auction has ended\");\n        require(msg.sender != auctionedItem[tokenId].seller, \"Seller cannot bid on their own auction\");\n        require(msg.value > auctionedItem[tokenId].price, \"Bid must be higher than current price\");\n\n        // Store the previous highest bidder to refund them\n        address previousBidder = auctionedItem[tokenId].winner;\n        uint previousBid = auctionedItem[tokenId].price;\n\n        // Create and store the new bid\n        BidderStruct memory bidder;\n        bidder.bidder = msg.sender;\n        bidder.bidAmount = msg.value;\n        bidder.timestamp = block.timestamp;\n        bidder.refunded = false;\n        bidder.won = false;\n\n        biddersOf[tokenId].push(bidder);\n        \n        // Update auction details\n        auctionedItem[tokenId].bids += 1;\n        auctionedItem[tokenId].price = msg.value;\n        auctionedItem[tokenId].winner = msg.sender;\n        \n        // If there was a previous bidder, refund them\n        if (previousBidder != address(0) && previousBid > 0) {\n            // Find the previous bidder in the array and mark as refunded\n            for (uint i = 0; i < biddersOf[tokenId].length - 1; i++) {\n                if (biddersOf[tokenId][i].bidder == previousBidder && \n                    biddersOf[tokenId][i].bidAmount == previousBid &&\n                    !biddersOf[tokenId][i].refunded) {\n                    biddersOf[tokenId][i].refunded = true;\n                    break;\n                }\n            }\n            \n            // Refund the previous bidder\n            (bool success, ) = payable(previousBidder).call{value: previousBid}(\"\");\n            require(success, \"Failed to refund previous bidder\");\n        }\n        \n        // Extend auction time if bid is placed in the last 5 minutes (anti-sniping)\n        // if (auctionedItem[tokenId].endTime - block.timestamp < 5 minutes) {\n        //     auctionedItem[tokenId].endTime += 5 minutes;\n        // }\n        \n        emit NewBid(tokenId, msg.sender, msg.value);\n    }\n\n    // claimPrize function to finalize the auction and transfer the NFT to the winner\n    function claimPrize(uint tokenId) public nonReentrant {\n        require(auctionedItemExists[tokenId], \"Auction does not exist\");\n        // require(block.timestamp > auctionedItem[tokenId].endTime, \"Auction is still live\");\n        require(auctionedItem[tokenId].live, \"Auction is not active or already claimed\");\n        require(auctionedItem[tokenId].winner == msg.sender, \"You are not the winner of this auction\");\n        require(auctionedItem[tokenId].winner != address(0), \"No winner for this auction\");\n\n        // Get auction details before updating state\n        uint price = auctionedItem[tokenId].price;\n        address payable seller = auctionedItem[tokenId].seller;\n        address payable originalOwner = auctionedItem[tokenId].owner;\n        \n        // Update state before external calls to prevent reentrancy\n        auctionedItem[tokenId].live = false;\n        auctionedItem[tokenId].sold = true;\n        auctionedItem[tokenId].biddable = false;\n        \n        // Remove from active auctions list\n        removeFromActiveAuctions(tokenId);\n        // Add to auctioned token IDs list\n        // This is to keep track of all auctioned tokens, even if they are not live anymore\n        auctionedTokenIds.push(tokenId);\n        \n        // Mark the winning bid\n        for (uint i = 0; i < biddersOf[tokenId].length; i++) {\n            if (biddersOf[tokenId][i].bidder == msg.sender && \n                biddersOf[tokenId][i].bidAmount == price) {\n                biddersOf[tokenId][i].won = true;\n                break;\n            }\n        }\n        \n        // Calculate royalties\n        uint royalty = (price * royaltyFee) / 100;\n        uint sellerAmount = price - royalty;\n\n        // Verify NFT ownership and approval\n        try IERC721(address(nftContract)).ownerOf(tokenId) returns (address currentOwner) {\n            require(currentOwner == address(this), \"Auction contract doesn't own the NFT\");\n        } catch {\n            revert(\"NFT ownership verification failed\");\n        }\n\n        // Transfer the NFT to the winner\n        try IERC721(address(nftContract)).transferFrom(address(this), msg.sender, tokenId) {\n            // Update auction owner to winner\n            auctionedItem[tokenId].owner = payable(msg.sender);\n            // Update the NFTAuction contract with the new owner\n            nftContract.updateOwner(tokenId, msg.sender);\n            // Update the NFTAuction contract with the new price\n            nftContract.updatePrice(tokenId, price);\n            \n            // Send payments\n            (bool successSeller, ) = seller.call{value: sellerAmount}(\"\");\n            require(successSeller, \"Failed to pay seller\");\n            \n            if (royalty > 0 && originalOwner != address(0)) {\n                (bool successRoyalty, ) = originalOwner.call{value: royalty}(\"\");\n                require(successRoyalty, \"Failed to pay royalties\");\n            }\n            \n            emit AuctionEnded(tokenId, msg.sender, price);\n        } catch {\n            // Revert the state changes if the transfer fails\n            auctionedItem[tokenId].live = true;\n            auctionedItem[tokenId].sold = false;\n            auctionedItem[tokenId].biddable = true;\n            \n            // Add back to active auctions if needed\n            bool found = false;\n            for (uint i = 0; i < activeAuctionIds.length; i++) {\n                if (activeAuctionIds[i] == tokenId) {\n                    found = true;\n                    break;\n                }\n            }\n            if (!found) {\n                activeAuctionIds.push(tokenId);\n            }\n            \n            revert(\"NFT transfer failed\");\n        }\n    }\n\n    // Helper function to get the current timestamp\n    function getAuctionStatus(uint tokenId) public view returns (\n        bool isLive,\n        bool isSold,\n        uint currentPrice,\n        address currentWinner,\n        uint timeRemaining,\n        uint totalBids\n    ) {\n        require(auctionedItemExists[tokenId], \"Auction does not exist\");\n        \n        AuctionStruct storage auction = auctionedItem[tokenId];\n        \n        isLive = auction.live;\n        isSold = auction.sold;\n        currentPrice = auction.price;\n        currentWinner = auction.winner;\n        timeRemaining = block.timestamp >= auction.endTime ? 0 : auction.endTime - block.timestamp;\n        totalBids = auction.bids;\n    }\n\n    // Events for tracking auction activity\n    event NewBid(uint tokenId, address bidder, uint amount);\n    event AuctionEnded(uint tokenId, address winner, uint finalPrice);\n\n    // Helper function to remove an auction from active auctions array\n    function removeFromActiveAuctions(uint tokenId) internal {\n        for (uint i = 0; i < activeAuctionIds.length; i++) {\n            if (activeAuctionIds[i] == tokenId) {\n                // Move the last element to this position and pop the last element\n                activeAuctionIds[i] = activeAuctionIds[activeAuctionIds.length - 1];\n                activeAuctionIds.pop();\n                break;\n            }\n        }\n    }\n\n    // Update getActiveAuctions to use the activeAuctionIds array\n    function getActiveAuctions() public view returns (AuctionStruct[] memory) {\n        uint count = 0;\n        \n        // Count actual live auctions (some might have expired but not yet claimed)\n        for (uint i = 0; i < activeAuctionIds.length; i++) {\n            uint tokenId = activeAuctionIds[i];\n            if (auctionedItemExists[tokenId] && auctionedItem[tokenId].live) {\n                count++;\n            }\n        }\n        \n        AuctionStruct[] memory ret = new AuctionStruct[](count);\n        uint j = 0;\n        \n        // Populate the array with active auctions\n        for (uint i = 0; i < activeAuctionIds.length && j < count; i++) {\n            uint tokenId = activeAuctionIds[i];\n            if (auctionedItemExists[tokenId] && auctionedItem[tokenId].live) {\n                ret[j] = auctionedItem[tokenId];\n                j++;\n            }\n        }\n        \n        return ret;\n    }\n\n    // get specific auction details\n    function getAuctionDetails(uint tokenId) public view returns (AuctionStruct memory) {\n        require(auctionedItemExists[tokenId], \"Auction does not exist\");\n        return auctionedItem[tokenId];\n    }\n\n    // get all bidders for a specific auction\n    function getBidders(uint tokenId) public view returns (BidderStruct[] memory) {\n        require(auctionedItemExists[tokenId], \"Auction does not exist\");\n        return biddersOf[tokenId];\n    }\n\n    // get all completed auctions\n    function getCompletedAuctions() public view returns (AuctionStruct[] memory) {\n        uint count = 0;\n        \n        // First, count completed auctions\n        for (uint i = 0; i < auctionedTokenIds.length; i++) {\n            uint tokenId = auctionedTokenIds[i];\n            if (auctionedItemExists[tokenId] && auctionedItem[tokenId].sold) {\n                count++;\n            }\n        }\n        \n        AuctionStruct[] memory ret = new AuctionStruct[](count);\n        uint j = 0;\n        \n        // Populate array with completed auctions\n        for (uint i = 0; i < auctionedTokenIds.length && j < count; i++) {\n            uint tokenId = auctionedTokenIds[i];\n            if (auctionedItemExists[tokenId] && auctionedItem[tokenId].sold) {\n                ret[j] = auctionedItem[tokenId];\n                j++;\n            }\n        }\n        \n        return ret;\n    }\n\n    //Reclaim auction if it has ended and not claimed\n    function reclaimAuction(uint tokenId) public nonReentrant {\n        require(auctionedItemExists[tokenId], \"Auction does not exist\");\n        require(auctionedItem[tokenId].live, \"Auction is not active or already claimed\");\n        \n        // Check if caller is the seller\n        // require(msg.sender == auctionedItem[tokenId].seller, \"Only the seller can reclaim an auction\");\n        \n        // Check if auction has ended (time-wise)\n        // require(block.timestamp > auctionedItem[tokenId].endTime, \"Auction has not ended yet\");\n        \n        // Check if there were no bids (winner will be address(0))\n        require(auctionedItem[tokenId].winner == address(0), \"Auction has bids and cannot be reclaimed\");\n        \n        // Update state before transfers to prevent reentrancy\n        auctionedItem[tokenId].live = false;\n        auctionedItem[tokenId].sold = false;\n        auctionedItem[tokenId].biddable = false;\n        \n        // Remove from active auctions list\n        removeFromActiveAuctions(tokenId);\n        \n        // Add to auctioned token IDs list if it's not already there\n        bool found = false;\n        for (uint i = 0; i < auctionedTokenIds.length; i++) {\n            if (auctionedTokenIds[i] == tokenId) {\n                found = true;\n                break;\n            }\n        }\n        if (!found) {\n            auctionedTokenIds.push(tokenId);\n        }\n        \n        // Transfer the NFT back to the seller\n        try IERC721(address(nftContract)).transferFrom(address(this), msg.sender, tokenId) {\n            // Update owner in the NFT contract\n            nftContract.updateOwner(tokenId, msg.sender);\n            \n            // Reclaimed NFTs should be unlisted, not listed\n            nftContract.setTokenListed(tokenId, false);\n            \n        } catch {\n            // Revert state changes if transfer fails\n            auctionedItem[tokenId].live = true;\n            auctionedItem[tokenId].sold = false;\n            auctionedItem[tokenId].biddable = true;\n            \n            // Add back to active auctions if needed\n            bool isActive = false;\n            for (uint i = 0; i < activeAuctionIds.length; i++) {\n                if (activeAuctionIds[i] == tokenId) {\n                    isActive = true;\n                    break;\n                }\n            }\n            if (!isActive) {\n                activeAuctionIds.push(tokenId);\n            }\n            \n            revert(\"NFT transfer failed\");\n        }\n    }\n}\n\n",
  "sourcePath": "/Users/janyajaiswal/AetherVault/contracts/Auction.sol",
  "compiler": {
    "name": "solc",
    "version": "0.8.19+commit.7dd6d404.Emscripten.clang"
  },
  "schemaVersion": "3.4.4",
  "updatedAt": "2025-12-09T16:46:42.555Z",
  "networkType": "ethereum",
  "devdoc": {
    "kind": "dev",
    "methods": {},
    "version": 1
  },
  "userdoc": {
    "kind": "user",
    "methods": {},
    "version": 1
  }
}