{
  "contractName": "Auction",
  "abi": [
    {
      "inputs": [
        {
          "internalType": "address",
          "name": "_nftContract",
          "type": "address"
        }
      ],
      "stateMutability": "nonpayable",
      "type": "constructor"
    },
    {
      "anonymous": false,
      "inputs": [
        {
          "indexed": false,
          "internalType": "uint256",
          "name": "tokenId",
          "type": "uint256"
        },
        {
          "indexed": false,
          "internalType": "address",
          "name": "winner",
          "type": "address"
        },
        {
          "indexed": false,
          "internalType": "uint256",
          "name": "finalPrice",
          "type": "uint256"
        }
      ],
      "name": "AuctionEnded",
      "type": "event"
    },
    {
      "anonymous": false,
      "inputs": [
        {
          "indexed": true,
          "internalType": "uint256",
          "name": "tokenId",
          "type": "uint256"
        },
        {
          "indexed": false,
          "internalType": "address",
          "name": "seller",
          "type": "address"
        },
        {
          "indexed": false,
          "internalType": "address",
          "name": "owner",
          "type": "address"
        },
        {
          "indexed": false,
          "internalType": "uint256",
          "name": "price",
          "type": "uint256"
        },
        {
          "indexed": false,
          "internalType": "bool",
          "name": "sold",
          "type": "bool"
        }
      ],
      "name": "AuctionItemCreated",
      "type": "event"
    },
    {
      "anonymous": false,
      "inputs": [
        {
          "indexed": false,
          "internalType": "uint256",
          "name": "tokenId",
          "type": "uint256"
        },
        {
          "indexed": false,
          "internalType": "address",
          "name": "bidder",
          "type": "address"
        },
        {
          "indexed": false,
          "internalType": "uint256",
          "name": "amount",
          "type": "uint256"
        }
      ],
      "name": "NewBid",
      "type": "event"
    },
    {
      "inputs": [
        {
          "internalType": "uint256",
          "name": "",
          "type": "uint256"
        }
      ],
      "name": "auctionedItem",
      "outputs": [
        {
          "internalType": "uint256",
          "name": "tokenId",
          "type": "uint256"
        },
        {
          "internalType": "address payable",
          "name": "owner",
          "type": "address"
        },
        {
          "internalType": "address payable",
          "name": "seller",
          "type": "address"
        },
        {
          "internalType": "address",
          "name": "winner",
          "type": "address"
        },
        {
          "internalType": "uint256",
          "name": "price",
          "type": "uint256"
        },
        {
          "internalType": "bool",
          "name": "sold",
          "type": "bool"
        },
        {
          "internalType": "bool",
          "name": "live",
          "type": "bool"
        },
        {
          "internalType": "bool",
          "name": "biddable",
          "type": "bool"
        },
        {
          "internalType": "uint256",
          "name": "bids",
          "type": "uint256"
        },
        {
          "internalType": "uint256",
          "name": "duration",
          "type": "uint256"
        },
        {
          "internalType": "uint256",
          "name": "endTime",
          "type": "uint256"
        },
        {
          "internalType": "uint256",
          "name": "auctionId",
          "type": "uint256"
        }
      ],
      "stateMutability": "view",
      "type": "function",
      "constant": true
    },
    {
      "inputs": [
        {
          "internalType": "uint256",
          "name": "",
          "type": "uint256"
        }
      ],
      "name": "auctionedItemExists",
      "outputs": [
        {
          "internalType": "bool",
          "name": "",
          "type": "bool"
        }
      ],
      "stateMutability": "view",
      "type": "function",
      "constant": true
    },
    {
      "inputs": [
        {
          "internalType": "uint256",
          "name": "",
          "type": "uint256"
        },
        {
          "internalType": "uint256",
          "name": "",
          "type": "uint256"
        }
      ],
      "name": "biddersOf",
      "outputs": [
        {
          "internalType": "address",
          "name": "bidder",
          "type": "address"
        },
        {
          "internalType": "uint256",
          "name": "bidAmount",
          "type": "uint256"
        },
        {
          "internalType": "uint256",
          "name": "timestamp",
          "type": "uint256"
        },
        {
          "internalType": "bool",
          "name": "refunded",
          "type": "bool"
        },
        {
          "internalType": "bool",
          "name": "won",
          "type": "bool"
        }
      ],
      "stateMutability": "view",
      "type": "function",
      "constant": true
    },
    {
      "inputs": [],
      "name": "companyAcc",
      "outputs": [
        {
          "internalType": "address",
          "name": "",
          "type": "address"
        }
      ],
      "stateMutability": "view",
      "type": "function",
      "constant": true
    },
    {
      "inputs": [
        {
          "internalType": "string",
          "name": "",
          "type": "string"
        }
      ],
      "name": "existingURIs",
      "outputs": [
        {
          "internalType": "uint256",
          "name": "",
          "type": "uint256"
        }
      ],
      "stateMutability": "view",
      "type": "function",
      "constant": true
    },
    {
      "inputs": [],
      "name": "nftContract",
      "outputs": [
        {
          "internalType": "contract NFTAuction",
          "name": "",
          "type": "address"
        }
      ],
      "stateMutability": "view",
      "type": "function",
      "constant": true
    },
    {
      "inputs": [],
      "name": "owner",
      "outputs": [
        {
          "internalType": "address payable",
          "name": "",
          "type": "address"
        }
      ],
      "stateMutability": "view",
      "type": "function",
      "constant": true
    },
    {
      "inputs": [],
      "name": "royaltyFee",
      "outputs": [
        {
          "internalType": "uint256",
          "name": "",
          "type": "uint256"
        }
      ],
      "stateMutability": "view",
      "type": "function",
      "constant": true
    },
    {
      "inputs": [
        {
          "internalType": "uint256",
          "name": "tokenId",
          "type": "uint256"
        },
        {
          "internalType": "uint256",
          "name": "price",
          "type": "uint256"
        },
        {
          "internalType": "uint256",
          "name": "duration",
          "type": "uint256"
        }
      ],
      "name": "createAuction",
      "outputs": [],
      "stateMutability": "nonpayable",
      "type": "function"
    },
    {
      "inputs": [
        {
          "internalType": "uint256",
          "name": "tokenId",
          "type": "uint256"
        }
      ],
      "name": "placeBid",
      "outputs": [],
      "stateMutability": "payable",
      "type": "function",
      "payable": true
    },
    {
      "inputs": [
        {
          "internalType": "uint256",
          "name": "tokenId",
          "type": "uint256"
        }
      ],
      "name": "claimPrize",
      "outputs": [],
      "stateMutability": "nonpayable",
      "type": "function"
    },
    {
      "inputs": [
        {
          "internalType": "uint256",
          "name": "tokenId",
          "type": "uint256"
        }
      ],
      "name": "getAuctionStatus",
      "outputs": [
        {
          "internalType": "bool",
          "name": "isLive",
          "type": "bool"
        },
        {
          "internalType": "bool",
          "name": "isSold",
          "type": "bool"
        },
        {
          "internalType": "uint256",
          "name": "currentPrice",
          "type": "uint256"
        },
        {
          "internalType": "address",
          "name": "currentWinner",
          "type": "address"
        },
        {
          "internalType": "uint256",
          "name": "timeRemaining",
          "type": "uint256"
        },
        {
          "internalType": "uint256",
          "name": "totalBids",
          "type": "uint256"
        }
      ],
      "stateMutability": "view",
      "type": "function",
      "constant": true
    },
    {
      "inputs": [],
      "name": "getActiveAuctions",
      "outputs": [
        {
          "components": [
            {
              "internalType": "uint256",
              "name": "tokenId",
              "type": "uint256"
            },
            {
              "internalType": "address payable",
              "name": "owner",
              "type": "address"
            },
            {
              "internalType": "address payable",
              "name": "seller",
              "type": "address"
            },
            {
              "internalType": "address",
              "name": "winner",
              "type": "address"
            },
            {
              "internalType": "uint256",
              "name": "price",
              "type": "uint256"
            },
            {
              "internalType": "bool",
              "name": "sold",
              "type": "bool"
            },
            {
              "internalType": "bool",
              "name": "live",
              "type": "bool"
            },
            {
              "internalType": "bool",
              "name": "biddable",
              "type": "bool"
            },
            {
              "internalType": "uint256",
              "name": "bids",
              "type": "uint256"
            },
            {
              "internalType": "uint256",
              "name": "duration",
              "type": "uint256"
            },
            {
              "internalType": "uint256",
              "name": "endTime",
              "type": "uint256"
            },
            {
              "internalType": "uint256",
              "name": "auctionId",
              "type": "uint256"
            }
          ],
          "internalType": "struct Auction.AuctionStruct[]",
          "name": "",
          "type": "tuple[]"
        }
      ],
      "stateMutability": "view",
      "type": "function",
      "constant": true
    },
    {
      "inputs": [
        {
          "internalType": "uint256",
          "name": "tokenId",
          "type": "uint256"
        }
      ],
      "name": "getAuctionDetails",
      "outputs": [
        {
          "components": [
            {
              "internalType": "uint256",
              "name": "tokenId",
              "type": "uint256"
            },
            {
              "internalType": "address payable",
              "name": "owner",
              "type": "address"
            },
            {
              "internalType": "address payable",
              "name": "seller",
              "type": "address"
            },
            {
              "internalType": "address",
              "name": "winner",
              "type": "address"
            },
            {
              "internalType": "uint256",
              "name": "price",
              "type": "uint256"
            },
            {
              "internalType": "bool",
              "name": "sold",
              "type": "bool"
            },
            {
              "internalType": "bool",
              "name": "live",
              "type": "bool"
            },
            {
              "internalType": "bool",
              "name": "biddable",
              "type": "bool"
            },
            {
              "internalType": "uint256",
              "name": "bids",
              "type": "uint256"
            },
            {
              "internalType": "uint256",
              "name": "duration",
              "type": "uint256"
            },
            {
              "internalType": "uint256",
              "name": "endTime",
              "type": "uint256"
            },
            {
              "internalType": "uint256",
              "name": "auctionId",
              "type": "uint256"
            }
          ],
          "internalType": "struct Auction.AuctionStruct",
          "name": "",
          "type": "tuple"
        }
      ],
      "stateMutability": "view",
      "type": "function",
      "constant": true
    },
    {
      "inputs": [
        {
          "internalType": "uint256",
          "name": "tokenId",
          "type": "uint256"
        }
      ],
      "name": "getBidders",
      "outputs": [
        {
          "components": [
            {
              "internalType": "address",
              "name": "bidder",
              "type": "address"
            },
            {
              "internalType": "uint256",
              "name": "bidAmount",
              "type": "uint256"
            },
            {
              "internalType": "uint256",
              "name": "timestamp",
              "type": "uint256"
            },
            {
              "internalType": "bool",
              "name": "refunded",
              "type": "bool"
            },
            {
              "internalType": "bool",
              "name": "won",
              "type": "bool"
            }
          ],
          "internalType": "struct Auction.BidderStruct[]",
          "name": "",
          "type": "tuple[]"
        }
      ],
      "stateMutability": "view",
      "type": "function",
      "constant": true
    },
    {
      "inputs": [],
      "name": "getCompletedAuctions",
      "outputs": [
        {
          "components": [
            {
              "internalType": "uint256",
              "name": "tokenId",
              "type": "uint256"
            },
            {
              "internalType": "address payable",
              "name": "owner",
              "type": "address"
            },
            {
              "internalType": "address payable",
              "name": "seller",
              "type": "address"
            },
            {
              "internalType": "address",
              "name": "winner",
              "type": "address"
            },
            {
              "internalType": "uint256",
              "name": "price",
              "type": "uint256"
            },
            {
              "internalType": "bool",
              "name": "sold",
              "type": "bool"
            },
            {
              "internalType": "bool",
              "name": "live",
              "type": "bool"
            },
            {
              "internalType": "bool",
              "name": "biddable",
              "type": "bool"
            },
            {
              "internalType": "uint256",
              "name": "bids",
              "type": "uint256"
            },
            {
              "internalType": "uint256",
              "name": "duration",
              "type": "uint256"
            },
            {
              "internalType": "uint256",
              "name": "endTime",
              "type": "uint256"
            },
            {
              "internalType": "uint256",
              "name": "auctionId",
              "type": "uint256"
            }
          ],
          "internalType": "struct Auction.AuctionStruct[]",
          "name": "",
          "type": "tuple[]"
        }
      ],
      "stateMutability": "view",
      "type": "function",
      "constant": true
    },
    {
      "inputs": [
        {
          "internalType": "uint256",
          "name": "tokenId",
          "type": "uint256"
        }
      ],
      "name": "reclaimAuction",
      "outputs": [],
      "stateMutability": "nonpayable",
      "type": "function"
    }
  ],
  "bytecode": "0x60806040523480156200001157600080fd5b5060405162004fce38038062004fce833981810160405281019062000037919062000132565b600160008190555080600460006101000a81548173ffffffffffffffffffffffffffffffffffffffff021916908373ffffffffffffffffffffffffffffffffffffffff16021790555033600160006101000a81548173ffffffffffffffffffffffffffffffffffffffff021916908373ffffffffffffffffffffffffffffffffffffffff1602179055505062000164565b600080fd5b600073ffffffffffffffffffffffffffffffffffffffff82169050919050565b6000620000fa82620000cd565b9050919050565b6200010c81620000ed565b81146200011857600080fd5b50565b6000815190506200012c8162000101565b92915050565b6000602082840312156200014b576200014a620000c8565b5b60006200015b848285016200011b565b91505092915050565b614e5a80620001746000396000f3fe6080604052600436106100fe5760003560e01c8063cda4beef11610095578063d709815411610064578063d70981541461033a578063e154e0d014610363578063ea6bc91b146103a0578063f20e5e35146103e1578063f37971df1461041e576100fe565b8063cda4beef14610290578063cf44b5d5146102b9578063d36acc39146102e4578063d56d229d1461030f576100fe565b80638da5cb5b116100d15780638da5cb5b146101f35780639979ef451461021e578063b8997a971461023a578063cb7b43ef14610265576100fe565b806308c41169146101035780631c4b184f1461014b5780634fa7b507146101745780637765c52c146101b1575b600080fd5b34801561010f57600080fd5b5061012a6004803603810190610125919061351f565b61045b565b6040516101429c9b9a999897969594939291906135d8565b60405180910390f35b34801561015757600080fd5b50610172600480360381019061016d919061351f565b610542565b005b34801561018057600080fd5b5061019b6004803603810190610196919061351f565b610acd565b6040516101a891906137d6565b60405180910390f35b3480156101bd57600080fd5b506101d860048036038101906101d3919061351f565b610c3f565b6040516101ea969594939291906137f8565b60405180910390f35b3480156101ff57600080fd5b50610208610d4c565b6040516102159190613859565b60405180910390f35b6102386004803603810190610233919061351f565b610d72565b005b34801561024657600080fd5b5061024f61151e565b60405161025c9190613874565b60405180910390f35b34801561027157600080fd5b5061027a611524565b6040516102879190613a44565b60405180910390f35b34801561029c57600080fd5b506102b760048036038101906102b29190613a66565b6118b2565b005b3480156102c557600080fd5b506102ce612091565b6040516102db9190613a44565b60405180910390f35b3480156102f057600080fd5b506102f961241f565b6040516103069190613ab9565b60405180910390f35b34801561031b57600080fd5b50610324612445565b6040516103319190613b33565b60405180910390f35b34801561034657600080fd5b50610361600480360381019061035c919061351f565b61246b565b005b34801561036f57600080fd5b5061038a6004803603810190610385919061351f565b612fc7565b6040516103979190613b4e565b60405180910390f35b3480156103ac57600080fd5b506103c760048036038101906103c29190613b69565b612fe7565b6040516103d8959493929190613ba9565b60405180910390f35b3480156103ed57600080fd5b506104086004803603810190610403919061351f565b613074565b6040516104159190613cf2565b60405180910390f35b34801561042a57600080fd5b5061044560048036038101906104409190613e54565b613291565b6040516104529190613874565b60405180910390f35b60066020528060005260406000206000915090508060000154908060010160009054906101000a900473ffffffffffffffffffffffffffffffffffffffff16908060020160009054906101000a900473ffffffffffffffffffffffffffffffffffffffff16908060030160009054906101000a900473ffffffffffffffffffffffffffffffffffffffff16908060040154908060050160009054906101000a900460ff16908060050160019054906101000a900460ff16908060050160029054906101000a900460ff1690806006015490806007015490806008015490806009015490508c565b61054a6132bf565b6007600082815260200190815260200160002060009054906101000a900460ff166105aa576040517f08c379a00000000000000000000000000000000000000000000000000000000081526004016105a190613efa565b60405180910390fd5b6006600082815260200190815260200160002060050160019054906101000a900460ff1661060d576040517f08c379a000000000000000000000000000000000000000000000000000000000815260040161060490613f8c565b60405180910390fd5b600073ffffffffffffffffffffffffffffffffffffffff166006600083815260200190815260200160002060030160009054906101000a900473ffffffffffffffffffffffffffffffffffffffff1673ffffffffffffffffffffffffffffffffffffffff16146106b2576040517f08c379a00000000000000000000000000000000000000000000000000000000081526004016106a99061401e565b60405180910390fd5b60006006600083815260200190815260200160002060050160016101000a81548160ff02191690831515021790555060006006600083815260200190815260200160002060050160006101000a81548160ff02191690831515021790555060006006600083815260200190815260200160002060050160026101000a81548160ff0219169083151502179055506107488161330e565b6000805b600b8054905081101561079a5782600b828154811061076e5761076d61403e565b5b906000526020600020015403610787576001915061079a565b80806107929061409c565b91505061074c565b50806107ca57600b8290806001815401808255809150506001900390600052602060002001600090919091909150555b600460009054906101000a900473ffffffffffffffffffffffffffffffffffffffff1673ffffffffffffffffffffffffffffffffffffffff166323b872dd3033856040518463ffffffff1660e01b8152600401610829939291906140e4565b600060405180830381600087803b15801561084357600080fd5b505af1925050508015610854575060015b6109a25760016006600084815260200190815260200160002060050160016101000a81548160ff02191690831515021790555060006006600084815260200190815260200160002060050160006101000a81548160ff02191690831515021790555060016006600084815260200190815260200160002060050160026101000a81548160ff0219169083151502179055506000805b600a805490508110156109375783600a828154811061090b5761090a61403e565b5b9060005260206000200154036109245760019150610937565b808061092f9061409c565b9150506108e9565b508061096757600a8390806001815401808255809150506001900390600052602060002001600090919091909150555b6040517f08c379a000000000000000000000000000000000000000000000000000000000815260040161099990614167565b60405180910390fd5b600460009054906101000a900473ffffffffffffffffffffffffffffffffffffffff1673ffffffffffffffffffffffffffffffffffffffff16637192711f83336040518363ffffffff1660e01b81526004016109ff929190614187565b600060405180830381600087803b158015610a1957600080fd5b505af1158015610a2d573d6000803e3d6000fd5b50505050600460009054906101000a900473ffffffffffffffffffffffffffffffffffffffff1673ffffffffffffffffffffffffffffffffffffffff1663dc4dc5078360016040518363ffffffff1660e01b8152600401610a8f9291906141b0565b600060405180830381600087803b158015610aa957600080fd5b505af1158015610abd573d6000803e3d6000fd5b5050505050610aca6133d9565b50565b60606007600083815260200190815260200160002060009054906101000a900460ff16610b2f576040517f08c379a0000000000000000000000000000000000000000000000000000000008152600401610b2690613efa565b60405180910390fd5b60096000838152602001908152602001600020805480602002602001604051908101604052809291908181526020016000905b82821015610c3457838290600052602060002090600402016040518060a00160405290816000820160009054906101000a900473ffffffffffffffffffffffffffffffffffffffff1673ffffffffffffffffffffffffffffffffffffffff1673ffffffffffffffffffffffffffffffffffffffff16815260200160018201548152602001600282015481526020016003820160009054906101000a900460ff161515151581526020016003820160019054906101000a900460ff16151515158152505081526020019060010190610b62565b505050509050919050565b6000806000806000806007600088815260200190815260200160002060009054906101000a900460ff16610ca8576040517f08c379a0000000000000000000000000000000000000000000000000000000008152600401610c9f90613efa565b60405180910390fd5b60006006600089815260200190815260200160002090508060050160019054906101000a900460ff1696508060050160009054906101000a900460ff169550806004015494508060030160009054906101000a900473ffffffffffffffffffffffffffffffffffffffff1693508060080154421015610d3657428160080154610d3191906141d9565b610d39565b60005b9250806006015491505091939550919395565b600160009054906101000a900473ffffffffffffffffffffffffffffffffffffffff1681565b610d7a6132bf565b6007600082815260200190815260200160002060009054906101000a900460ff16610dda576040517f08c379a0000000000000000000000000000000000000000000000000000000008152600401610dd190613efa565b60405180910390fd5b6006600082815260200190815260200160002060050160019054906101000a900460ff16610e3d576040517f08c379a0000000000000000000000000000000000000000000000000000000008152600401610e3490614259565b60405180910390fd5b6006600082815260200190815260200160002060050160029054906101000a900460ff16610ea0576040517f08c379a0000000000000000000000000000000000000000000000000000000008152600401610e97906142eb565b60405180910390fd5b60066000828152602001908152602001600020600801544210610ef8576040517f08c379a0000000000000000000000000000000000000000000000000000000008152600401610eef90614357565b60405180910390fd5b6006600082815260200190815260200160002060020160009054906101000a900473ffffffffffffffffffffffffffffffffffffffff1673ffffffffffffffffffffffffffffffffffffffff163373ffffffffffffffffffffffffffffffffffffffff1603610f9c576040517f08c379a0000000000000000000000000000000000000000000000000000000008152600401610f93906143e9565b60405180910390fd5b60066000828152602001908152602001600020600401543411610ff4576040517f08c379a0000000000000000000000000000000000000000000000000000000008152600401610feb9061447b565b60405180910390fd5b60006006600083815260200190815260200160002060030160009054906101000a900473ffffffffffffffffffffffffffffffffffffffff1690506000600660008481526020019081526020016000206004015490506110526133e3565b33816000019073ffffffffffffffffffffffffffffffffffffffff16908173ffffffffffffffffffffffffffffffffffffffff16815250503481602001818152505042816040018181525050600081606001901515908115158152505060008160800190151590811515815250506009600085815260200190815260200160002081908060018154018082558091505060019003906000526020600020906004020160009091909190915060008201518160000160006101000a81548173ffffffffffffffffffffffffffffffffffffffff021916908373ffffffffffffffffffffffffffffffffffffffff160217905550602082015181600101556040820151816002015560608201518160030160006101000a81548160ff02191690831515021790555060808201518160030160016101000a81548160ff021916908315150217905550505060016006600086815260200190815260200160002060060160008282546111c1919061449b565b92505081905550346006600086815260200190815260200160002060040181905550336006600086815260200190815260200160002060030160006101000a81548173ffffffffffffffffffffffffffffffffffffffff021916908373ffffffffffffffffffffffffffffffffffffffff160217905550600073ffffffffffffffffffffffffffffffffffffffff168373ffffffffffffffffffffffffffffffffffffffff16141580156112755750600082115b156114d55760005b600160096000878152602001908152602001600020805490506112a091906141d9565b811015611426578373ffffffffffffffffffffffffffffffffffffffff166009600087815260200190815260200160002082815481106112e3576112e261403e565b5b906000526020600020906004020160000160009054906101000a900473ffffffffffffffffffffffffffffffffffffffff1673ffffffffffffffffffffffffffffffffffffffff1614801561136d5750826009600087815260200190815260200160002082815481106113595761135861403e565b5b906000526020600020906004020160010154145b80156113ba57506009600086815260200190815260200160002081815481106113995761139861403e565b5b906000526020600020906004020160030160009054906101000a900460ff16155b156114135760016009600087815260200190815260200160002082815481106113e6576113e561403e565b5b906000526020600020906004020160030160006101000a81548160ff021916908315150217905550611426565b808061141e9061409c565b91505061127d565b5060008373ffffffffffffffffffffffffffffffffffffffff168360405161144d90614500565b60006040518083038185875af1925050503d806000811461148a576040519150601f19603f3d011682016040523d82523d6000602084013e61148f565b606091505b50509050806114d3576040517f08c379a00000000000000000000000000000000000000000000000000000000081526004016114ca90614561565b60405180910390fd5b505b7f558a0d5d5468d74b0db24c74eb348b42271c2ebb4c9e953ced38aaed95fa436184333460405161150893929190614581565b60405180910390a150505061151b6133d9565b50565b60035481565b60606000805b600b805490508110156115cf576000600b828154811061154d5761154c61403e565b5b906000526020600020015490506007600082815260200190815260200160002060009054906101000a900460ff1680156115a757506006600082815260200190815260200160002060050160009054906101000a900460ff165b156115bb5782806115b79061409c565b9350505b5080806115c79061409c565b91505061152a565b5060008167ffffffffffffffff8111156115ec576115eb613d29565b5b60405190808252806020026020018201604052801561162557816020015b61161261342c565b81526020019060019003908161160a5790505b5090506000805b600b805490508110801561163f57508382105b156118a8576000600b828154811061165a5761165961403e565b5b906000526020600020015490506007600082815260200190815260200160002060009054906101000a900460ff1680156116b457506006600082815260200190815260200160002060050160009054906101000a900460ff165b15611894576006600082815260200190815260200160002060405180610180016040529081600082015481526020016001820160009054906101000a900473ffffffffffffffffffffffffffffffffffffffff1673ffffffffffffffffffffffffffffffffffffffff1673ffffffffffffffffffffffffffffffffffffffff1681526020016002820160009054906101000a900473ffffffffffffffffffffffffffffffffffffffff1673ffffffffffffffffffffffffffffffffffffffff1673ffffffffffffffffffffffffffffffffffffffff1681526020016003820160009054906101000a900473ffffffffffffffffffffffffffffffffffffffff1673ffffffffffffffffffffffffffffffffffffffff1673ffffffffffffffffffffffffffffffffffffffff168152602001600482015481526020016005820160009054906101000a900460ff161515151581526020016005820160019054906101000a900460ff161515151581526020016005820160029054906101000a900460ff1615151515815260200160068201548152602001600782015481526020016008820154815260200160098201548152505084848151811061187a5761187961403e565b5b602002602001018190525082806118909061409c565b9350505b5080806118a09061409c565b91505061162c565b5081935050505090565b6118ba6132bf565b6000600460009054906101000a900473ffffffffffffffffffffffffffffffffffffffff1673ffffffffffffffffffffffffffffffffffffffff16638e264590856040518263ffffffff1660e01b81526004016119179190613874565b60a060405180830381865afa158015611934573d6000803e3d6000fd5b505050506040513d601f19601f8201168201806040525081019061195891906146b6565b90503373ffffffffffffffffffffffffffffffffffffffff16816040015173ffffffffffffffffffffffffffffffffffffffff1614806119e55750600460009054906101000a900473ffffffffffffffffffffffffffffffffffffffff1673ffffffffffffffffffffffffffffffffffffffff163373ffffffffffffffffffffffffffffffffffffffff16145b80611ab657503073ffffffffffffffffffffffffffffffffffffffff16600460009054906101000a900473ffffffffffffffffffffffffffffffffffffffff1673ffffffffffffffffffffffffffffffffffffffff1663081812fc866040518263ffffffff1660e01b8152600401611a5d9190613874565b602060405180830381865afa158015611a7a573d6000803e3d6000fd5b505050506040513d601f19601f82011682018060405250810190611a9e919061470f565b73ffffffffffffffffffffffffffffffffffffffff16145b611af5576040517f08c379a0000000000000000000000000000000000000000000000000000000008152600401611aec906147ae565b60405180910390fd5b60008311611b38576040517f08c379a0000000000000000000000000000000000000000000000000000000008152600401611b2f9061481a565b60405180910390fd5b60008211611b7b576040517f08c379a0000000000000000000000000000000000000000000000000000000008152600401611b72906148ac565b60405180910390fd5b6007600085815260200190815260200160002060009054906101000a900460ff161580611bc957506006600085815260200190815260200160002060050160019054906101000a900460ff16155b611c08576040517f08c379a0000000000000000000000000000000000000000000000000000000008152600401611bff9061493e565b60405180910390fd5b611c1061342c565b848160000181815250508160400151816040019073ffffffffffffffffffffffffffffffffffffffff16908173ffffffffffffffffffffffffffffffffffffffff1681525050600460009054906101000a900473ffffffffffffffffffffffffffffffffffffffff16816020019073ffffffffffffffffffffffffffffffffffffffff16908173ffffffffffffffffffffffffffffffffffffffff16815250508381608001818152505082816101200181815250508242611cd1919061449b565b81610140018181525050848161016001818152505080600660008781526020019081526020016000206000820151816000015560208201518160010160006101000a81548173ffffffffffffffffffffffffffffffffffffffff021916908373ffffffffffffffffffffffffffffffffffffffff16021790555060408201518160020160006101000a81548173ffffffffffffffffffffffffffffffffffffffff021916908373ffffffffffffffffffffffffffffffffffffffff16021790555060608201518160030160006101000a81548173ffffffffffffffffffffffffffffffffffffffff021916908373ffffffffffffffffffffffffffffffffffffffff1602179055506080820151816004015560a08201518160050160006101000a81548160ff02191690831515021790555060c08201518160050160016101000a81548160ff02191690831515021790555060e08201518160050160026101000a81548160ff021916908315150217905550610100820151816006015561012082015181600701556101408201518160080155610160820151816009015590505060016007600087815260200190815260200160002060006101000a81548160ff0219169083151502179055506006600086815260200190815260200160002060050160019054906101000a900460ff1661201d57600460009054906101000a900473ffffffffffffffffffffffffffffffffffffffff1673ffffffffffffffffffffffffffffffffffffffff166323b872dd600460009054906101000a900473ffffffffffffffffffffffffffffffffffffffff1630886040518463ffffffff1660e01b8152600401611f47939291906140e4565b600060405180830381600087803b158015611f6157600080fd5b505af1158015611f75573d6000803e3d6000fd5b505050506000600660008781526020019081526020016000206006018190555060016006600087815260200190815260200160002060050160016101000a81548160ff02191690831515021790555060016006600087815260200190815260200160002060050160026101000a81548160ff021916908315150217905550600a8590806001815401808255809150506001900390600052602060002001600090919091909150555b847fa693a8f68fe4df789541ddd1b84d32ccaea90adddcc88406b4bbbf6466328d3c8360400151600460009054906101000a900473ffffffffffffffffffffffffffffffffffffffff1687600060405161207a949392919061497f565b60405180910390a2505061208c6133d9565b505050565b60606000805b600a8054905081101561213c576000600a82815481106120ba576120b961403e565b5b906000526020600020015490506007600082815260200190815260200160002060009054906101000a900460ff16801561211457506006600082815260200190815260200160002060050160019054906101000a900460ff165b156121285782806121249061409c565b9350505b5080806121349061409c565b915050612097565b5060008167ffffffffffffffff81111561215957612158613d29565b5b60405190808252806020026020018201604052801561219257816020015b61217f61342c565b8152602001906001900390816121775790505b5090506000805b600a80549050811080156121ac57508382105b15612415576000600a82815481106121c7576121c661403e565b5b906000526020600020015490506007600082815260200190815260200160002060009054906101000a900460ff16801561222157506006600082815260200190815260200160002060050160019054906101000a900460ff165b15612401576006600082815260200190815260200160002060405180610180016040529081600082015481526020016001820160009054906101000a900473ffffffffffffffffffffffffffffffffffffffff1673ffffffffffffffffffffffffffffffffffffffff1673ffffffffffffffffffffffffffffffffffffffff1681526020016002820160009054906101000a900473ffffffffffffffffffffffffffffffffffffffff1673ffffffffffffffffffffffffffffffffffffffff1673ffffffffffffffffffffffffffffffffffffffff1681526020016003820160009054906101000a900473ffffffffffffffffffffffffffffffffffffffff1673ffffffffffffffffffffffffffffffffffffffff1673ffffffffffffffffffffffffffffffffffffffff168152602001600482015481526020016005820160009054906101000a900460ff161515151581526020016005820160019054906101000a900460ff161515151581526020016005820160029054906101000a900460ff161515151581526020016006820154815260200160078201548152602001600882015481526020016009820154815250508484815181106123e7576123e661403e565b5b602002602001018190525082806123fd9061409c565b9350505b50808061240d9061409c565b915050612199565b5081935050505090565b600260009054906101000a900473ffffffffffffffffffffffffffffffffffffffff1681565b600460009054906101000a900473ffffffffffffffffffffffffffffffffffffffff1681565b6124736132bf565b6007600082815260200190815260200160002060009054906101000a900460ff166124d3576040517f08c379a00000000000000000000000000000000000000000000000000000000081526004016124ca90613efa565b60405180910390fd5b6006600082815260200190815260200160002060050160019054906101000a900460ff16612536576040517f08c379a000000000000000000000000000000000000000000000000000000000815260040161252d90613f8c565b60405180910390fd5b3373ffffffffffffffffffffffffffffffffffffffff166006600083815260200190815260200160002060030160009054906101000a900473ffffffffffffffffffffffffffffffffffffffff1673ffffffffffffffffffffffffffffffffffffffff16146125da576040517f08c379a00000000000000000000000000000000000000000000000000000000081526004016125d190614a36565b60405180910390fd5b600073ffffffffffffffffffffffffffffffffffffffff166006600083815260200190815260200160002060030160009054906101000a900473ffffffffffffffffffffffffffffffffffffffff1673ffffffffffffffffffffffffffffffffffffffff160361267f576040517f08c379a000000000000000000000000000000000000000000000000000000000815260040161267690614aa2565b60405180910390fd5b60006006600083815260200190815260200160002060040154905060006006600084815260200190815260200160002060020160009054906101000a900473ffffffffffffffffffffffffffffffffffffffff16905060006006600085815260200190815260200160002060010160009054906101000a900473ffffffffffffffffffffffffffffffffffffffff16905060006006600086815260200190815260200160002060050160016101000a81548160ff02191690831515021790555060016006600086815260200190815260200160002060050160006101000a81548160ff02191690831515021790555060006006600086815260200190815260200160002060050160026101000a81548160ff0219169083151502179055506127a68461330e565b600b84908060018154018082558091505060019003906000526020600020016000909190919091505560005b6009600086815260200190815260200160002080549050811015612922573373ffffffffffffffffffffffffffffffffffffffff1660096000878152602001908152602001600020828154811061282c5761282b61403e565b5b906000526020600020906004020160000160009054906101000a900473ffffffffffffffffffffffffffffffffffffffff1673ffffffffffffffffffffffffffffffffffffffff161480156128b65750836009600087815260200190815260200160002082815481106128a2576128a161403e565b5b906000526020600020906004020160010154145b1561290f5760016009600087815260200190815260200160002082815481106128e2576128e161403e565b5b906000526020600020906004020160030160016101000a81548160ff021916908315150217905550612922565b808061291a9061409c565b9150506127d2565b5060006064600354856129359190614ac2565b61293f9190614b33565b90506000818561294f91906141d9565b9050600460009054906101000a900473ffffffffffffffffffffffffffffffffffffffff1673ffffffffffffffffffffffffffffffffffffffff16636352211e876040518263ffffffff1660e01b81526004016129ac9190613874565b602060405180830381865afa9250505080156129e657506040513d601f19601f820116820180604052508101906129e3919061470f565b60015b612a25576040517f08c379a0000000000000000000000000000000000000000000000000000000008152600401612a1c90614bd6565b60405180910390fd5b3073ffffffffffffffffffffffffffffffffffffffff168173ffffffffffffffffffffffffffffffffffffffff1614612a93576040517f08c379a0000000000000000000000000000000000000000000000000000000008152600401612a8a90614c68565b60405180910390fd5b50600460009054906101000a900473ffffffffffffffffffffffffffffffffffffffff1673ffffffffffffffffffffffffffffffffffffffff166323b872dd3033896040518463ffffffff1660e01b8152600401612af3939291906140e4565b600060405180830381600087803b158015612b0d57600080fd5b505af1925050508015612b1e575060015b612c6c5760016006600088815260200190815260200160002060050160016101000a81548160ff02191690831515021790555060006006600088815260200190815260200160002060050160006101000a81548160ff02191690831515021790555060016006600088815260200190815260200160002060050160026101000a81548160ff0219169083151502179055506000805b600a80549050811015612c015787600a8281548110612bd557612bd461403e565b5b906000526020600020015403612bee5760019150612c01565b8080612bf99061409c565b915050612bb3565b5080612c3157600a8790806001815401808255809150506001900390600052602060002001600090919091909150555b6040517f08c379a0000000000000000000000000000000000000000000000000000000008152600401612c6390614167565b60405180910390fd5b336006600088815260200190815260200160002060010160006101000a81548173ffffffffffffffffffffffffffffffffffffffff021916908373ffffffffffffffffffffffffffffffffffffffff160217905550600460009054906101000a900473ffffffffffffffffffffffffffffffffffffffff1673ffffffffffffffffffffffffffffffffffffffff16637192711f87336040518363ffffffff1660e01b8152600401612d1e929190614187565b600060405180830381600087803b158015612d3857600080fd5b505af1158015612d4c573d6000803e3d6000fd5b50505050600460009054906101000a900473ffffffffffffffffffffffffffffffffffffffff1673ffffffffffffffffffffffffffffffffffffffff166382367b2d87876040518363ffffffff1660e01b8152600401612dad929190614c88565b600060405180830381600087803b158015612dc757600080fd5b505af1158015612ddb573d6000803e3d6000fd5b5050505060008473ffffffffffffffffffffffffffffffffffffffff1682604051612e0590614500565b60006040518083038185875af1925050503d8060008114612e42576040519150601f19603f3d011682016040523d82523d6000602084013e612e47565b606091505b5050905080612e8b576040517f08c379a0000000000000000000000000000000000000000000000000000000008152600401612e8290614cfd565b60405180910390fd5b600083118015612ec85750600073ffffffffffffffffffffffffffffffffffffffff168473ffffffffffffffffffffffffffffffffffffffff1614155b15612f7b5760008473ffffffffffffffffffffffffffffffffffffffff1684604051612ef390614500565b60006040518083038185875af1925050503d8060008114612f30576040519150601f19603f3d011682016040523d82523d6000602084013e612f35565b606091505b5050905080612f79576040517f08c379a0000000000000000000000000000000000000000000000000000000008152600401612f7090614d69565b60405180910390fd5b505b7fd2aa34a4fdbbc6dff6a3e56f46e0f3ae2a31d7785ff3487aa5c95c642acea501873388604051612fae93929190614581565b60405180910390a1505050505050612fc46133d9565b50565b60076020528060005260406000206000915054906101000a900460ff1681565b6009602052816000526040600020818154811061300357600080fd5b9060005260206000209060040201600091509150508060000160009054906101000a900473ffffffffffffffffffffffffffffffffffffffff16908060010154908060020154908060030160009054906101000a900460ff16908060030160019054906101000a900460ff16905085565b61307c61342c565b6007600083815260200190815260200160002060009054906101000a900460ff166130dc576040517f08c379a00000000000000000000000000000000000000000000000000000000081526004016130d390613efa565b60405180910390fd5b6006600083815260200190815260200160002060405180610180016040529081600082015481526020016001820160009054906101000a900473ffffffffffffffffffffffffffffffffffffffff1673ffffffffffffffffffffffffffffffffffffffff1673ffffffffffffffffffffffffffffffffffffffff1681526020016002820160009054906101000a900473ffffffffffffffffffffffffffffffffffffffff1673ffffffffffffffffffffffffffffffffffffffff1673ffffffffffffffffffffffffffffffffffffffff1681526020016003820160009054906101000a900473ffffffffffffffffffffffffffffffffffffffff1673ffffffffffffffffffffffffffffffffffffffff1673ffffffffffffffffffffffffffffffffffffffff168152602001600482015481526020016005820160009054906101000a900460ff161515151581526020016005820160019054906101000a900460ff161515151581526020016005820160029054906101000a900460ff161515151581526020016006820154815260200160078201548152602001600882015481526020016009820154815250509050919050565b6008818051602081018201805184825260208301602085012081835280955050505050506000915090505481565b600260005403613304576040517f08c379a00000000000000000000000000000000000000000000000000000000081526004016132fb90614dd5565b60405180910390fd5b6002600081905550565b60005b600a805490508110156133d55781600a82815481106133335761333261403e565b5b9060005260206000200154036133c257600a6001600a8054905061335791906141d9565b815481106133685761336761403e565b5b9060005260206000200154600a82815481106133875761338661403e565b5b9060005260206000200181905550600a8054806133a7576133a6614df5565b5b600190038181906000526020600020016000905590556133d5565b80806133cd9061409c565b915050613311565b5050565b6001600081905550565b6040518060a00160405280600073ffffffffffffffffffffffffffffffffffffffff16815260200160008152602001600081526020016000151581526020016000151581525090565b60405180610180016040528060008152602001600073ffffffffffffffffffffffffffffffffffffffff168152602001600073ffffffffffffffffffffffffffffffffffffffff168152602001600073ffffffffffffffffffffffffffffffffffffffff16815260200160008152602001600015158152602001600015158152602001600015158152602001600081526020016000815260200160008152602001600081525090565b6000604051905090565b600080fd5b600080fd5b6000819050919050565b6134fc816134e9565b811461350757600080fd5b50565b600081359050613519816134f3565b92915050565b600060208284031215613535576135346134df565b5b60006135438482850161350a565b91505092915050565b613555816134e9565b82525050565b600073ffffffffffffffffffffffffffffffffffffffff82169050919050565b60006135868261355b565b9050919050565b6135968161357b565b82525050565b60006135a78261355b565b9050919050565b6135b78161359c565b82525050565b60008115159050919050565b6135d2816135bd565b82525050565b6000610180820190506135ee600083018f61354c565b6135fb602083018e61358d565b613608604083018d61358d565b613615606083018c6135ae565b613622608083018b61354c565b61362f60a083018a6135c9565b61363c60c08301896135c9565b61364960e08301886135c9565b61365761010083018761354c565b61366561012083018661354c565b61367361014083018561354c565b61368161016083018461354c565b9d9c50505050505050505050505050565b600081519050919050565b600082825260208201905092915050565b6000819050602082019050919050565b6136c78161359c565b82525050565b6136d6816134e9565b82525050565b6136e5816135bd565b82525050565b60a08201600082015161370160008501826136be565b50602082015161371460208501826136cd565b50604082015161372760408501826136cd565b50606082015161373a60608501826136dc565b50608082015161374d60808501826136dc565b50505050565b600061375f83836136eb565b60a08301905092915050565b6000602082019050919050565b600061378382613692565b61378d818561369d565b9350613798836136ae565b8060005b838110156137c95781516137b08882613753565b97506137bb8361376b565b92505060018101905061379c565b5085935050505092915050565b600060208201905081810360008301526137f08184613778565b905092915050565b600060c08201905061380d60008301896135c9565b61381a60208301886135c9565b613827604083018761354c565b61383460608301866135ae565b613841608083018561354c565b61384e60a083018461354c565b979650505050505050565b600060208201905061386e600083018461358d565b92915050565b6000602082019050613889600083018461354c565b92915050565b600081519050919050565b600082825260208201905092915050565b6000819050602082019050919050565b6138c48161357b565b82525050565b610180820160008201516138e160008501826136cd565b5060208201516138f460208501826138bb565b50604082015161390760408501826138bb565b50606082015161391a60608501826136be565b50608082015161392d60808501826136cd565b5060a082015161394060a08501826136dc565b5060c082015161395360c08501826136dc565b5060e082015161396660e08501826136dc565b5061010082015161397b6101008501826136cd565b506101208201516139906101208501826136cd565b506101408201516139a56101408501826136cd565b506101608201516139ba6101608501826136cd565b50505050565b60006139cc83836138ca565b6101808301905092915050565b6000602082019050919050565b60006139f18261388f565b6139fb818561389a565b9350613a06836138ab565b8060005b83811015613a37578151613a1e88826139c0565b9750613a29836139d9565b925050600181019050613a0a565b5085935050505092915050565b60006020820190508181036000830152613a5e81846139e6565b905092915050565b600080600060608486031215613a7f57613a7e6134df565b5b6000613a8d8682870161350a565b9350506020613a9e8682870161350a565b9250506040613aaf8682870161350a565b9150509250925092565b6000602082019050613ace60008301846135ae565b92915050565b6000819050919050565b6000613af9613af4613aef8461355b565b613ad4565b61355b565b9050919050565b6000613b0b82613ade565b9050919050565b6000613b1d82613b00565b9050919050565b613b2d81613b12565b82525050565b6000602082019050613b486000830184613b24565b92915050565b6000602082019050613b6360008301846135c9565b92915050565b60008060408385031215613b8057613b7f6134df565b5b6000613b8e8582860161350a565b9250506020613b9f8582860161350a565b9150509250929050565b600060a082019050613bbe60008301886135ae565b613bcb602083018761354c565b613bd8604083018661354c565b613be560608301856135c9565b613bf260808301846135c9565b9695505050505050565b61018082016000820151613c1360008501826136cd565b506020820151613c2660208501826138bb565b506040820151613c3960408501826138bb565b506060820151613c4c60608501826136be565b506080820151613c5f60808501826136cd565b5060a0820151613c7260a08501826136dc565b5060c0820151613c8560c08501826136dc565b5060e0820151613c9860e08501826136dc565b50610100820151613cad6101008501826136cd565b50610120820151613cc26101208501826136cd565b50610140820151613cd76101408501826136cd565b50610160820151613cec6101608501826136cd565b50505050565b600061018082019050613d086000830184613bfc565b92915050565b600080fd5b600080fd5b6000601f19601f8301169050919050565b7f4e487b7100000000000000000000000000000000000000000000000000000000600052604160045260246000fd5b613d6182613d18565b810181811067ffffffffffffffff82111715613d8057613d7f613d29565b5b80604052505050565b6000613d936134d5565b9050613d9f8282613d58565b919050565b600067ffffffffffffffff821115613dbf57613dbe613d29565b5b613dc882613d18565b9050602081019050919050565b82818337600083830152505050565b6000613df7613df284613da4565b613d89565b905082815260208101848484011115613e1357613e12613d13565b5b613e1e848285613dd5565b509392505050565b600082601f830112613e3b57613e3a613d0e565b5b8135613e4b848260208601613de4565b91505092915050565b600060208284031215613e6a57613e696134df565b5b600082013567ffffffffffffffff811115613e8857613e876134e4565b5b613e9484828501613e26565b91505092915050565b600082825260208201905092915050565b7f41756374696f6e20646f6573206e6f7420657869737400000000000000000000600082015250565b6000613ee4601683613e9d565b9150613eef82613eae565b602082019050919050565b60006020820190508181036000830152613f1381613ed7565b9050919050565b7f41756374696f6e206973206e6f7420616374697665206f7220616c726561647960008201527f20636c61696d6564000000000000000000000000000000000000000000000000602082015250565b6000613f76602883613e9d565b9150613f8182613f1a565b604082019050919050565b60006020820190508181036000830152613fa581613f69565b9050919050565b7f41756374696f6e20686173206269647320616e642063616e6e6f74206265207260008201527f65636c61696d6564000000000000000000000000000000000000000000000000602082015250565b6000614008602883613e9d565b915061401382613fac565b604082019050919050565b6000602082019050818103600083015261403781613ffb565b9050919050565b7f4e487b7100000000000000000000000000000000000000000000000000000000600052603260045260246000fd5b7f4e487b7100000000000000000000000000000000000000000000000000000000600052601160045260246000fd5b60006140a7826134e9565b91507fffffffffffffffffffffffffffffffffffffffffffffffffffffffffffffffff82036140d9576140d861406d565b5b600182019050919050565b60006060820190506140f960008301866135ae565b61410660208301856135ae565b614113604083018461354c565b949350505050565b7f4e4654207472616e73666572206661696c656400000000000000000000000000600082015250565b6000614151601383613e9d565b915061415c8261411b565b602082019050919050565b6000602082019050818103600083015261418081614144565b9050919050565b600060408201905061419c600083018561354c565b6141a960208301846135ae565b9392505050565b60006040820190506141c5600083018561354c565b6141d260208301846135c9565b9392505050565b60006141e4826134e9565b91506141ef836134e9565b92508282039050818111156142075761420661406d565b5b92915050565b7f41756374696f6e206973206e6f74206c69766500000000000000000000000000600082015250565b6000614243601383613e9d565b915061424e8261420d565b602082019050919050565b6000602082019050818103600083015261427281614236565b9050919050565b7f42696464696e67206973206e6f7420616c6c6f77656420666f7220746869732060008201527f61756374696f6e00000000000000000000000000000000000000000000000000602082015250565b60006142d5602783613e9d565b91506142e082614279565b604082019050919050565b60006020820190508181036000830152614304816142c8565b9050919050565b7f41756374696f6e2068617320656e646564000000000000000000000000000000600082015250565b6000614341601183613e9d565b915061434c8261430b565b602082019050919050565b6000602082019050818103600083015261437081614334565b9050919050565b7f53656c6c65722063616e6e6f7420626964206f6e207468656972206f776e206160008201527f756374696f6e0000000000000000000000000000000000000000000000000000602082015250565b60006143d3602683613e9d565b91506143de82614377565b604082019050919050565b60006020820190508181036000830152614402816143c6565b9050919050565b7f426964206d75737420626520686967686572207468616e2063757272656e742060008201527f7072696365000000000000000000000000000000000000000000000000000000602082015250565b6000614465602583613e9d565b915061447082614409565b604082019050919050565b6000602082019050818103600083015261449481614458565b9050919050565b60006144a6826134e9565b91506144b1836134e9565b92508282019050808211156144c9576144c861406d565b5b92915050565b600081905092915050565b50565b60006144ea6000836144cf565b91506144f5826144da565b600082019050919050565b600061450b826144dd565b9150819050919050565b7f4661696c656420746f20726566756e642070726576696f757320626964646572600082015250565b600061454b602083613e9d565b915061455682614515565b602082019050919050565b6000602082019050818103600083015261457a8161453e565b9050919050565b6000606082019050614596600083018661354c565b6145a360208301856135ae565b6145b0604083018461354c565b949350505050565b600080fd5b6000815190506145cc816134f3565b92915050565b6145db8161357b565b81146145e657600080fd5b50565b6000815190506145f8816145d2565b92915050565b614607816135bd565b811461461257600080fd5b50565b600081519050614624816145fe565b92915050565b600060a082840312156146405761463f6145b8565b5b61464a60a0613d89565b9050600061465a848285016145bd565b600083015250602061466e848285016145e9565b6020830152506040614682848285016145e9565b6040830152506060614696848285016145bd565b60608301525060806146aa84828501614615565b60808301525092915050565b600060a082840312156146cc576146cb6134df565b5b60006146da8482850161462a565b91505092915050565b6146ec8161359c565b81146146f757600080fd5b50565b600081519050614709816146e3565b92915050565b600060208284031215614725576147246134df565b5b6000614733848285016146fa565b91505092915050565b7f4e6f7420617574686f72697a656420746f2061756374696f6e2074686973207460008201527f6f6b656e00000000000000000000000000000000000000000000000000000000602082015250565b6000614798602483613e9d565b91506147a38261473c565b604082019050919050565b600060208201905081810360008301526147c78161478b565b9050919050565b7f5072696365206d757374206e6f74206265206e65676174697665000000000000600082015250565b6000614804601a83613e9d565b915061480f826147ce565b602082019050919050565b60006020820190508181036000830152614833816147f7565b9050919050565b7f41756374696f6e206475726174696f6e206d757374206265206772656174657260008201527f207468616e203000000000000000000000000000000000000000000000000000602082015250565b6000614896602783613e9d565b91506148a18261483a565b604082019050919050565b600060208201905081810360008301526148c581614889565b9050919050565b7f546f6b656e20616c72656164792068617320616e20616374697665206175637460008201527f696f6e0000000000000000000000000000000000000000000000000000000000602082015250565b6000614928602383613e9d565b9150614933826148cc565b604082019050919050565b600060208201905081810360008301526149578161491b565b9050919050565b600061496982613b00565b9050919050565b6149798161495e565b82525050565b60006080820190506149946000830187614970565b6149a160208301866135ae565b6149ae604083018561354c565b6149bb60608301846135c9565b95945050505050565b7f596f7520617265206e6f74207468652077696e6e6572206f662074686973206160008201527f756374696f6e0000000000000000000000000000000000000000000000000000602082015250565b6000614a20602683613e9d565b9150614a2b826149c4565b604082019050919050565b60006020820190508181036000830152614a4f81614a13565b9050919050565b7f4e6f2077696e6e657220666f7220746869732061756374696f6e000000000000600082015250565b6000614a8c601a83613e9d565b9150614a9782614a56565b602082019050919050565b60006020820190508181036000830152614abb81614a7f565b9050919050565b6000614acd826134e9565b9150614ad8836134e9565b9250828202614ae6816134e9565b91508282048414831517614afd57614afc61406d565b5b5092915050565b7f4e487b7100000000000000000000000000000000000000000000000000000000600052601260045260246000fd5b6000614b3e826134e9565b9150614b49836134e9565b925082614b5957614b58614b04565b5b828204905092915050565b7f4e4654206f776e65727368697020766572696669636174696f6e206661696c6560008201527f6400000000000000000000000000000000000000000000000000000000000000602082015250565b6000614bc0602183613e9d565b9150614bcb82614b64565b604082019050919050565b60006020820190508181036000830152614bef81614bb3565b9050919050565b7f41756374696f6e20636f6e747261637420646f65736e2774206f776e2074686560008201527f204e465400000000000000000000000000000000000000000000000000000000602082015250565b6000614c52602483613e9d565b9150614c5d82614bf6565b604082019050919050565b60006020820190508181036000830152614c8181614c45565b9050919050565b6000604082019050614c9d600083018561354c565b614caa602083018461354c565b9392505050565b7f4661696c656420746f207061792073656c6c6572000000000000000000000000600082015250565b6000614ce7601483613e9d565b9150614cf282614cb1565b602082019050919050565b60006020820190508181036000830152614d1681614cda565b9050919050565b7f4661696c656420746f2070617920726f79616c74696573000000000000000000600082015250565b6000614d53601783613e9d565b9150614d5e82614d1d565b602082019050919050565b60006020820190508181036000830152614d8281614d46565b9050919050565b7f5265656e7472616e637947756172643a207265656e7472616e742063616c6c00600082015250565b6000614dbf601f83613e9d565b9150614dca82614d89565b602082019050919050565b60006020820190508181036000830152614dee81614db2565b9050919050565b7f4e487b7100000000000000000000000000000000000000000000000000000000600052603160045260246000fdfea2646970667358221220ef13dd56cf0577afe2851bceb6f857b2d9e6e7e510f2db08d82c3dbd6cc679e164736f6c63430008130033",
  "immutableReferences": {},
  "source": "// SPDX-License-Identifier: MIT\npragma solidity 0.8.19;\n\nimport \"@openzeppelin/contracts/token/ERC721/IERC721.sol\";\nimport \"@openzeppelin/contracts/security/ReentrancyGuard.sol\";\nimport \"./NFTAuction.sol\";\n\ncontract Auction is ReentrancyGuard {\n    address payable public owner;\n    address public companyAcc;\n    uint public royaltyFee;\n\n    NFTAuction public nftContract;\n\n    uint private ids;\n\n    mapping(uint => AuctionStruct) public auctionedItem;\n    mapping(uint => bool) public auctionedItemExists;\n    mapping(string => uint) public existingURIs;\n    mapping(uint => BidderStruct[]) public biddersOf;\n    \n    // Track all tokens that have active auctions\n    uint[] private activeAuctionIds;\n    // Track all tokens that have been auctioned\n    uint[] private auctionedTokenIds;\n\n    constructor(address _nftContract) {\n        nftContract = NFTAuction(_nftContract);\n        owner = payable(msg.sender);\n        // We will dynamically track auctions instead of relying on ids variable\n    }\n\n    struct BidderStruct {\n        address bidder;\n        uint bidAmount;\n        uint timestamp;\n        bool refunded;\n        bool won;\n    }\n\n    struct AuctionStruct {\n        uint tokenId;\n        address payable owner;\n        address payable seller;\n        address winner;\n        uint price;\n        bool sold;\n        bool live;\n        bool biddable;\n        uint bids;\n        uint duration;\n        uint endTime;  // Added endTime field to track when the auction ends\n        uint auctionId; // Unique identifier for the auction\n    }\n\n    event AuctionItemCreated(\n        uint indexed tokenId,\n        address seller,\n        address owner,\n        uint price,\n        bool sold\n    );\n\n    function createAuction(\n        uint tokenId,\n        uint price,\n        uint duration\n    ) public nonReentrant {\n        // get token info from NFTAuction contract\n        NFTAuction.ListedToken memory tokenInfo = nftContract.getListedTokenForId(tokenId);\n\n        // Check if token is currently listed in NFTAuction\n        // require(tokenInfo.currentlyListed, \"Token is not listed for sale\");\n        \n        // Check if caller is the seller or the owner of the NFTAuction contract\n        require(\n            tokenInfo.seller == msg.sender || \n            msg.sender == address(nftContract) ||\n            nftContract.getApproved(tokenId) == address(this),\n            \"Not authorized to auction this token\"\n        );\n        \n        require(price > 0 ether, \"Price must not be negative\");\n        require(duration > 0, \"Auction duration must be greater than 0\");\n        \n        // Check if this token already has an active auction\n        require(!auctionedItemExists[tokenId] || !auctionedItem[tokenId].live, \n                \"Token already has an active auction\");\n\n        AuctionStruct memory item;\n        item.tokenId = tokenId;\n        item.seller = payable(tokenInfo.seller);\n        item.owner = payable(address(nftContract));\n        item.price = price;\n        item.duration = duration;\n        item.endTime = block.timestamp + duration;\n        item.auctionId = tokenId;  // Using tokenId as the auctionId for simplicity\n\n        auctionedItem[tokenId] = item;\n        auctionedItemExists[tokenId] = true;\n\n        // Check if the auction is not already live\n        if(!auctionedItem[tokenId].live) {\n            // Transfer the token to this contract\n            IERC721(address(nftContract)).transferFrom(\n                address(nftContract),\n                address(this),\n                tokenId\n            );\n            \n            auctionedItem[tokenId].bids = 0;\n            auctionedItem[tokenId].live = true;\n            auctionedItem[tokenId].biddable = true;\n            \n            // Add to active auctions list\n            activeAuctionIds.push(tokenId);\n        }\n\n        emit AuctionItemCreated(\n            tokenId,\n            tokenInfo.seller,\n            address(nftContract),\n            price,\n            false\n        );\n    }\n\n    function placeBid(uint tokenId) public payable nonReentrant {\n        require(auctionedItemExists[tokenId], \"Auction does not exist\");\n        require(auctionedItem[tokenId].live, \"Auction is not live\");\n        require(auctionedItem[tokenId].biddable, \"Bidding is not allowed for this auction\");\n        require(block.timestamp < auctionedItem[tokenId].endTime, \"Auction has ended\");\n        require(msg.sender != auctionedItem[tokenId].seller, \"Seller cannot bid on their own auction\");\n        require(msg.value > auctionedItem[tokenId].price, \"Bid must be higher than current price\");\n\n        // Store the previous highest bidder to refund them\n        address previousBidder = auctionedItem[tokenId].winner;\n        uint previousBid = auctionedItem[tokenId].price;\n\n        // Create and store the new bid\n        BidderStruct memory bidder;\n        bidder.bidder = msg.sender;\n        bidder.bidAmount = msg.value;\n        bidder.timestamp = block.timestamp;\n        bidder.refunded = false;\n        bidder.won = false;\n\n        biddersOf[tokenId].push(bidder);\n        \n        // Update auction details\n        auctionedItem[tokenId].bids += 1;\n        auctionedItem[tokenId].price = msg.value;\n        auctionedItem[tokenId].winner = msg.sender;\n        \n        // If there was a previous bidder, refund them\n        if (previousBidder != address(0) && previousBid > 0) {\n            // Find the previous bidder in the array and mark as refunded\n            for (uint i = 0; i < biddersOf[tokenId].length - 1; i++) {\n                if (biddersOf[tokenId][i].bidder == previousBidder && \n                    biddersOf[tokenId][i].bidAmount == previousBid &&\n                    !biddersOf[tokenId][i].refunded) {\n                    biddersOf[tokenId][i].refunded = true;\n                    break;\n                }\n            }\n            \n            // Refund the previous bidder\n            (bool success, ) = payable(previousBidder).call{value: previousBid}(\"\");\n            require(success, \"Failed to refund previous bidder\");\n        }\n        \n        // Extend auction time if bid is placed in the last 5 minutes (anti-sniping)\n        // if (auctionedItem[tokenId].endTime - block.timestamp < 5 minutes) {\n        //     auctionedItem[tokenId].endTime += 5 minutes;\n        // }\n        \n        emit NewBid(tokenId, msg.sender, msg.value);\n    }\n\n    // claimPrize function to finalize the auction and transfer the NFT to the winner\n    function claimPrize(uint tokenId) public nonReentrant {\n        require(auctionedItemExists[tokenId], \"Auction does not exist\");\n        // require(block.timestamp > auctionedItem[tokenId].endTime, \"Auction is still live\");\n        require(auctionedItem[tokenId].live, \"Auction is not active or already claimed\");\n        require(auctionedItem[tokenId].winner == msg.sender, \"You are not the winner of this auction\");\n        require(auctionedItem[tokenId].winner != address(0), \"No winner for this auction\");\n\n        // Get auction details before updating state\n        uint price = auctionedItem[tokenId].price;\n        address payable seller = auctionedItem[tokenId].seller;\n        address payable originalOwner = auctionedItem[tokenId].owner;\n        \n        // Update state before external calls to prevent reentrancy\n        auctionedItem[tokenId].live = false;\n        auctionedItem[tokenId].sold = true;\n        auctionedItem[tokenId].biddable = false;\n        \n        // Remove from active auctions list\n        removeFromActiveAuctions(tokenId);\n        // Add to auctioned token IDs list\n        // This is to keep track of all auctioned tokens, even if they are not live anymore\n        auctionedTokenIds.push(tokenId);\n        \n        // Mark the winning bid\n        for (uint i = 0; i < biddersOf[tokenId].length; i++) {\n            if (biddersOf[tokenId][i].bidder == msg.sender && \n                biddersOf[tokenId][i].bidAmount == price) {\n                biddersOf[tokenId][i].won = true;\n                break;\n            }\n        }\n        \n        // Calculate royalties\n        uint royalty = (price * royaltyFee) / 100;\n        uint sellerAmount = price - royalty;\n\n        // Verify NFT ownership and approval\n        try IERC721(address(nftContract)).ownerOf(tokenId) returns (address currentOwner) {\n            require(currentOwner == address(this), \"Auction contract doesn't own the NFT\");\n        } catch {\n            revert(\"NFT ownership verification failed\");\n        }\n\n        // Transfer the NFT to the winner\n        try IERC721(address(nftContract)).transferFrom(address(this), msg.sender, tokenId) {\n            // Update auction owner to winner\n            auctionedItem[tokenId].owner = payable(msg.sender);\n            // Update the NFTAuction contract with the new owner\n            nftContract.updateOwner(tokenId, msg.sender);\n            // Update the NFTAuction contract with the new price\n            nftContract.updatePrice(tokenId, price);\n            \n            // Send payments\n            (bool successSeller, ) = seller.call{value: sellerAmount}(\"\");\n            require(successSeller, \"Failed to pay seller\");\n            \n            if (royalty > 0 && originalOwner != address(0)) {\n                (bool successRoyalty, ) = originalOwner.call{value: royalty}(\"\");\n                require(successRoyalty, \"Failed to pay royalties\");\n            }\n            \n            emit AuctionEnded(tokenId, msg.sender, price);\n        } catch {\n            // Revert the state changes if the transfer fails\n            auctionedItem[tokenId].live = true;\n            auctionedItem[tokenId].sold = false;\n            auctionedItem[tokenId].biddable = true;\n            \n            // Add back to active auctions if needed\n            bool found = false;\n            for (uint i = 0; i < activeAuctionIds.length; i++) {\n                if (activeAuctionIds[i] == tokenId) {\n                    found = true;\n                    break;\n                }\n            }\n            if (!found) {\n                activeAuctionIds.push(tokenId);\n            }\n            \n            revert(\"NFT transfer failed\");\n        }\n    }\n\n    // Helper function to get the current timestamp\n    function getAuctionStatus(uint tokenId) public view returns (\n        bool isLive,\n        bool isSold,\n        uint currentPrice,\n        address currentWinner,\n        uint timeRemaining,\n        uint totalBids\n    ) {\n        require(auctionedItemExists[tokenId], \"Auction does not exist\");\n        \n        AuctionStruct storage auction = auctionedItem[tokenId];\n        \n        isLive = auction.live;\n        isSold = auction.sold;\n        currentPrice = auction.price;\n        currentWinner = auction.winner;\n        timeRemaining = block.timestamp >= auction.endTime ? 0 : auction.endTime - block.timestamp;\n        totalBids = auction.bids;\n    }\n\n    // Events for tracking auction activity\n    event NewBid(uint tokenId, address bidder, uint amount);\n    event AuctionEnded(uint tokenId, address winner, uint finalPrice);\n\n    // Helper function to remove an auction from active auctions array\n    function removeFromActiveAuctions(uint tokenId) internal {\n        for (uint i = 0; i < activeAuctionIds.length; i++) {\n            if (activeAuctionIds[i] == tokenId) {\n                // Move the last element to this position and pop the last element\n                activeAuctionIds[i] = activeAuctionIds[activeAuctionIds.length - 1];\n                activeAuctionIds.pop();\n                break;\n            }\n        }\n    }\n\n    // Update getActiveAuctions to use the activeAuctionIds array\n    function getActiveAuctions() public view returns (AuctionStruct[] memory) {\n        uint count = 0;\n        \n        // Count actual live auctions (some might have expired but not yet claimed)\n        for (uint i = 0; i < activeAuctionIds.length; i++) {\n            uint tokenId = activeAuctionIds[i];\n            if (auctionedItemExists[tokenId] && auctionedItem[tokenId].live) {\n                count++;\n            }\n        }\n        \n        AuctionStruct[] memory ret = new AuctionStruct[](count);\n        uint j = 0;\n        \n        // Populate the array with active auctions\n        for (uint i = 0; i < activeAuctionIds.length && j < count; i++) {\n            uint tokenId = activeAuctionIds[i];\n            if (auctionedItemExists[tokenId] && auctionedItem[tokenId].live) {\n                ret[j] = auctionedItem[tokenId];\n                j++;\n            }\n        }\n        \n        return ret;\n    }\n\n    // get specific auction details\n    function getAuctionDetails(uint tokenId) public view returns (AuctionStruct memory) {\n        require(auctionedItemExists[tokenId], \"Auction does not exist\");\n        return auctionedItem[tokenId];\n    }\n\n    // get all bidders for a specific auction\n    function getBidders(uint tokenId) public view returns (BidderStruct[] memory) {\n        require(auctionedItemExists[tokenId], \"Auction does not exist\");\n        return biddersOf[tokenId];\n    }\n\n    // get all completed auctions\n    function getCompletedAuctions() public view returns (AuctionStruct[] memory) {\n        uint count = 0;\n        \n        // First, count completed auctions\n        for (uint i = 0; i < auctionedTokenIds.length; i++) {\n            uint tokenId = auctionedTokenIds[i];\n            if (auctionedItemExists[tokenId] && auctionedItem[tokenId].sold) {\n                count++;\n            }\n        }\n        \n        AuctionStruct[] memory ret = new AuctionStruct[](count);\n        uint j = 0;\n        \n        // Populate array with completed auctions\n        for (uint i = 0; i < auctionedTokenIds.length && j < count; i++) {\n            uint tokenId = auctionedTokenIds[i];\n            if (auctionedItemExists[tokenId] && auctionedItem[tokenId].sold) {\n                ret[j] = auctionedItem[tokenId];\n                j++;\n            }\n        }\n        \n        return ret;\n    }\n\n    //Reclaim auction if it has ended and not claimed\n    function reclaimAuction(uint tokenId) public nonReentrant {\n        require(auctionedItemExists[tokenId], \"Auction does not exist\");\n        require(auctionedItem[tokenId].live, \"Auction is not active or already claimed\");\n        \n        // Check if caller is the seller\n        // require(msg.sender == auctionedItem[tokenId].seller, \"Only the seller can reclaim an auction\");\n        \n        // Check if auction has ended (time-wise)\n        // require(block.timestamp > auctionedItem[tokenId].endTime, \"Auction has not ended yet\");\n        \n        // Check if there were no bids (winner will be address(0))\n        require(auctionedItem[tokenId].winner == address(0), \"Auction has bids and cannot be reclaimed\");\n        \n        // Update state before transfers to prevent reentrancy\n        auctionedItem[tokenId].live = false;\n        auctionedItem[tokenId].sold = false;\n        auctionedItem[tokenId].biddable = false;\n        \n        // Remove from active auctions list\n        removeFromActiveAuctions(tokenId);\n        \n        // Add to auctioned token IDs list if it's not already there\n        bool found = false;\n        for (uint i = 0; i < auctionedTokenIds.length; i++) {\n            if (auctionedTokenIds[i] == tokenId) {\n                found = true;\n                break;\n            }\n        }\n        if (!found) {\n            auctionedTokenIds.push(tokenId);\n        }\n        \n        // Transfer the NFT back to the seller\n        try IERC721(address(nftContract)).transferFrom(address(this), msg.sender, tokenId) {\n            // Update owner in the NFT contract\n            nftContract.updateOwner(tokenId, msg.sender);\n            \n            // Keep it listed so it shows in \"My Deeds\"\n            nftContract.setTokenListed(tokenId, true);\n            \n        } catch {\n            // Revert state changes if transfer fails\n            auctionedItem[tokenId].live = true;\n            auctionedItem[tokenId].sold = false;\n            auctionedItem[tokenId].biddable = true;\n            \n            // Add back to active auctions if needed\n            bool isActive = false;\n            for (uint i = 0; i < activeAuctionIds.length; i++) {\n                if (activeAuctionIds[i] == tokenId) {\n                    isActive = true;\n                    break;\n                }\n            }\n            if (!isActive) {\n                activeAuctionIds.push(tokenId);\n            }\n            \n            revert(\"NFT transfer failed\");\n        }\n    }\n}\n\n",
  "sourcePath": "/Users/janyajaiswal/Auction-DApp/contracts/Auction.sol",
  "compiler": {
    "name": "solc",
    "version": "0.8.19+commit.7dd6d404.Emscripten.clang"
  },
  "schemaVersion": "3.4.4",
  "updatedAt": "2025-12-06T00:04:29.959Z",
  "networkType": "ethereum",
  "devdoc": {
    "kind": "dev",
    "methods": {},
    "version": 1
  },
  "userdoc": {
    "kind": "user",
    "methods": {},
    "version": 1
  }
}