{
  "contractName": "NFTAuction",
  "abi": [
    {
      "inputs": [],
      "stateMutability": "nonpayable",
      "type": "constructor"
    },
    {
      "anonymous": false,
      "inputs": [
        {
          "indexed": true,
          "internalType": "address",
          "name": "owner",
          "type": "address"
        },
        {
          "indexed": true,
          "internalType": "address",
          "name": "approved",
          "type": "address"
        },
        {
          "indexed": true,
          "internalType": "uint256",
          "name": "tokenId",
          "type": "uint256"
        }
      ],
      "name": "Approval",
      "type": "event"
    },
    {
      "anonymous": false,
      "inputs": [
        {
          "indexed": true,
          "internalType": "address",
          "name": "owner",
          "type": "address"
        },
        {
          "indexed": true,
          "internalType": "address",
          "name": "operator",
          "type": "address"
        },
        {
          "indexed": false,
          "internalType": "bool",
          "name": "approved",
          "type": "bool"
        }
      ],
      "name": "ApprovalForAll",
      "type": "event"
    },
    {
      "anonymous": false,
      "inputs": [
        {
          "indexed": false,
          "internalType": "uint256",
          "name": "_fromTokenId",
          "type": "uint256"
        },
        {
          "indexed": false,
          "internalType": "uint256",
          "name": "_toTokenId",
          "type": "uint256"
        }
      ],
      "name": "BatchMetadataUpdate",
      "type": "event"
    },
    {
      "anonymous": false,
      "inputs": [
        {
          "indexed": false,
          "internalType": "uint256",
          "name": "_tokenId",
          "type": "uint256"
        }
      ],
      "name": "MetadataUpdate",
      "type": "event"
    },
    {
      "anonymous": false,
      "inputs": [
        {
          "indexed": true,
          "internalType": "address",
          "name": "from",
          "type": "address"
        },
        {
          "indexed": true,
          "internalType": "address",
          "name": "to",
          "type": "address"
        },
        {
          "indexed": true,
          "internalType": "uint256",
          "name": "tokenId",
          "type": "uint256"
        }
      ],
      "name": "Transfer",
      "type": "event"
    },
    {
      "inputs": [
        {
          "internalType": "address",
          "name": "to",
          "type": "address"
        },
        {
          "internalType": "uint256",
          "name": "tokenId",
          "type": "uint256"
        }
      ],
      "name": "approve",
      "outputs": [],
      "stateMutability": "nonpayable",
      "type": "function"
    },
    {
      "inputs": [
        {
          "internalType": "address",
          "name": "owner",
          "type": "address"
        }
      ],
      "name": "balanceOf",
      "outputs": [
        {
          "internalType": "uint256",
          "name": "",
          "type": "uint256"
        }
      ],
      "stateMutability": "view",
      "type": "function",
      "constant": true
    },
    {
      "inputs": [
        {
          "internalType": "uint256",
          "name": "tokenId",
          "type": "uint256"
        }
      ],
      "name": "getApproved",
      "outputs": [
        {
          "internalType": "address",
          "name": "",
          "type": "address"
        }
      ],
      "stateMutability": "view",
      "type": "function",
      "constant": true
    },
    {
      "inputs": [
        {
          "internalType": "address",
          "name": "owner",
          "type": "address"
        },
        {
          "internalType": "address",
          "name": "operator",
          "type": "address"
        }
      ],
      "name": "isApprovedForAll",
      "outputs": [
        {
          "internalType": "bool",
          "name": "",
          "type": "bool"
        }
      ],
      "stateMutability": "view",
      "type": "function",
      "constant": true
    },
    {
      "inputs": [],
      "name": "name",
      "outputs": [
        {
          "internalType": "string",
          "name": "",
          "type": "string"
        }
      ],
      "stateMutability": "view",
      "type": "function",
      "constant": true
    },
    {
      "inputs": [
        {
          "internalType": "uint256",
          "name": "tokenId",
          "type": "uint256"
        }
      ],
      "name": "ownerOf",
      "outputs": [
        {
          "internalType": "address",
          "name": "",
          "type": "address"
        }
      ],
      "stateMutability": "view",
      "type": "function",
      "constant": true
    },
    {
      "inputs": [
        {
          "internalType": "address",
          "name": "from",
          "type": "address"
        },
        {
          "internalType": "address",
          "name": "to",
          "type": "address"
        },
        {
          "internalType": "uint256",
          "name": "tokenId",
          "type": "uint256"
        }
      ],
      "name": "safeTransferFrom",
      "outputs": [],
      "stateMutability": "nonpayable",
      "type": "function"
    },
    {
      "inputs": [
        {
          "internalType": "address",
          "name": "from",
          "type": "address"
        },
        {
          "internalType": "address",
          "name": "to",
          "type": "address"
        },
        {
          "internalType": "uint256",
          "name": "tokenId",
          "type": "uint256"
        },
        {
          "internalType": "bytes",
          "name": "data",
          "type": "bytes"
        }
      ],
      "name": "safeTransferFrom",
      "outputs": [],
      "stateMutability": "nonpayable",
      "type": "function"
    },
    {
      "inputs": [
        {
          "internalType": "address",
          "name": "operator",
          "type": "address"
        },
        {
          "internalType": "bool",
          "name": "approved",
          "type": "bool"
        }
      ],
      "name": "setApprovalForAll",
      "outputs": [],
      "stateMutability": "nonpayable",
      "type": "function"
    },
    {
      "inputs": [
        {
          "internalType": "bytes4",
          "name": "interfaceId",
          "type": "bytes4"
        }
      ],
      "name": "supportsInterface",
      "outputs": [
        {
          "internalType": "bool",
          "name": "",
          "type": "bool"
        }
      ],
      "stateMutability": "view",
      "type": "function",
      "constant": true
    },
    {
      "inputs": [],
      "name": "symbol",
      "outputs": [
        {
          "internalType": "string",
          "name": "",
          "type": "string"
        }
      ],
      "stateMutability": "view",
      "type": "function",
      "constant": true
    },
    {
      "inputs": [
        {
          "internalType": "uint256",
          "name": "tokenId",
          "type": "uint256"
        }
      ],
      "name": "tokenURI",
      "outputs": [
        {
          "internalType": "string",
          "name": "",
          "type": "string"
        }
      ],
      "stateMutability": "view",
      "type": "function",
      "constant": true
    },
    {
      "inputs": [
        {
          "internalType": "address",
          "name": "from",
          "type": "address"
        },
        {
          "internalType": "address",
          "name": "to",
          "type": "address"
        },
        {
          "internalType": "uint256",
          "name": "tokenId",
          "type": "uint256"
        }
      ],
      "name": "transferFrom",
      "outputs": [],
      "stateMutability": "nonpayable",
      "type": "function"
    },
    {
      "inputs": [
        {
          "internalType": "uint256",
          "name": "_listPrice",
          "type": "uint256"
        }
      ],
      "name": "updateListPrice",
      "outputs": [],
      "stateMutability": "payable",
      "type": "function",
      "payable": true
    },
    {
      "inputs": [],
      "name": "getListPrice",
      "outputs": [
        {
          "internalType": "uint256",
          "name": "",
          "type": "uint256"
        }
      ],
      "stateMutability": "view",
      "type": "function",
      "constant": true
    },
    {
      "inputs": [],
      "name": "getLatestIdToListedToken",
      "outputs": [
        {
          "components": [
            {
              "internalType": "uint256",
              "name": "tokenId",
              "type": "uint256"
            },
            {
              "internalType": "address payable",
              "name": "owner",
              "type": "address"
            },
            {
              "internalType": "address payable",
              "name": "seller",
              "type": "address"
            },
            {
              "internalType": "uint256",
              "name": "price",
              "type": "uint256"
            },
            {
              "internalType": "bool",
              "name": "currentlyListed",
              "type": "bool"
            }
          ],
          "internalType": "struct NFTAuction.ListedToken",
          "name": "",
          "type": "tuple"
        }
      ],
      "stateMutability": "view",
      "type": "function",
      "constant": true
    },
    {
      "inputs": [
        {
          "internalType": "uint256",
          "name": "tokenId",
          "type": "uint256"
        }
      ],
      "name": "getListedTokenForId",
      "outputs": [
        {
          "components": [
            {
              "internalType": "uint256",
              "name": "tokenId",
              "type": "uint256"
            },
            {
              "internalType": "address payable",
              "name": "owner",
              "type": "address"
            },
            {
              "internalType": "address payable",
              "name": "seller",
              "type": "address"
            },
            {
              "internalType": "uint256",
              "name": "price",
              "type": "uint256"
            },
            {
              "internalType": "bool",
              "name": "currentlyListed",
              "type": "bool"
            }
          ],
          "internalType": "struct NFTAuction.ListedToken",
          "name": "",
          "type": "tuple"
        }
      ],
      "stateMutability": "view",
      "type": "function",
      "constant": true
    },
    {
      "inputs": [],
      "name": "getCurrentToken",
      "outputs": [
        {
          "internalType": "uint256",
          "name": "",
          "type": "uint256"
        }
      ],
      "stateMutability": "view",
      "type": "function",
      "constant": true
    },
    {
      "inputs": [
        {
          "internalType": "string",
          "name": "tokenURI",
          "type": "string"
        },
        {
          "internalType": "uint256",
          "name": "price",
          "type": "uint256"
        }
      ],
      "name": "createToken",
      "outputs": [
        {
          "internalType": "uint256",
          "name": "",
          "type": "uint256"
        }
      ],
      "stateMutability": "nonpayable",
      "type": "function"
    },
    {
      "inputs": [],
      "name": "getAllNFTs",
      "outputs": [
        {
          "components": [
            {
              "internalType": "uint256",
              "name": "tokenId",
              "type": "uint256"
            },
            {
              "internalType": "address payable",
              "name": "owner",
              "type": "address"
            },
            {
              "internalType": "address payable",
              "name": "seller",
              "type": "address"
            },
            {
              "internalType": "uint256",
              "name": "price",
              "type": "uint256"
            },
            {
              "internalType": "bool",
              "name": "currentlyListed",
              "type": "bool"
            }
          ],
          "internalType": "struct NFTAuction.ListedToken[]",
          "name": "",
          "type": "tuple[]"
        }
      ],
      "stateMutability": "view",
      "type": "function",
      "constant": true
    },
    {
      "inputs": [
        {
          "internalType": "bool",
          "name": "profile",
          "type": "bool"
        }
      ],
      "name": "getMyNFTs",
      "outputs": [
        {
          "components": [
            {
              "internalType": "uint256",
              "name": "tokenId",
              "type": "uint256"
            },
            {
              "internalType": "address payable",
              "name": "owner",
              "type": "address"
            },
            {
              "internalType": "address payable",
              "name": "seller",
              "type": "address"
            },
            {
              "internalType": "uint256",
              "name": "price",
              "type": "uint256"
            },
            {
              "internalType": "bool",
              "name": "currentlyListed",
              "type": "bool"
            }
          ],
          "internalType": "struct NFTAuction.ListedToken[]",
          "name": "",
          "type": "tuple[]"
        }
      ],
      "stateMutability": "view",
      "type": "function",
      "constant": true
    },
    {
      "inputs": [
        {
          "internalType": "uint256",
          "name": "tokenId",
          "type": "uint256"
        }
      ],
      "name": "executeSale",
      "outputs": [],
      "stateMutability": "payable",
      "type": "function",
      "payable": true
    },
    {
      "inputs": [
        {
          "internalType": "uint256",
          "name": "tokenId",
          "type": "uint256"
        },
        {
          "internalType": "address",
          "name": "auctionContractAddress",
          "type": "address"
        }
      ],
      "name": "markTokenNotListed",
      "outputs": [],
      "stateMutability": "nonpayable",
      "type": "function"
    },
    {
      "inputs": [
        {
          "internalType": "uint256",
          "name": "tokenId",
          "type": "uint256"
        },
        {
          "internalType": "address",
          "name": "auctionContract",
          "type": "address"
        }
      ],
      "name": "approveTokenForAuction",
      "outputs": [],
      "stateMutability": "nonpayable",
      "type": "function"
    },
    {
      "inputs": [],
      "name": "getItemsMinted",
      "outputs": [
        {
          "internalType": "uint256",
          "name": "",
          "type": "uint256"
        }
      ],
      "stateMutability": "view",
      "type": "function",
      "constant": true
    },
    {
      "inputs": [
        {
          "internalType": "uint256",
          "name": "tokenId",
          "type": "uint256"
        }
      ],
      "name": "isTokenListed",
      "outputs": [
        {
          "internalType": "bool",
          "name": "",
          "type": "bool"
        }
      ],
      "stateMutability": "view",
      "type": "function",
      "constant": true
    },
    {
      "inputs": [
        {
          "internalType": "uint256",
          "name": "tokenId",
          "type": "uint256"
        },
        {
          "internalType": "bool",
          "name": "listed",
          "type": "bool"
        }
      ],
      "name": "setTokenListed",
      "outputs": [],
      "stateMutability": "nonpayable",
      "type": "function"
    },
    {
      "inputs": [
        {
          "internalType": "uint256",
          "name": "tokenId",
          "type": "uint256"
        },
        {
          "internalType": "uint256",
          "name": "price",
          "type": "uint256"
        }
      ],
      "name": "listNFTAgain",
      "outputs": [],
      "stateMutability": "payable",
      "type": "function",
      "payable": true
    },
    {
      "inputs": [
        {
          "internalType": "uint256",
          "name": "tokenId",
          "type": "uint256"
        },
        {
          "internalType": "address",
          "name": "newOwner",
          "type": "address"
        }
      ],
      "name": "updateOwner",
      "outputs": [],
      "stateMutability": "nonpayable",
      "type": "function"
    },
    {
      "inputs": [
        {
          "internalType": "uint256",
          "name": "tokenId",
          "type": "uint256"
        },
        {
          "internalType": "uint256",
          "name": "newPrice",
          "type": "uint256"
        }
      ],
      "name": "updatePrice",
      "outputs": [],
      "stateMutability": "nonpayable",
      "type": "function"
    }
  ],
  "bytecode": "0x6080604052662386f26fc10000600a553480156200001c57600080fd5b506040518060400160405280600c81526020017f41756374696f6e546f6b656e00000000000000000000000000000000000000008152506040518060400160405280600681526020017f415543544b4e000000000000000000000000000000000000000000000000000081525081600090816200009a919062000370565b508060019081620000ac919062000370565b50505033600960006101000a81548173ffffffffffffffffffffffffffffffffffffffff021916908373ffffffffffffffffffffffffffffffffffffffff16021790555062000457565b600081519050919050565b7f4e487b7100000000000000000000000000000000000000000000000000000000600052604160045260246000fd5b7f4e487b7100000000000000000000000000000000000000000000000000000000600052602260045260246000fd5b600060028204905060018216806200017857607f821691505b6020821081036200018e576200018d62000130565b5b50919050565b60008190508160005260206000209050919050565b60006020601f8301049050919050565b600082821b905092915050565b600060088302620001f87fffffffffffffffffffffffffffffffffffffffffffffffffffffffffffffffff82620001b9565b620002048683620001b9565b95508019841693508086168417925050509392505050565b6000819050919050565b6000819050919050565b6000620002516200024b62000245846200021c565b62000226565b6200021c565b9050919050565b6000819050919050565b6200026d8362000230565b620002856200027c8262000258565b848454620001c6565b825550505050565b600090565b6200029c6200028d565b620002a981848462000262565b505050565b5b81811015620002d157620002c560008262000292565b600181019050620002af565b5050565b601f8211156200032057620002ea8162000194565b620002f584620001a9565b8101602085101562000305578190505b6200031d6200031485620001a9565b830182620002ae565b50505b505050565b600082821c905092915050565b6000620003456000198460080262000325565b1980831691505092915050565b600062000360838362000332565b9150826002028217905092915050565b6200037b82620000f6565b67ffffffffffffffff81111562000397576200039662000101565b5b620003a382546200015f565b620003b0828285620002d5565b600060209050601f831160018114620003e85760008415620003d3578287015190505b620003df858262000352565b8655506200044f565b601f198416620003f88662000194565b60005b828110156200042257848901518255600182019150602085019450602081019050620003fb565b868310156200044257848901516200043e601f89168262000332565b8355505b6001600288020188555050505b505050505050565b614bd180620004676000396000f3fe6080604052600436106101cd5760003560e01c806382367b2d116100f7578063b88d4fde11610095578063dc4dc50711610064578063dc4dc50714610693578063e0391b09146106bc578063e985e9c5146106e7578063ef2d174614610724576101cd565b8063b88d4fde146105e6578063c322579c1461060f578063c87b56dd1461062b578063d1a88ae514610668576101cd565b80639b1225c4116100d15780639b1225c4146105275780639b83cddc14610543578063a22cb46514610580578063aefb3f92146105a9576101cd565b806382367b2d146104965780638e264590146104bf57806395d89b41146104fc576101cd565b806342842e0e1161016f57806368f1945f1161013e57806368f1945f146103c857806370a08231146103f35780637192711f1461043057806372b3b62014610459576101cd565b806342842e0e1461030e57806356459288146103375780635f233464146103625780636352211e1461038b576101cd565b8063095ea7b3116101ab578063095ea7b314610277578063108a9f51146102a057806323b872dd146102c95780632c6de60d146102f2576101cd565b806301ffc9a7146101d257806306fdde031461020f578063081812fc1461023a575b600080fd5b3480156101de57600080fd5b506101f960048036038101906101f491906132c0565b61074f565b6040516102069190613308565b60405180910390f35b34801561021b57600080fd5b506102246107b0565b60405161023191906133b3565b60405180910390f35b34801561024657600080fd5b50610261600480360381019061025c919061340b565b610842565b60405161026e9190613479565b60405180910390f35b34801561028357600080fd5b5061029e600480360381019061029991906134c0565b610888565b005b3480156102ac57600080fd5b506102c760048036038101906102c29190613500565b61099f565b005b3480156102d557600080fd5b506102f060048036038101906102eb9190613540565b610aa9565b005b61030c60048036038101906103079190613593565b610b09565b005b34801561031a57600080fd5b5061033560048036038101906103309190613540565b610d45565b005b34801561034357600080fd5b5061034c610d65565b60405161035991906135e2565b60405180910390f35b34801561036e57600080fd5b5061038960048036038101906103849190613500565b610d76565b005b34801561039757600080fd5b506103b260048036038101906103ad919061340b565b610f3e565b6040516103bf9190613479565b60405180910390f35b3480156103d457600080fd5b506103dd610fc4565b6040516103ea91906135e2565b60405180910390f35b3480156103ff57600080fd5b5061041a600480360381019061041591906135fd565b610fce565b60405161042791906135e2565b60405180910390f35b34801561043c57600080fd5b5061045760048036038101906104529190613500565b611085565b005b34801561046557600080fd5b50610480600480360381019061047b919061375f565b6110de565b60405161048d91906135e2565b60405180910390f35b3480156104a257600080fd5b506104bd60048036038101906104b89190613593565b611286565b005b3480156104cb57600080fd5b506104e660048036038101906104e1919061340b565b6112a5565b6040516104f39190613862565b60405180910390f35b34801561050857600080fd5b506105116113ad565b60405161051e91906133b3565b60405180910390f35b610541600480360381019061053c919061340b565b61143f565b005b34801561054f57600080fd5b5061056a6004803603810190610565919061340b565b611631565b6040516105779190613308565b60405180910390f35b34801561058c57600080fd5b506105a760048036038101906105a291906138a9565b61165e565b005b3480156105b557600080fd5b506105d060048036038101906105cb91906138e9565b611674565b6040516105dd9190613a2d565b60405180910390f35b3480156105f257600080fd5b5061060d60048036038101906106089190613af0565b611a86565b005b6106296004803603810190610624919061340b565b611ae8565b005b34801561063757600080fd5b50610652600480360381019061064d919061340b565b611b82565b60405161065f91906133b3565b60405180910390f35b34801561067457600080fd5b5061067d611c94565b60405161068a9190613862565b60405180910390f35b34801561069f57600080fd5b506106ba60048036038101906106b59190613b73565b611da9565b005b3480156106c857600080fd5b506106d1611f7c565b6040516106de9190613a2d565b60405180910390f35b3480156106f357600080fd5b5061070e60048036038101906107099190613bb3565b612172565b60405161071b9190613308565b60405180910390f35b34801561073057600080fd5b50610739612206565b60405161074691906135e2565b60405180910390f35b6000634906490660e01b7bffffffffffffffffffffffffffffffffffffffffffffffffffffffff1916827bffffffffffffffffffffffffffffffffffffffffffffffffffffffff191614806107a957506107a882612217565b5b9050919050565b6060600080546107bf90613c22565b80601f01602080910402602001604051908101604052809291908181526020018280546107eb90613c22565b80156108385780601f1061080d57610100808354040283529160200191610838565b820191906000526020600020905b81548152906001019060200180831161081b57829003601f168201915b5050505050905090565b600061084d826122f9565b6004600083815260200190815260200160002060009054906101000a900473ffffffffffffffffffffffffffffffffffffffff169050919050565b600061089382610f3e565b90508073ffffffffffffffffffffffffffffffffffffffff168373ffffffffffffffffffffffffffffffffffffffff1603610903576040517f08c379a00000000000000000000000000000000000000000000000000000000081526004016108fa90613cc5565b60405180910390fd5b8073ffffffffffffffffffffffffffffffffffffffff16610922612344565b73ffffffffffffffffffffffffffffffffffffffff16148061095157506109508161094b612344565b612172565b5b610990576040517f08c379a000000000000000000000000000000000000000000000000000000000815260040161098790613d57565b60405180910390fd5b61099a838361234c565b505050565b3373ffffffffffffffffffffffffffffffffffffffff16600b600084815260200190815260200160002060020160009054906101000a900473ffffffffffffffffffffffffffffffffffffffff1673ffffffffffffffffffffffffffffffffffffffff161480610a5c57503373ffffffffffffffffffffffffffffffffffffffff16600960009054906101000a900473ffffffffffffffffffffffffffffffffffffffff1673ffffffffffffffffffffffffffffffffffffffff16145b610a9b576040517f08c379a0000000000000000000000000000000000000000000000000000000008152600401610a9290613dc3565b60405180910390fd5b610aa5818361234c565b5050565b610aba610ab4612344565b82612405565b610af9576040517f08c379a0000000000000000000000000000000000000000000000000000000008152600401610af090613e55565b60405180910390fd5b610b0483838361249a565b505050565b600a543414610b4d576040517f08c379a0000000000000000000000000000000000000000000000000000000008152600401610b4490613ee7565b60405180910390fd5b3373ffffffffffffffffffffffffffffffffffffffff16610b6d83610f3e565b73ffffffffffffffffffffffffffffffffffffffff1614610bc3576040517f08c379a0000000000000000000000000000000000000000000000000000000008152600401610bba90613f53565b60405180910390fd5b600b600083815260200190815260200160002060040160009054906101000a900460ff1615610c27576040517f08c379a0000000000000000000000000000000000000000000000000000000008152600401610c1e90613fbf565b60405180910390fd5b610c3233308461249a565b81600b60008481526020019081526020016000206000018190555080600b6000848152602001908152602001600020600301819055506001600b600084815260200190815260200160002060040160006101000a81548160ff02191690831515021790555033600b600084815260200190815260200160002060020160006101000a81548173ffffffffffffffffffffffffffffffffffffffff021916908373ffffffffffffffffffffffffffffffffffffffff16021790555030600b600084815260200190815260200160002060010160006101000a81548173ffffffffffffffffffffffffffffffffffffffff021916908373ffffffffffffffffffffffffffffffffffffffff1602179055505050565b610d6083838360405180602001604052806000815250611a86565b505050565b6000610d716007612793565b905090565b600b600083815260200190815260200160002060040160009054906101000a900460ff16610dd9576040517f08c379a0000000000000000000000000000000000000000000000000000000008152600401610dd09061402b565b60405180910390fd5b600960009054906101000a900473ffffffffffffffffffffffffffffffffffffffff1673ffffffffffffffffffffffffffffffffffffffff163373ffffffffffffffffffffffffffffffffffffffff161480610e9657503373ffffffffffffffffffffffffffffffffffffffff16600b600084815260200190815260200160002060020160009054906101000a900473ffffffffffffffffffffffffffffffffffffffff1673ffffffffffffffffffffffffffffffffffffffff16145b80610ecc57508073ffffffffffffffffffffffffffffffffffffffff163373ffffffffffffffffffffffffffffffffffffffff16145b610f0b576040517f08c379a0000000000000000000000000000000000000000000000000000000008152600401610f0290613dc3565b60405180910390fd5b6000600b600084815260200190815260200160002060040160006101000a81548160ff0219169083151502179055505050565b600080610f4a836127a1565b9050600073ffffffffffffffffffffffffffffffffffffffff168173ffffffffffffffffffffffffffffffffffffffff1603610fbb576040517f08c379a0000000000000000000000000000000000000000000000000000000008152600401610fb290614097565b60405180910390fd5b80915050919050565b6000600a54905090565b60008073ffffffffffffffffffffffffffffffffffffffff168273ffffffffffffffffffffffffffffffffffffffff160361103e576040517f08c379a000000000000000000000000000000000000000000000000000000000815260040161103590614129565b60405180910390fd5b600360008373ffffffffffffffffffffffffffffffffffffffff1673ffffffffffffffffffffffffffffffffffffffff168152602001908152602001600020549050919050565b80600b600084815260200190815260200160002060010160006101000a81548173ffffffffffffffffffffffffffffffffffffffff021916908373ffffffffffffffffffffffffffffffffffffffff1602179055505050565b6000808211611122576040517f08c379a000000000000000000000000000000000000000000000000000000000815260040161111990614195565b60405180910390fd5b61112c60076127de565b60006111386007612793565b905061114433826127f4565b61114e8185612812565b6040518060a001604052808281526020013373ffffffffffffffffffffffffffffffffffffffff1681526020013373ffffffffffffffffffffffffffffffffffffffff16815260200184815260200160001515815250600b60008381526020019081526020016000206000820151816000015560208201518160010160006101000a81548173ffffffffffffffffffffffffffffffffffffffff021916908373ffffffffffffffffffffffffffffffffffffffff16021790555060408201518160020160006101000a81548173ffffffffffffffffffffffffffffffffffffffff021916908373ffffffffffffffffffffffffffffffffffffffff1602179055506060820151816003015560808201518160040160006101000a81548160ff0219169083151502179055509050508091505092915050565b80600b6000848152602001908152602001600020600301819055505050565b6112ad6131f7565b600b60008381526020019081526020016000206040518060a0016040529081600082015481526020016001820160009054906101000a900473ffffffffffffffffffffffffffffffffffffffff1673ffffffffffffffffffffffffffffffffffffffff1673ffffffffffffffffffffffffffffffffffffffff1681526020016002820160009054906101000a900473ffffffffffffffffffffffffffffffffffffffff1673ffffffffffffffffffffffffffffffffffffffff1673ffffffffffffffffffffffffffffffffffffffff168152602001600382015481526020016004820160009054906101000a900460ff1615151515815250509050919050565b6060600180546113bc90613c22565b80601f01602080910402602001604051908101604052809291908181526020018280546113e890613c22565b80156114355780601f1061140a57610100808354040283529160200191611435565b820191906000526020600020905b81548152906001019060200180831161141857829003601f168201915b5050505050905090565b6000600b60008381526020019081526020016000206003015490506000600b600084815260200190815260200160002060020160009054906101000a900473ffffffffffffffffffffffffffffffffffffffff1690508134146114d7576040517f08c379a00000000000000000000000000000000000000000000000000000000081526004016114ce90614227565b60405180910390fd5b6000600b600085815260200190815260200160002060040160006101000a81548160ff02191690831515021790555033600b600085815260200190815260200160002060020160006101000a81548173ffffffffffffffffffffffffffffffffffffffff021916908373ffffffffffffffffffffffffffffffffffffffff16021790555061156560086127de565b61157030338561249a565b61157a3084610888565b600960009054906101000a900473ffffffffffffffffffffffffffffffffffffffff1673ffffffffffffffffffffffffffffffffffffffff166108fc600a549081150290604051600060405180830381858888f193505050501580156115e4573d6000803e3d6000fd5b508073ffffffffffffffffffffffffffffffffffffffff166108fc349081150290604051600060405180830381858888f1935050505015801561162b573d6000803e3d6000fd5b50505050565b6000600b600083815260200190815260200160002060040160009054906101000a900460ff169050919050565b611670611669612344565b83836128b6565b5050565b606060006116826007612793565b9050600080600080600090505b848110156117a8573373ffffffffffffffffffffffffffffffffffffffff16600b60006001846116bf9190614276565b815260200190815260200160002060010160009054906101000a900473ffffffffffffffffffffffffffffffffffffffff1673ffffffffffffffffffffffffffffffffffffffff16148061178057503373ffffffffffffffffffffffffffffffffffffffff16600b60006001846117369190614276565b815260200190815260200160002060020160009054906101000a900473ffffffffffffffffffffffffffffffffffffffff1673ffffffffffffffffffffffffffffffffffffffff16145b15611795576001846117929190614276565b93505b80806117a0906142aa565b91505061168f565b5060008367ffffffffffffffff8111156117c5576117c4613634565b5b6040519080825280602002602001820160405280156117fe57816020015b6117eb6131f7565b8152602001906001900390816117e35790505b50905060005b85811015611a78573373ffffffffffffffffffffffffffffffffffffffff16600b60006001846118349190614276565b815260200190815260200160002060010160009054906101000a900473ffffffffffffffffffffffffffffffffffffffff1673ffffffffffffffffffffffffffffffffffffffff1614806118f557503373ffffffffffffffffffffffffffffffffffffffff16600b60006001846118ab9190614276565b815260200190815260200160002060020160009054906101000a900473ffffffffffffffffffffffffffffffffffffffff1673ffffffffffffffffffffffffffffffffffffffff16145b15611a64576001816119079190614276565b92506000600b60008581526020019081526020016000209050881580156119435750600015158160040160009054906101000a900460ff161515145b1561194e5750611a65565b806040518060a0016040529081600082015481526020016001820160009054906101000a900473ffffffffffffffffffffffffffffffffffffffff1673ffffffffffffffffffffffffffffffffffffffff1673ffffffffffffffffffffffffffffffffffffffff1681526020016002820160009054906101000a900473ffffffffffffffffffffffffffffffffffffffff1673ffffffffffffffffffffffffffffffffffffffff1673ffffffffffffffffffffffffffffffffffffffff168152602001600382015481526020016004820160009054906101000a900460ff161515151581525050838681518110611a4857611a476142f2565b5b6020026020010181905250600185611a609190614276565b9450505b5b8080611a70906142aa565b915050611804565b508095505050505050919050565b611a97611a91612344565b83612405565b611ad6576040517f08c379a0000000000000000000000000000000000000000000000000000000008152600401611acd90613e55565b60405180910390fd5b611ae284848484612a22565b50505050565b3373ffffffffffffffffffffffffffffffffffffffff16600960009054906101000a900473ffffffffffffffffffffffffffffffffffffffff1673ffffffffffffffffffffffffffffffffffffffff1614611b78576040517f08c379a0000000000000000000000000000000000000000000000000000000008152600401611b6f90614393565b60405180910390fd5b80600a8190555050565b6060611b8d826122f9565b6000600660008481526020019081526020016000208054611bad90613c22565b80601f0160208091040260200160405190810160405280929190818152602001828054611bd990613c22565b8015611c265780601f10611bfb57610100808354040283529160200191611c26565b820191906000526020600020905b815481529060010190602001808311611c0957829003601f168201915b505050505090506000611c37612a7e565b90506000815103611c4c578192505050611c8f565b600082511115611c81578082604051602001611c699291906143ef565b60405160208183030381529060405292505050611c8f565b611c8a84612a95565b925050505b919050565b611c9c6131f7565b6000611ca86007612793565b9050600b60008281526020019081526020016000206040518060a0016040529081600082015481526020016001820160009054906101000a900473ffffffffffffffffffffffffffffffffffffffff1673ffffffffffffffffffffffffffffffffffffffff1673ffffffffffffffffffffffffffffffffffffffff1681526020016002820160009054906101000a900473ffffffffffffffffffffffffffffffffffffffff1673ffffffffffffffffffffffffffffffffffffffff1673ffffffffffffffffffffffffffffffffffffffff168152602001600382015481526020016004820160009054906101000a900460ff16151515158152505091505090565b3373ffffffffffffffffffffffffffffffffffffffff16600b600084815260200190815260200160002060020160009054906101000a900473ffffffffffffffffffffffffffffffffffffffff1673ffffffffffffffffffffffffffffffffffffffff1614611e4d576040517f08c379a0000000000000000000000000000000000000000000000000000000008152600401611e449061445f565b60405180910390fd5b80611f4957600b600083815260200190815260200160002060040160009054906101000a900460ff16611eb5576040517f08c379a0000000000000000000000000000000000000000000000000000000008152600401611eac9061402b565b60405180910390fd5b611ec030338461249a565b6000600b600084815260200190815260200160002060040160006101000a81548160ff02191690831515021790555033600b600084815260200190815260200160002060010160006101000a81548173ffffffffffffffffffffffffffffffffffffffff021916908373ffffffffffffffffffffffffffffffffffffffff160217905550611f78565b80600b600084815260200190815260200160002060040160006101000a81548160ff0219169083151502179055505b5050565b60606000611f8a6007612793565b905060008167ffffffffffffffff811115611fa857611fa7613634565b5b604051908082528060200260200182016040528015611fe157816020015b611fce6131f7565b815260200190600190039081611fc65790505b50905060008080600090505b84811015612167576001816120029190614276565b91506000600b60008481526020019081526020016000209050600015158160040160009054906101000a900460ff1615150361203e5750612154565b806040518060a0016040529081600082015481526020016001820160009054906101000a900473ffffffffffffffffffffffffffffffffffffffff1673ffffffffffffffffffffffffffffffffffffffff1673ffffffffffffffffffffffffffffffffffffffff1681526020016002820160009054906101000a900473ffffffffffffffffffffffffffffffffffffffff1673ffffffffffffffffffffffffffffffffffffffff1673ffffffffffffffffffffffffffffffffffffffff168152602001600382015481526020016004820160009054906101000a900460ff161515151581525050858581518110612138576121376142f2565b5b60200260200101819052506001846121509190614276565b9350505b808061215f906142aa565b915050611fed565b508294505050505090565b6000600560008473ffffffffffffffffffffffffffffffffffffffff1673ffffffffffffffffffffffffffffffffffffffff16815260200190815260200160002060008373ffffffffffffffffffffffffffffffffffffffff1673ffffffffffffffffffffffffffffffffffffffff16815260200190815260200160002060009054906101000a900460ff16905092915050565b60006122126007612793565b905090565b60007f80ac58cd000000000000000000000000000000000000000000000000000000007bffffffffffffffffffffffffffffffffffffffffffffffffffffffff1916827bffffffffffffffffffffffffffffffffffffffffffffffffffffffff191614806122e257507f5b5e139f000000000000000000000000000000000000000000000000000000007bffffffffffffffffffffffffffffffffffffffffffffffffffffffff1916827bffffffffffffffffffffffffffffffffffffffffffffffffffffffff1916145b806122f257506122f182612afd565b5b9050919050565b61230281612b67565b612341576040517f08c379a000000000000000000000000000000000000000000000000000000000815260040161233890614097565b60405180910390fd5b50565b600033905090565b816004600083815260200190815260200160002060006101000a81548173ffffffffffffffffffffffffffffffffffffffff021916908373ffffffffffffffffffffffffffffffffffffffff160217905550808273ffffffffffffffffffffffffffffffffffffffff166123bf83610f3e565b73ffffffffffffffffffffffffffffffffffffffff167f8c5be1e5ebec7d5bd14f71427d1e84f3dd0314c0f7b2291e5b200ac8c7c3b92560405160405180910390a45050565b60008061241183610f3e565b90508073ffffffffffffffffffffffffffffffffffffffff168473ffffffffffffffffffffffffffffffffffffffff16148061245357506124528185612172565b5b8061249157508373ffffffffffffffffffffffffffffffffffffffff1661247984610842565b73ffffffffffffffffffffffffffffffffffffffff16145b91505092915050565b8273ffffffffffffffffffffffffffffffffffffffff166124ba82610f3e565b73ffffffffffffffffffffffffffffffffffffffff1614612510576040517f08c379a0000000000000000000000000000000000000000000000000000000008152600401612507906144f1565b60405180910390fd5b600073ffffffffffffffffffffffffffffffffffffffff168273ffffffffffffffffffffffffffffffffffffffff160361257f576040517f08c379a000000000000000000000000000000000000000000000000000000000815260040161257690614583565b60405180910390fd5b61258c8383836001612ba8565b8273ffffffffffffffffffffffffffffffffffffffff166125ac82610f3e565b73ffffffffffffffffffffffffffffffffffffffff1614612602576040517f08c379a00000000000000000000000000000000000000000000000000000000081526004016125f9906144f1565b60405180910390fd5b6004600082815260200190815260200160002060006101000a81549073ffffffffffffffffffffffffffffffffffffffff02191690556001600360008573ffffffffffffffffffffffffffffffffffffffff1673ffffffffffffffffffffffffffffffffffffffff168152602001908152602001600020600082825403925050819055506001600360008473ffffffffffffffffffffffffffffffffffffffff1673ffffffffffffffffffffffffffffffffffffffff16815260200190815260200160002060008282540192505081905550816002600083815260200190815260200160002060006101000a81548173ffffffffffffffffffffffffffffffffffffffff021916908373ffffffffffffffffffffffffffffffffffffffff160217905550808273ffffffffffffffffffffffffffffffffffffffff168473ffffffffffffffffffffffffffffffffffffffff167fddf252ad1be2c89b69c2b068fc378daa952ba7f163c4a11628f55a4df523b3ef60405160405180910390a461278e8383836001612bae565b505050565b600081600001549050919050565b60006002600083815260200190815260200160002060009054906101000a900473ffffffffffffffffffffffffffffffffffffffff169050919050565b6001816000016000828254019250508190555050565b61280e828260405180602001604052806000815250612bb4565b5050565b61281b82612b67565b61285a576040517f08c379a000000000000000000000000000000000000000000000000000000000815260040161285190614615565b60405180910390fd5b8060066000848152602001908152602001600020908161287a91906147e1565b507ff8e1a15aba9398e019f0b49df1a4fde98ee17ae345cb5f6b5e2c27f5033e8ce7826040516128aa91906135e2565b60405180910390a15050565b8173ffffffffffffffffffffffffffffffffffffffff168373ffffffffffffffffffffffffffffffffffffffff1603612924576040517f08c379a000000000000000000000000000000000000000000000000000000000815260040161291b906148ff565b60405180910390fd5b80600560008573ffffffffffffffffffffffffffffffffffffffff1673ffffffffffffffffffffffffffffffffffffffff16815260200190815260200160002060008473ffffffffffffffffffffffffffffffffffffffff1673ffffffffffffffffffffffffffffffffffffffff16815260200190815260200160002060006101000a81548160ff0219169083151502179055508173ffffffffffffffffffffffffffffffffffffffff168373ffffffffffffffffffffffffffffffffffffffff167f17307eab39ab6107e8899845ad3d59bd9653f200f220920489ca2b5937696c3183604051612a159190613308565b60405180910390a3505050565b612a2d84848461249a565b612a3984848484612c0f565b612a78576040517f08c379a0000000000000000000000000000000000000000000000000000000008152600401612a6f90614991565b60405180910390fd5b50505050565b606060405180602001604052806000815250905090565b6060612aa0826122f9565b6000612aaa612a7e565b90506000815111612aca5760405180602001604052806000815250612af5565b80612ad484612d96565b604051602001612ae59291906143ef565b6040516020818303038152906040525b915050919050565b60007f01ffc9a7000000000000000000000000000000000000000000000000000000007bffffffffffffffffffffffffffffffffffffffffffffffffffffffff1916827bffffffffffffffffffffffffffffffffffffffffffffffffffffffff1916149050919050565b60008073ffffffffffffffffffffffffffffffffffffffff16612b89836127a1565b73ffffffffffffffffffffffffffffffffffffffff1614159050919050565b50505050565b50505050565b612bbe8383612e64565b612bcb6000848484612c0f565b612c0a576040517f08c379a0000000000000000000000000000000000000000000000000000000008152600401612c0190614991565b60405180910390fd5b505050565b6000612c308473ffffffffffffffffffffffffffffffffffffffff16613081565b15612d89578373ffffffffffffffffffffffffffffffffffffffff1663150b7a02612c59612344565b8786866040518563ffffffff1660e01b8152600401612c7b9493929190614a06565b6020604051808303816000875af1925050508015612cb757506040513d601f19601f82011682018060405250810190612cb49190614a67565b60015b612d39573d8060008114612ce7576040519150601f19603f3d011682016040523d82523d6000602084013e612cec565b606091505b506000815103612d31576040517f08c379a0000000000000000000000000000000000000000000000000000000008152600401612d2890614991565b60405180910390fd5b805181602001fd5b63150b7a0260e01b7bffffffffffffffffffffffffffffffffffffffffffffffffffffffff1916817bffffffffffffffffffffffffffffffffffffffffffffffffffffffff191614915050612d8e565b600190505b949350505050565b606060006001612da5846130a4565b01905060008167ffffffffffffffff811115612dc457612dc3613634565b5b6040519080825280601f01601f191660200182016040528015612df65781602001600182028036833780820191505090505b509050600082602001820190505b600115612e59578080600190039150507f3031323334353637383961626364656600000000000000000000000000000000600a86061a8153600a8581612e4d57612e4c614a94565b5b04945060008503612e04575b819350505050919050565b600073ffffffffffffffffffffffffffffffffffffffff168273ffffffffffffffffffffffffffffffffffffffff1603612ed3576040517f08c379a0000000000000000000000000000000000000000000000000000000008152600401612eca90614b0f565b60405180910390fd5b612edc81612b67565b15612f1c576040517f08c379a0000000000000000000000000000000000000000000000000000000008152600401612f1390614b7b565b60405180910390fd5b612f2a600083836001612ba8565b612f3381612b67565b15612f73576040517f08c379a0000000000000000000000000000000000000000000000000000000008152600401612f6a90614b7b565b60405180910390fd5b6001600360008473ffffffffffffffffffffffffffffffffffffffff1673ffffffffffffffffffffffffffffffffffffffff16815260200190815260200160002060008282540192505081905550816002600083815260200190815260200160002060006101000a81548173ffffffffffffffffffffffffffffffffffffffff021916908373ffffffffffffffffffffffffffffffffffffffff160217905550808273ffffffffffffffffffffffffffffffffffffffff16600073ffffffffffffffffffffffffffffffffffffffff167fddf252ad1be2c89b69c2b068fc378daa952ba7f163c4a11628f55a4df523b3ef60405160405180910390a461307d600083836001612bae565b5050565b6000808273ffffffffffffffffffffffffffffffffffffffff163b119050919050565b600080600090507a184f03e93ff9f4daa797ed6e38ed64bf6a1f0100000000000000008310613102577a184f03e93ff9f4daa797ed6e38ed64bf6a1f01000000000000000083816130f8576130f7614a94565b5b0492506040810190505b6d04ee2d6d415b85acef8100000000831061313f576d04ee2d6d415b85acef8100000000838161313557613134614a94565b5b0492506020810190505b662386f26fc10000831061316e57662386f26fc10000838161316457613163614a94565b5b0492506010810190505b6305f5e1008310613197576305f5e100838161318d5761318c614a94565b5b0492506008810190505b61271083106131bc5761271083816131b2576131b1614a94565b5b0492506004810190505b606483106131df57606483816131d5576131d4614a94565b5b0492506002810190505b600a83106131ee576001810190505b80915050919050565b6040518060a0016040528060008152602001600073ffffffffffffffffffffffffffffffffffffffff168152602001600073ffffffffffffffffffffffffffffffffffffffff168152602001600081526020016000151581525090565b6000604051905090565b600080fd5b600080fd5b60007fffffffff0000000000000000000000000000000000000000000000000000000082169050919050565b61329d81613268565b81146132a857600080fd5b50565b6000813590506132ba81613294565b92915050565b6000602082840312156132d6576132d561325e565b5b60006132e4848285016132ab565b91505092915050565b60008115159050919050565b613302816132ed565b82525050565b600060208201905061331d60008301846132f9565b92915050565b600081519050919050565b600082825260208201905092915050565b60005b8381101561335d578082015181840152602081019050613342565b60008484015250505050565b6000601f19601f8301169050919050565b600061338582613323565b61338f818561332e565b935061339f81856020860161333f565b6133a881613369565b840191505092915050565b600060208201905081810360008301526133cd818461337a565b905092915050565b6000819050919050565b6133e8816133d5565b81146133f357600080fd5b50565b600081359050613405816133df565b92915050565b6000602082840312156134215761342061325e565b5b600061342f848285016133f6565b91505092915050565b600073ffffffffffffffffffffffffffffffffffffffff82169050919050565b600061346382613438565b9050919050565b61347381613458565b82525050565b600060208201905061348e600083018461346a565b92915050565b61349d81613458565b81146134a857600080fd5b50565b6000813590506134ba81613494565b92915050565b600080604083850312156134d7576134d661325e565b5b60006134e5858286016134ab565b92505060206134f6858286016133f6565b9150509250929050565b600080604083850312156135175761351661325e565b5b6000613525858286016133f6565b9250506020613536858286016134ab565b9150509250929050565b6000806000606084860312156135595761355861325e565b5b6000613567868287016134ab565b9350506020613578868287016134ab565b9250506040613589868287016133f6565b9150509250925092565b600080604083850312156135aa576135a961325e565b5b60006135b8858286016133f6565b92505060206135c9858286016133f6565b9150509250929050565b6135dc816133d5565b82525050565b60006020820190506135f760008301846135d3565b92915050565b6000602082840312156136135761361261325e565b5b6000613621848285016134ab565b91505092915050565b600080fd5b600080fd5b7f4e487b7100000000000000000000000000000000000000000000000000000000600052604160045260246000fd5b61366c82613369565b810181811067ffffffffffffffff8211171561368b5761368a613634565b5b80604052505050565b600061369e613254565b90506136aa8282613663565b919050565b600067ffffffffffffffff8211156136ca576136c9613634565b5b6136d382613369565b9050602081019050919050565b82818337600083830152505050565b60006137026136fd846136af565b613694565b90508281526020810184848401111561371e5761371d61362f565b5b6137298482856136e0565b509392505050565b600082601f8301126137465761374561362a565b5b81356137568482602086016136ef565b91505092915050565b600080604083850312156137765761377561325e565b5b600083013567ffffffffffffffff81111561379457613793613263565b5b6137a085828601613731565b92505060206137b1858286016133f6565b9150509250929050565b6137c4816133d5565b82525050565b60006137d582613438565b9050919050565b6137e5816137ca565b82525050565b6137f4816132ed565b82525050565b60a08201600082015161381060008501826137bb565b50602082015161382360208501826137dc565b50604082015161383660408501826137dc565b50606082015161384960608501826137bb565b50608082015161385c60808501826137eb565b50505050565b600060a08201905061387760008301846137fa565b92915050565b613886816132ed565b811461389157600080fd5b50565b6000813590506138a38161387d565b92915050565b600080604083850312156138c0576138bf61325e565b5b60006138ce858286016134ab565b92505060206138df85828601613894565b9150509250929050565b6000602082840312156138ff576138fe61325e565b5b600061390d84828501613894565b91505092915050565b600081519050919050565b600082825260208201905092915050565b6000819050602082019050919050565b60a08201600082015161395860008501826137bb565b50602082015161396b60208501826137dc565b50604082015161397e60408501826137dc565b50606082015161399160608501826137bb565b5060808201516139a460808501826137eb565b50505050565b60006139b68383613942565b60a08301905092915050565b6000602082019050919050565b60006139da82613916565b6139e48185613921565b93506139ef83613932565b8060005b83811015613a20578151613a0788826139aa565b9750613a12836139c2565b9250506001810190506139f3565b5085935050505092915050565b60006020820190508181036000830152613a4781846139cf565b905092915050565b600067ffffffffffffffff821115613a6a57613a69613634565b5b613a7382613369565b9050602081019050919050565b6000613a93613a8e84613a4f565b613694565b905082815260208101848484011115613aaf57613aae61362f565b5b613aba8482856136e0565b509392505050565b600082601f830112613ad757613ad661362a565b5b8135613ae7848260208601613a80565b91505092915050565b60008060008060808587031215613b0a57613b0961325e565b5b6000613b18878288016134ab565b9450506020613b29878288016134ab565b9350506040613b3a878288016133f6565b925050606085013567ffffffffffffffff811115613b5b57613b5a613263565b5b613b6787828801613ac2565b91505092959194509250565b60008060408385031215613b8a57613b8961325e565b5b6000613b98858286016133f6565b9250506020613ba985828601613894565b9150509250929050565b60008060408385031215613bca57613bc961325e565b5b6000613bd8858286016134ab565b9250506020613be9858286016134ab565b9150509250929050565b7f4e487b7100000000000000000000000000000000000000000000000000000000600052602260045260246000fd5b60006002820490506001821680613c3a57607f821691505b602082108103613c4d57613c4c613bf3565b5b50919050565b7f4552433732313a20617070726f76616c20746f2063757272656e74206f776e6560008201527f7200000000000000000000000000000000000000000000000000000000000000602082015250565b6000613caf60218361332e565b9150613cba82613c53565b604082019050919050565b60006020820190508181036000830152613cde81613ca2565b9050919050565b7f4552433732313a20617070726f76652063616c6c6572206973206e6f7420746f60008201527f6b656e206f776e6572206f7220617070726f76656420666f7220616c6c000000602082015250565b6000613d41603d8361332e565b9150613d4c82613ce5565b604082019050919050565b60006020820190508181036000830152613d7081613d34565b9050919050565b7f4e6f7420617574686f72697a6564000000000000000000000000000000000000600082015250565b6000613dad600e8361332e565b9150613db882613d77565b602082019050919050565b60006020820190508181036000830152613ddc81613da0565b9050919050565b7f4552433732313a2063616c6c6572206973206e6f7420746f6b656e206f776e6560008201527f72206f7220617070726f76656400000000000000000000000000000000000000602082015250565b6000613e3f602d8361332e565b9150613e4a82613de3565b604082019050919050565b60006020820190508181036000830152613e6e81613e32565b9050919050565b7f486f706566756c6c792073656e64696e672074686520636f727265637420707260008201527f6963650000000000000000000000000000000000000000000000000000000000602082015250565b6000613ed160238361332e565b9150613edc82613e75565b604082019050919050565b60006020820190508181036000830152613f0081613ec4565b9050919050565b7f4f6e6c79206f776e65722063616e206c697374207468697320746f6b656e0000600082015250565b6000613f3d601e8361332e565b9150613f4882613f07565b602082019050919050565b60006020820190508181036000830152613f6c81613f30565b9050919050565b7f546f6b656e20697320616c7265616479206c6973746564000000000000000000600082015250565b6000613fa960178361332e565b9150613fb482613f73565b602082019050919050565b60006020820190508181036000830152613fd881613f9c565b9050919050565b7f546f6b656e206973206e6f74206c697374656400000000000000000000000000600082015250565b600061401560138361332e565b915061402082613fdf565b602082019050919050565b6000602082019050818103600083015261404481614008565b9050919050565b7f4552433732313a20696e76616c696420746f6b656e2049440000000000000000600082015250565b600061408160188361332e565b915061408c8261404b565b602082019050919050565b600060208201905081810360008301526140b081614074565b9050919050565b7f4552433732313a2061646472657373207a65726f206973206e6f74206120766160008201527f6c6964206f776e65720000000000000000000000000000000000000000000000602082015250565b600061411360298361332e565b915061411e826140b7565b604082019050919050565b6000602082019050818103600083015261414281614106565b9050919050565b7f5072696365206d757374206e6f74206265206e65676174697665000000000000600082015250565b600061417f601a8361332e565b915061418a82614149565b602082019050919050565b600060208201905081810360008301526141ae81614172565b9050919050565b7f506c65617365207375626d6974207468652061736b696e67207072696365206960008201527f6e206f7264657220746f20636f6d706c65746520746865207075726368617365602082015250565b600061421160408361332e565b915061421c826141b5565b604082019050919050565b6000602082019050818103600083015261424081614204565b9050919050565b7f4e487b7100000000000000000000000000000000000000000000000000000000600052601160045260246000fd5b6000614281826133d5565b915061428c836133d5565b92508282019050808211156142a4576142a3614247565b5b92915050565b60006142b5826133d5565b91507fffffffffffffffffffffffffffffffffffffffffffffffffffffffffffffffff82036142e7576142e6614247565b5b600182019050919050565b7f4e487b7100000000000000000000000000000000000000000000000000000000600052603260045260246000fd5b7f4f6e6c79206f776e65722063616e20757064617465206c697374696e6720707260008201527f6963650000000000000000000000000000000000000000000000000000000000602082015250565b600061437d60238361332e565b915061438882614321565b604082019050919050565b600060208201905081810360008301526143ac81614370565b9050919050565b600081905092915050565b60006143c982613323565b6143d381856143b3565b93506143e381856020860161333f565b80840191505092915050565b60006143fb82856143be565b915061440782846143be565b91508190509392505050565b7f4f6e6c792073656c6c65722063616e20756e6c69737400000000000000000000600082015250565b600061444960168361332e565b915061445482614413565b602082019050919050565b600060208201905081810360008301526144788161443c565b9050919050565b7f4552433732313a207472616e736665722066726f6d20696e636f72726563742060008201527f6f776e6572000000000000000000000000000000000000000000000000000000602082015250565b60006144db60258361332e565b91506144e68261447f565b604082019050919050565b6000602082019050818103600083015261450a816144ce565b9050919050565b7f4552433732313a207472616e7366657220746f20746865207a65726f2061646460008201527f7265737300000000000000000000000000000000000000000000000000000000602082015250565b600061456d60248361332e565b915061457882614511565b604082019050919050565b6000602082019050818103600083015261459c81614560565b9050919050565b7f45524337323155524953746f726167653a2055524920736574206f66206e6f6e60008201527f6578697374656e7420746f6b656e000000000000000000000000000000000000602082015250565b60006145ff602e8361332e565b915061460a826145a3565b604082019050919050565b6000602082019050818103600083015261462e816145f2565b9050919050565b60008190508160005260206000209050919050565b60006020601f8301049050919050565b600082821b905092915050565b6000600883026146977fffffffffffffffffffffffffffffffffffffffffffffffffffffffffffffffff8261465a565b6146a1868361465a565b95508019841693508086168417925050509392505050565b6000819050919050565b60006146de6146d96146d4846133d5565b6146b9565b6133d5565b9050919050565b6000819050919050565b6146f8836146c3565b61470c614704826146e5565b848454614667565b825550505050565b600090565b614721614714565b61472c8184846146ef565b505050565b5b8181101561475057614745600082614719565b600181019050614732565b5050565b601f8211156147955761476681614635565b61476f8461464a565b8101602085101561477e578190505b61479261478a8561464a565b830182614731565b50505b505050565b600082821c905092915050565b60006147b86000198460080261479a565b1980831691505092915050565b60006147d183836147a7565b9150826002028217905092915050565b6147ea82613323565b67ffffffffffffffff81111561480357614802613634565b5b61480d8254613c22565b614818828285614754565b600060209050601f83116001811461484b5760008415614839578287015190505b61484385826147c5565b8655506148ab565b601f19841661485986614635565b60005b828110156148815784890151825560018201915060208501945060208101905061485c565b8683101561489e578489015161489a601f8916826147a7565b8355505b6001600288020188555050505b505050505050565b7f4552433732313a20617070726f766520746f2063616c6c657200000000000000600082015250565b60006148e960198361332e565b91506148f4826148b3565b602082019050919050565b60006020820190508181036000830152614918816148dc565b9050919050565b7f4552433732313a207472616e7366657220746f206e6f6e20455243373231526560008201527f63656976657220696d706c656d656e7465720000000000000000000000000000602082015250565b600061497b60328361332e565b91506149868261491f565b604082019050919050565b600060208201905081810360008301526149aa8161496e565b9050919050565b600081519050919050565b600082825260208201905092915050565b60006149d8826149b1565b6149e281856149bc565b93506149f281856020860161333f565b6149fb81613369565b840191505092915050565b6000608082019050614a1b600083018761346a565b614a28602083018661346a565b614a3560408301856135d3565b8181036060830152614a4781846149cd565b905095945050505050565b600081519050614a6181613294565b92915050565b600060208284031215614a7d57614a7c61325e565b5b6000614a8b84828501614a52565b91505092915050565b7f4e487b7100000000000000000000000000000000000000000000000000000000600052601260045260246000fd5b7f4552433732313a206d696e7420746f20746865207a65726f2061646472657373600082015250565b6000614af960208361332e565b9150614b0482614ac3565b602082019050919050565b60006020820190508181036000830152614b2881614aec565b9050919050565b7f4552433732313a20746f6b656e20616c7265616479206d696e74656400000000600082015250565b6000614b65601c8361332e565b9150614b7082614b2f565b602082019050919050565b60006020820190508181036000830152614b9481614b58565b905091905056fea26469706673582212200c773665a9fda9603de3c8bb7e401377a4b42576b30d9dd79790c7dd1e85fce964736f6c63430008130033",
  "immutableReferences": {},
  "source": "// SPDX-License-Identifier: MIT\npragma solidity 0.8.19;\n\nimport \"@openzeppelin/contracts/utils/Counters.sol\";\nimport \"@openzeppelin/contracts/token/ERC721/extensions/ERC721URIStorage.sol\";\nimport \"@openzeppelin/contracts/token/ERC721/ERC721.sol\";\n\ncontract NFTAuction is ERC721URIStorage {\n\n    using Counters for Counters.Counter;\n    //_tokenIds variable has the most recent minted tokenId\n    Counters.Counter private _tokenIds;\n    //Keeps track of the number of items sold on the marketplace\n    Counters.Counter private _itemsSold;\n    //owner is the contract address that created the smart contract\n    address payable owner;\n    //The fee charged by the marketplace to be allowed to list an NFT\n    uint256 listPrice = 0.01 ether;\n    \n    constructor () ERC721(\"AuctionToken\", \"AUCTKN\"){\n        owner = payable(msg.sender);\n    }\n\n    //The structure to store info about a listed token\n    struct ListedToken {\n        uint256 tokenId;\n        address payable owner;\n        address payable seller;\n        uint256 price;\n        bool currentlyListed;\n    }\n\n    //This mapping maps tokenId to token info and is helpful when retrieving details about a tokenId\n    mapping(uint256 => ListedToken) private idToListedToken;\n\n    function updateListPrice(uint256 _listPrice) public payable {\n        require(owner == msg.sender, \"Only owner can update listing price\");\n        listPrice = _listPrice;\n    }\n\n     function getListPrice() public view returns (uint256) {\n        return listPrice;\n    }\n\n    function getLatestIdToListedToken() public view returns (ListedToken memory) {\n        uint256 currentTokenId = _tokenIds.current();\n        return idToListedToken[currentTokenId];\n    }\n\n    function getListedTokenForId(uint256 tokenId) public view returns (ListedToken memory) {\n        return idToListedToken[tokenId];\n    }\n\n    function getCurrentToken() public view returns (uint256) {\n        return _tokenIds.current();\n    }\n\n    //The first time a token is created, it is minted but stays with the minter until listed\n    function createToken(string memory tokenURI, uint256 price) public returns (uint) {\n        require(price > 0, \"Price must not be negative\");\n\n        //Increment the tokenId counter, which is keeping track of the number of minted NFTs\n        _tokenIds.increment();\n        uint256 newTokenId = _tokenIds.current();\n\n        //Mint the NFT with tokenId newTokenId to the address who called createToken\n        _safeMint(msg.sender, newTokenId);\n\n        //Map the tokenId to the tokenURI (which is an IPFS URL with the NFT metadata)\n        _setTokenURI(newTokenId, tokenURI);\n\n        //Remember this token so the frontend can show it (listed status starts false)\n        idToListedToken[newTokenId] = ListedToken(\n            newTokenId,\n            payable(msg.sender),\n            payable(msg.sender),\n            price,\n            false\n        );\n\n        return newTokenId;\n    }\n\n    //This will return all the NFTs currently listed to be sold on the marketplace\n    function getAllNFTs() public view returns (ListedToken[] memory) {\n        uint nftCount = _tokenIds.current();\n        ListedToken[] memory tokens = new ListedToken[](nftCount);\n        uint currentIndex = 0;\n        uint currentId;\n        //Only add tokens that are currently listed so the marketplace stays clean\n        for(uint i=0;i<nftCount;i++)\n        {\n            currentId = i + 1;\n            ListedToken storage currentItem = idToListedToken[currentId];\n            if(currentItem.currentlyListed == false) {\n                continue;\n            }\n            tokens[currentIndex] = currentItem;\n            currentIndex += 1;\n        }\n        //the array 'tokens' has the list of all NFTs in the marketplace\n        return tokens;\n    }\n\n    //Returns all the NFTs that the current user is owner or seller in\n    function getMyNFTs(bool profile) public view returns (ListedToken[] memory) {\n        uint totalItemCount = _tokenIds.current();\n        uint itemCount = 0;\n        uint currentIndex = 0;\n        uint currentId;\n        //Important to get a count of all the NFTs that belong to the user before we can make an array for them\n        for(uint i=0; i < totalItemCount; i++)\n        {\n            // Show NFTs where user is owner OR seller\n            // This includes listed NFTs (where owner is contract but seller is user)\n            // and unlisted NFTs (where owner is user)\n            if(idToListedToken[i+1].owner == msg.sender || idToListedToken[i+1].seller == msg.sender){\n                itemCount += 1;\n            }\n        }\n\n        //Once you have the count of relevant NFTs, create an array then store all the NFTs in it\n        ListedToken[] memory items = new ListedToken[](itemCount);\n        for(uint i=0; i < totalItemCount; i++) {\n            if(idToListedToken[i+1].owner == msg.sender || idToListedToken[i+1].seller == msg.sender) {\n                currentId = i+1;\n                ListedToken storage currentItem = idToListedToken[currentId];\n                if(!profile && currentItem.currentlyListed == false) {\n                    continue;\n                }\n                items[currentIndex] = currentItem;\n                currentIndex += 1;\n            }\n        }\n        return items;\n    }\n\n    function executeSale(uint256 tokenId) public payable {\n        uint price = idToListedToken[tokenId].price;\n        address seller = idToListedToken[tokenId].seller;\n        require(msg.value == price, \"Please submit the asking price in order to complete the purchase\");\n\n        //update the details of the token\n        idToListedToken[tokenId].currentlyListed = false;\n        idToListedToken[tokenId].seller = payable(msg.sender);\n        _itemsSold.increment();\n\n        //Actually transfer the token to the new owner\n        _transfer(address(this), msg.sender, tokenId);\n        //approve the marketplace to sell NFTs on your behalf\n        approve(address(this), tokenId);\n\n        //Transfer the listing fee to the marketplace creator\n        payable(owner).transfer(listPrice);\n        //Transfer the proceeds from the sale to the seller of the NFT\n        payable(seller).transfer(msg.value);\n    }\n\n    // Function to allow other contracts (like our auction contract) to mark an NFT as no longer listed\n    function markTokenNotListed(uint256 tokenId, address auctionContractAddress) public {\n        require(idToListedToken[tokenId].currentlyListed, \"Token is not listed\");\n        require(\n            msg.sender == owner || \n            idToListedToken[tokenId].seller == msg.sender ||\n            msg.sender == auctionContractAddress,\n            \"Not authorized\"\n        );\n        \n        idToListedToken[tokenId].currentlyListed = false;\n    }\n    \n    //We might add a resell token function in the future\n    //In that case, tokens won't be listed by default but users can send a request to actually list a token\n    //Currently NFTs are listed by default\n\n    function approveTokenForAuction(uint256 tokenId, address auctionContract) public {\n        require(idToListedToken[tokenId].seller == msg.sender || owner == msg.sender, \"Not authorized\");\n        _approve(auctionContract, tokenId);\n    }\n        \n    // get number of items minted\n    function getItemsMinted() public view returns (uint256) {\n        return _tokenIds.current();\n    }\n\n    // check whether the token is listed or not\n    function isTokenListed(uint256 tokenId) public view returns (bool) {\n        return idToListedToken[tokenId].currentlyListed;\n    }\n\n    // set the token as listed or not listed\n    function setTokenListed(uint256 tokenId, bool listed) public {\n        require(idToListedToken[tokenId].seller == msg.sender, \"Only seller can unlist\");\n        \n        if(!listed) {\n            // Unlisting: transfer NFT back to owner\n            require(idToListedToken[tokenId].currentlyListed, \"Token is not listed\");\n            \n            // Transfer the NFT from contract back to the seller\n            _transfer(address(this), msg.sender, tokenId);\n            \n            // Update the listing status and owner\n            idToListedToken[tokenId].currentlyListed = false;\n            idToListedToken[tokenId].owner = payable(msg.sender);\n        } else {\n            // Listing: transfer NFT to contract (this would be done in listNFTAgain instead)\n            idToListedToken[tokenId].currentlyListed = listed;\n        }\n    }\n\n    // // list nft again after auction from the new owner\n    // function listNFTAgain(uint256 tokenId) public {\n    //     idToListedToken[tokenId].currentlyListed = true;\n    //     idToListedToken[tokenId].seller = payable(msg.sender);\n    //     idToListedToken[tokenId].owner = payable(address(this));\n    //     _transfer(msg.sender, address(this), tokenId);\n    //     approve(address(this), tokenId);\n    // }\n\n    /// Owner calls this to relist their NFT at a new price\n    function listNFTAgain(uint256 tokenId, uint256 price) external payable{\n        // Make sure the sender sent enough ETH to pay for listing\n        require(msg.value == listPrice, \"Hopefully sending the correct price\");\n\n        require(ownerOf(tokenId) == msg.sender, \"Only owner can list this token\");\n        require(!idToListedToken[tokenId].currentlyListed, \"Token is already listed\");\n\n        // Transfer the NFT into this contract\n        _transfer(msg.sender, address(this), tokenId);\n        \n        // Update our onchain listing record\n        idToListedToken[tokenId].tokenId = tokenId;\n        idToListedToken[tokenId].price = price;\n        idToListedToken[tokenId].currentlyListed = true;\n        idToListedToken[tokenId].seller = payable(msg.sender);\n        idToListedToken[tokenId].owner = payable(address(this));\n\n        // Allow the marketplace (this contract) to handle sales later\n        // approve(address(this), tokenId);\n    }\n\n    // update the new owner of the token after auction (seller remains the original seller)\n    function updateOwner(uint tokenId, address newOwner) public {\n        idToListedToken[tokenId].owner = payable(newOwner);\n        // Do NOT update seller - it should remain as the original seller who minted/listed the NFT\n        // idToListedToken[tokenId].seller = payable(newOwner); // REMOVED: This was causing owner and seller to be the same\n    }\n\n    // update the new price of the token after auction\n    function updatePrice(uint tokenId, uint256 newPrice) public {\n        idToListedToken[tokenId].price = newPrice;\n    }\n\n\n\n}",
  "sourcePath": "/Users/janyajaiswal/AetherVault/contracts/NFTAuction.sol",
  "compiler": {
    "name": "solc",
    "version": "0.8.19+commit.7dd6d404.Emscripten.clang"
  },
  "schemaVersion": "3.4.4",
  "updatedAt": "2025-12-08T01:52:38.012Z",
  "networkType": "ethereum",
  "devdoc": {
    "events": {
      "Approval(address,address,uint256)": {
        "details": "Emitted when `owner` enables `approved` to manage the `tokenId` token."
      },
      "ApprovalForAll(address,address,bool)": {
        "details": "Emitted when `owner` enables or disables (`approved`) `operator` to manage all of its assets."
      },
      "BatchMetadataUpdate(uint256,uint256)": {
        "details": "This event emits when the metadata of a range of tokens is changed. So that the third-party platforms such as NFT market could timely update the images and related attributes of the NFTs."
      },
      "MetadataUpdate(uint256)": {
        "details": "This event emits when the metadata of a token is changed. So that the third-party platforms such as NFT market could timely update the images and related attributes of the NFT."
      },
      "Transfer(address,address,uint256)": {
        "details": "Emitted when `tokenId` token is transferred from `from` to `to`."
      }
    },
    "kind": "dev",
    "methods": {
      "approve(address,uint256)": {
        "details": "See {IERC721-approve}."
      },
      "balanceOf(address)": {
        "details": "See {IERC721-balanceOf}."
      },
      "getApproved(uint256)": {
        "details": "See {IERC721-getApproved}."
      },
      "isApprovedForAll(address,address)": {
        "details": "See {IERC721-isApprovedForAll}."
      },
      "name()": {
        "details": "See {IERC721Metadata-name}."
      },
      "ownerOf(uint256)": {
        "details": "See {IERC721-ownerOf}."
      },
      "safeTransferFrom(address,address,uint256)": {
        "details": "See {IERC721-safeTransferFrom}."
      },
      "safeTransferFrom(address,address,uint256,bytes)": {
        "details": "See {IERC721-safeTransferFrom}."
      },
      "setApprovalForAll(address,bool)": {
        "details": "See {IERC721-setApprovalForAll}."
      },
      "supportsInterface(bytes4)": {
        "details": "See {IERC165-supportsInterface}"
      },
      "symbol()": {
        "details": "See {IERC721Metadata-symbol}."
      },
      "tokenURI(uint256)": {
        "details": "See {IERC721Metadata-tokenURI}."
      },
      "transferFrom(address,address,uint256)": {
        "details": "See {IERC721-transferFrom}."
      }
    },
    "version": 1
  },
  "userdoc": {
    "kind": "user",
    "methods": {
      "listNFTAgain(uint256,uint256)": {
        "notice": "Owner calls this to relist their NFT at a new price"
      }
    },
    "version": 1
  }
}