{
  "contractName": "NFTAuction",
  "abi": [
    {
      "inputs": [],
      "stateMutability": "nonpayable",
      "type": "constructor"
    },
    {
      "anonymous": false,
      "inputs": [
        {
          "indexed": true,
          "internalType": "address",
          "name": "owner",
          "type": "address"
        },
        {
          "indexed": true,
          "internalType": "address",
          "name": "approved",
          "type": "address"
        },
        {
          "indexed": true,
          "internalType": "uint256",
          "name": "tokenId",
          "type": "uint256"
        }
      ],
      "name": "Approval",
      "type": "event"
    },
    {
      "anonymous": false,
      "inputs": [
        {
          "indexed": true,
          "internalType": "address",
          "name": "owner",
          "type": "address"
        },
        {
          "indexed": true,
          "internalType": "address",
          "name": "operator",
          "type": "address"
        },
        {
          "indexed": false,
          "internalType": "bool",
          "name": "approved",
          "type": "bool"
        }
      ],
      "name": "ApprovalForAll",
      "type": "event"
    },
    {
      "anonymous": false,
      "inputs": [
        {
          "indexed": false,
          "internalType": "uint256",
          "name": "_fromTokenId",
          "type": "uint256"
        },
        {
          "indexed": false,
          "internalType": "uint256",
          "name": "_toTokenId",
          "type": "uint256"
        }
      ],
      "name": "BatchMetadataUpdate",
      "type": "event"
    },
    {
      "anonymous": false,
      "inputs": [
        {
          "indexed": false,
          "internalType": "uint256",
          "name": "_tokenId",
          "type": "uint256"
        }
      ],
      "name": "MetadataUpdate",
      "type": "event"
    },
    {
      "anonymous": false,
      "inputs": [
        {
          "indexed": true,
          "internalType": "address",
          "name": "from",
          "type": "address"
        },
        {
          "indexed": true,
          "internalType": "address",
          "name": "to",
          "type": "address"
        },
        {
          "indexed": true,
          "internalType": "uint256",
          "name": "tokenId",
          "type": "uint256"
        }
      ],
      "name": "Transfer",
      "type": "event"
    },
    {
      "inputs": [
        {
          "internalType": "address",
          "name": "to",
          "type": "address"
        },
        {
          "internalType": "uint256",
          "name": "tokenId",
          "type": "uint256"
        }
      ],
      "name": "approve",
      "outputs": [],
      "stateMutability": "nonpayable",
      "type": "function"
    },
    {
      "inputs": [
        {
          "internalType": "address",
          "name": "owner",
          "type": "address"
        }
      ],
      "name": "balanceOf",
      "outputs": [
        {
          "internalType": "uint256",
          "name": "",
          "type": "uint256"
        }
      ],
      "stateMutability": "view",
      "type": "function",
      "constant": true
    },
    {
      "inputs": [
        {
          "internalType": "uint256",
          "name": "tokenId",
          "type": "uint256"
        }
      ],
      "name": "getApproved",
      "outputs": [
        {
          "internalType": "address",
          "name": "",
          "type": "address"
        }
      ],
      "stateMutability": "view",
      "type": "function",
      "constant": true
    },
    {
      "inputs": [
        {
          "internalType": "address",
          "name": "owner",
          "type": "address"
        },
        {
          "internalType": "address",
          "name": "operator",
          "type": "address"
        }
      ],
      "name": "isApprovedForAll",
      "outputs": [
        {
          "internalType": "bool",
          "name": "",
          "type": "bool"
        }
      ],
      "stateMutability": "view",
      "type": "function",
      "constant": true
    },
    {
      "inputs": [],
      "name": "name",
      "outputs": [
        {
          "internalType": "string",
          "name": "",
          "type": "string"
        }
      ],
      "stateMutability": "view",
      "type": "function",
      "constant": true
    },
    {
      "inputs": [
        {
          "internalType": "uint256",
          "name": "tokenId",
          "type": "uint256"
        }
      ],
      "name": "ownerOf",
      "outputs": [
        {
          "internalType": "address",
          "name": "",
          "type": "address"
        }
      ],
      "stateMutability": "view",
      "type": "function",
      "constant": true
    },
    {
      "inputs": [
        {
          "internalType": "address",
          "name": "from",
          "type": "address"
        },
        {
          "internalType": "address",
          "name": "to",
          "type": "address"
        },
        {
          "internalType": "uint256",
          "name": "tokenId",
          "type": "uint256"
        }
      ],
      "name": "safeTransferFrom",
      "outputs": [],
      "stateMutability": "nonpayable",
      "type": "function"
    },
    {
      "inputs": [
        {
          "internalType": "address",
          "name": "from",
          "type": "address"
        },
        {
          "internalType": "address",
          "name": "to",
          "type": "address"
        },
        {
          "internalType": "uint256",
          "name": "tokenId",
          "type": "uint256"
        },
        {
          "internalType": "bytes",
          "name": "data",
          "type": "bytes"
        }
      ],
      "name": "safeTransferFrom",
      "outputs": [],
      "stateMutability": "nonpayable",
      "type": "function"
    },
    {
      "inputs": [
        {
          "internalType": "address",
          "name": "operator",
          "type": "address"
        },
        {
          "internalType": "bool",
          "name": "approved",
          "type": "bool"
        }
      ],
      "name": "setApprovalForAll",
      "outputs": [],
      "stateMutability": "nonpayable",
      "type": "function"
    },
    {
      "inputs": [
        {
          "internalType": "bytes4",
          "name": "interfaceId",
          "type": "bytes4"
        }
      ],
      "name": "supportsInterface",
      "outputs": [
        {
          "internalType": "bool",
          "name": "",
          "type": "bool"
        }
      ],
      "stateMutability": "view",
      "type": "function",
      "constant": true
    },
    {
      "inputs": [],
      "name": "symbol",
      "outputs": [
        {
          "internalType": "string",
          "name": "",
          "type": "string"
        }
      ],
      "stateMutability": "view",
      "type": "function",
      "constant": true
    },
    {
      "inputs": [
        {
          "internalType": "uint256",
          "name": "tokenId",
          "type": "uint256"
        }
      ],
      "name": "tokenURI",
      "outputs": [
        {
          "internalType": "string",
          "name": "",
          "type": "string"
        }
      ],
      "stateMutability": "view",
      "type": "function",
      "constant": true
    },
    {
      "inputs": [
        {
          "internalType": "address",
          "name": "from",
          "type": "address"
        },
        {
          "internalType": "address",
          "name": "to",
          "type": "address"
        },
        {
          "internalType": "uint256",
          "name": "tokenId",
          "type": "uint256"
        }
      ],
      "name": "transferFrom",
      "outputs": [],
      "stateMutability": "nonpayable",
      "type": "function"
    },
    {
      "inputs": [
        {
          "internalType": "uint256",
          "name": "_listPrice",
          "type": "uint256"
        }
      ],
      "name": "updateListPrice",
      "outputs": [],
      "stateMutability": "payable",
      "type": "function",
      "payable": true
    },
    {
      "inputs": [],
      "name": "getListPrice",
      "outputs": [
        {
          "internalType": "uint256",
          "name": "",
          "type": "uint256"
        }
      ],
      "stateMutability": "view",
      "type": "function",
      "constant": true
    },
    {
      "inputs": [],
      "name": "getLatestIdToListedToken",
      "outputs": [
        {
          "components": [
            {
              "internalType": "uint256",
              "name": "tokenId",
              "type": "uint256"
            },
            {
              "internalType": "address payable",
              "name": "owner",
              "type": "address"
            },
            {
              "internalType": "address payable",
              "name": "seller",
              "type": "address"
            },
            {
              "internalType": "uint256",
              "name": "price",
              "type": "uint256"
            },
            {
              "internalType": "bool",
              "name": "currentlyListed",
              "type": "bool"
            }
          ],
          "internalType": "struct NFTAuction.ListedToken",
          "name": "",
          "type": "tuple"
        }
      ],
      "stateMutability": "view",
      "type": "function",
      "constant": true
    },
    {
      "inputs": [
        {
          "internalType": "uint256",
          "name": "tokenId",
          "type": "uint256"
        }
      ],
      "name": "getListedTokenForId",
      "outputs": [
        {
          "components": [
            {
              "internalType": "uint256",
              "name": "tokenId",
              "type": "uint256"
            },
            {
              "internalType": "address payable",
              "name": "owner",
              "type": "address"
            },
            {
              "internalType": "address payable",
              "name": "seller",
              "type": "address"
            },
            {
              "internalType": "uint256",
              "name": "price",
              "type": "uint256"
            },
            {
              "internalType": "bool",
              "name": "currentlyListed",
              "type": "bool"
            }
          ],
          "internalType": "struct NFTAuction.ListedToken",
          "name": "",
          "type": "tuple"
        }
      ],
      "stateMutability": "view",
      "type": "function",
      "constant": true
    },
    {
      "inputs": [],
      "name": "getCurrentToken",
      "outputs": [
        {
          "internalType": "uint256",
          "name": "",
          "type": "uint256"
        }
      ],
      "stateMutability": "view",
      "type": "function",
      "constant": true
    },
    {
      "inputs": [
        {
          "internalType": "string",
          "name": "tokenURI",
          "type": "string"
        },
        {
          "internalType": "uint256",
          "name": "price",
          "type": "uint256"
        }
      ],
      "name": "createToken",
      "outputs": [
        {
          "internalType": "uint256",
          "name": "",
          "type": "uint256"
        }
      ],
      "stateMutability": "nonpayable",
      "type": "function"
    },
    {
      "inputs": [],
      "name": "getAllNFTs",
      "outputs": [
        {
          "components": [
            {
              "internalType": "uint256",
              "name": "tokenId",
              "type": "uint256"
            },
            {
              "internalType": "address payable",
              "name": "owner",
              "type": "address"
            },
            {
              "internalType": "address payable",
              "name": "seller",
              "type": "address"
            },
            {
              "internalType": "uint256",
              "name": "price",
              "type": "uint256"
            },
            {
              "internalType": "bool",
              "name": "currentlyListed",
              "type": "bool"
            }
          ],
          "internalType": "struct NFTAuction.ListedToken[]",
          "name": "",
          "type": "tuple[]"
        }
      ],
      "stateMutability": "view",
      "type": "function",
      "constant": true
    },
    {
      "inputs": [
        {
          "internalType": "bool",
          "name": "profile",
          "type": "bool"
        }
      ],
      "name": "getMyNFTs",
      "outputs": [
        {
          "components": [
            {
              "internalType": "uint256",
              "name": "tokenId",
              "type": "uint256"
            },
            {
              "internalType": "address payable",
              "name": "owner",
              "type": "address"
            },
            {
              "internalType": "address payable",
              "name": "seller",
              "type": "address"
            },
            {
              "internalType": "uint256",
              "name": "price",
              "type": "uint256"
            },
            {
              "internalType": "bool",
              "name": "currentlyListed",
              "type": "bool"
            }
          ],
          "internalType": "struct NFTAuction.ListedToken[]",
          "name": "",
          "type": "tuple[]"
        }
      ],
      "stateMutability": "view",
      "type": "function",
      "constant": true
    },
    {
      "inputs": [],
      "name": "getMyNFTsForAuction",
      "outputs": [
        {
          "components": [
            {
              "internalType": "uint256",
              "name": "tokenId",
              "type": "uint256"
            },
            {
              "internalType": "address payable",
              "name": "owner",
              "type": "address"
            },
            {
              "internalType": "address payable",
              "name": "seller",
              "type": "address"
            },
            {
              "internalType": "uint256",
              "name": "price",
              "type": "uint256"
            },
            {
              "internalType": "bool",
              "name": "currentlyListed",
              "type": "bool"
            }
          ],
          "internalType": "struct NFTAuction.ListedToken[]",
          "name": "",
          "type": "tuple[]"
        }
      ],
      "stateMutability": "view",
      "type": "function",
      "constant": true
    },
    {
      "inputs": [],
      "name": "getMyNFTsForProfile",
      "outputs": [
        {
          "components": [
            {
              "internalType": "uint256",
              "name": "tokenId",
              "type": "uint256"
            },
            {
              "internalType": "address payable",
              "name": "owner",
              "type": "address"
            },
            {
              "internalType": "address payable",
              "name": "seller",
              "type": "address"
            },
            {
              "internalType": "uint256",
              "name": "price",
              "type": "uint256"
            },
            {
              "internalType": "bool",
              "name": "currentlyListed",
              "type": "bool"
            }
          ],
          "internalType": "struct NFTAuction.ListedToken[]",
          "name": "",
          "type": "tuple[]"
        }
      ],
      "stateMutability": "view",
      "type": "function",
      "constant": true
    },
    {
      "inputs": [
        {
          "internalType": "uint256",
          "name": "tokenId",
          "type": "uint256"
        }
      ],
      "name": "executeSale",
      "outputs": [],
      "stateMutability": "payable",
      "type": "function",
      "payable": true
    },
    {
      "inputs": [
        {
          "internalType": "uint256",
          "name": "tokenId",
          "type": "uint256"
        },
        {
          "internalType": "address",
          "name": "auctionContractAddress",
          "type": "address"
        }
      ],
      "name": "markTokenNotListed",
      "outputs": [],
      "stateMutability": "nonpayable",
      "type": "function"
    },
    {
      "inputs": [
        {
          "internalType": "uint256",
          "name": "tokenId",
          "type": "uint256"
        },
        {
          "internalType": "address",
          "name": "auctionContract",
          "type": "address"
        }
      ],
      "name": "approveTokenForAuction",
      "outputs": [],
      "stateMutability": "nonpayable",
      "type": "function"
    },
    {
      "inputs": [],
      "name": "getItemsMinted",
      "outputs": [
        {
          "internalType": "uint256",
          "name": "",
          "type": "uint256"
        }
      ],
      "stateMutability": "view",
      "type": "function",
      "constant": true
    },
    {
      "inputs": [
        {
          "internalType": "uint256",
          "name": "tokenId",
          "type": "uint256"
        }
      ],
      "name": "isTokenListed",
      "outputs": [
        {
          "internalType": "bool",
          "name": "",
          "type": "bool"
        }
      ],
      "stateMutability": "view",
      "type": "function",
      "constant": true
    },
    {
      "inputs": [
        {
          "internalType": "uint256",
          "name": "tokenId",
          "type": "uint256"
        },
        {
          "internalType": "bool",
          "name": "listed",
          "type": "bool"
        }
      ],
      "name": "setTokenListed",
      "outputs": [],
      "stateMutability": "nonpayable",
      "type": "function"
    },
    {
      "inputs": [
        {
          "internalType": "uint256",
          "name": "tokenId",
          "type": "uint256"
        },
        {
          "internalType": "uint256",
          "name": "price",
          "type": "uint256"
        }
      ],
      "name": "listNFTAgain",
      "outputs": [],
      "stateMutability": "payable",
      "type": "function",
      "payable": true
    },
    {
      "inputs": [
        {
          "internalType": "uint256",
          "name": "tokenId",
          "type": "uint256"
        },
        {
          "internalType": "address",
          "name": "newOwner",
          "type": "address"
        }
      ],
      "name": "updateOwner",
      "outputs": [],
      "stateMutability": "nonpayable",
      "type": "function"
    },
    {
      "inputs": [
        {
          "internalType": "uint256",
          "name": "tokenId",
          "type": "uint256"
        },
        {
          "internalType": "uint256",
          "name": "newPrice",
          "type": "uint256"
        }
      ],
      "name": "updatePrice",
      "outputs": [],
      "stateMutability": "nonpayable",
      "type": "function"
    }
  ],
  "bytecode": "0x6080604052662386f26fc10000600a553480156200001c57600080fd5b506040518060400160405280600c81526020017f41756374696f6e546f6b656e00000000000000000000000000000000000000008152506040518060400160405280600681526020017f415543544b4e000000000000000000000000000000000000000000000000000081525081600090816200009a919062000370565b508060019081620000ac919062000370565b50505033600960006101000a81548173ffffffffffffffffffffffffffffffffffffffff021916908373ffffffffffffffffffffffffffffffffffffffff16021790555062000457565b600081519050919050565b7f4e487b7100000000000000000000000000000000000000000000000000000000600052604160045260246000fd5b7f4e487b7100000000000000000000000000000000000000000000000000000000600052602260045260246000fd5b600060028204905060018216806200017857607f821691505b6020821081036200018e576200018d62000130565b5b50919050565b60008190508160005260206000209050919050565b60006020601f8301049050919050565b600082821b905092915050565b600060088302620001f87fffffffffffffffffffffffffffffffffffffffffffffffffffffffffffffffff82620001b9565b620002048683620001b9565b95508019841693508086168417925050509392505050565b6000819050919050565b6000819050919050565b6000620002516200024b62000245846200021c565b62000226565b6200021c565b9050919050565b6000819050919050565b6200026d8362000230565b620002856200027c8262000258565b848454620001c6565b825550505050565b600090565b6200029c6200028d565b620002a981848462000262565b505050565b5b81811015620002d157620002c560008262000292565b600181019050620002af565b5050565b601f8211156200032057620002ea8162000194565b620002f584620001a9565b8101602085101562000305578190505b6200031d6200031485620001a9565b830182620002ae565b50505b505050565b600082821c905092915050565b6000620003456000198460080262000325565b1980831691505092915050565b600062000360838362000332565b9150826002028217905092915050565b6200037b82620000f6565b67ffffffffffffffff81111562000397576200039662000101565b5b620003a382546200015f565b620003b0828285620002d5565b600060209050601f831160018114620003e85760008415620003d3578287015190505b620003df858262000352565b8655506200044f565b601f198416620003f88662000194565b60005b828110156200042257848901518255600182019150602085019450602081019050620003fb565b868310156200044257848901516200043e601f89168262000332565b8355505b6001600288020188555050505b505050505050565b61504b80620004676000396000f3fe6080604052600436106101e35760003560e01c806382367b2d11610102578063c322579c11610095578063e0391b0911610064578063e0391b09146106fd578063e985e9c514610728578063ef2d174614610765578063f309840e14610790576101e3565b8063c322579c14610650578063c87b56dd1461066c578063d1a88ae5146106a9578063dc4dc507146106d4576101e3565b80639b83cddc116100d15780639b83cddc14610584578063a22cb465146105c1578063aefb3f92146105ea578063b88d4fde14610627576101e3565b806382367b2d146104d75780638e2645901461050057806395d89b411461053d5780639b1225c414610568576101e3565b8063564592881161017a57806368f1945f1161014957806368f1945f1461040957806370a08231146104345780637192711f1461047157806372b3b6201461049a576101e3565b8063564592881461034d5780635933243a146103785780635f233464146103a35780636352211e146103cc576101e3565b8063108a9f51116101b6578063108a9f51146102b657806323b872dd146102df5780632c6de60d1461030857806342842e0e14610324576101e3565b806301ffc9a7146101e857806306fdde0314610225578063081812fc14610250578063095ea7b31461028d575b600080fd5b3480156101f457600080fd5b5061020f600480360381019061020a91906137a6565b6107bb565b60405161021c91906137ee565b60405180910390f35b34801561023157600080fd5b5061023a61081c565b6040516102479190613899565b60405180910390f35b34801561025c57600080fd5b50610277600480360381019061027291906138f1565b6108ae565b604051610284919061395f565b60405180910390f35b34801561029957600080fd5b506102b460048036038101906102af91906139a6565b6108f4565b005b3480156102c257600080fd5b506102dd60048036038101906102d891906139e6565b610a0b565b005b3480156102eb57600080fd5b5061030660048036038101906103019190613a26565b610b15565b005b610322600480360381019061031d9190613a79565b610b75565b005b34801561033057600080fd5b5061034b60048036038101906103469190613a26565b610db1565b005b34801561035957600080fd5b50610362610dd1565b60405161036f9190613ac8565b60405180910390f35b34801561038457600080fd5b5061038d610de2565b60405161039a9190613c39565b60405180910390f35b3480156103af57600080fd5b506103ca60048036038101906103c591906139e6565b6110d1565b005b3480156103d857600080fd5b506103f360048036038101906103ee91906138f1565b611299565b604051610400919061395f565b60405180910390f35b34801561041557600080fd5b5061041e61131f565b60405161042b9190613ac8565b60405180910390f35b34801561044057600080fd5b5061045b60048036038101906104569190613c5b565b611329565b6040516104689190613ac8565b60405180910390f35b34801561047d57600080fd5b50610498600480360381019061049391906139e6565b6113e0565b005b3480156104a657600080fd5b506104c160048036038101906104bc9190613dbd565b611439565b6040516104ce9190613ac8565b60405180910390f35b3480156104e357600080fd5b506104fe60048036038101906104f99190613a79565b6115e1565b005b34801561050c57600080fd5b50610527600480360381019061052291906138f1565b611600565b6040516105349190613e81565b60405180910390f35b34801561054957600080fd5b50610552611708565b60405161055f9190613899565b60405180910390f35b610582600480360381019061057d91906138f1565b61179a565b005b34801561059057600080fd5b506105ab60048036038101906105a691906138f1565b61198c565b6040516105b891906137ee565b60405180910390f35b3480156105cd57600080fd5b506105e860048036038101906105e39190613ec8565b6119b9565b005b3480156105f657600080fd5b50610611600480360381019061060c9190613f08565b6119cf565b60405161061e9190613c39565b60405180910390f35b34801561063357600080fd5b5061064e60048036038101906106499190613fd6565b611cef565b005b61066a600480360381019061066591906138f1565b611d51565b005b34801561067857600080fd5b50610693600480360381019061068e91906138f1565b611deb565b6040516106a09190613899565b60405180910390f35b3480156106b557600080fd5b506106be611efd565b6040516106cb9190613e81565b60405180910390f35b3480156106e057600080fd5b506106fb60048036038101906106f69190614059565b612012565b005b34801561070957600080fd5b50610712612173565b60405161071f9190613c39565b60405180910390f35b34801561073457600080fd5b5061074f600480360381019061074a9190614099565b612369565b60405161075c91906137ee565b60405180910390f35b34801561077157600080fd5b5061077a6123fd565b6040516107879190613ac8565b60405180910390f35b34801561079c57600080fd5b506107a561240e565b6040516107b29190613c39565b60405180910390f35b6000634906490660e01b7bffffffffffffffffffffffffffffffffffffffffffffffffffffffff1916827bffffffffffffffffffffffffffffffffffffffffffffffffffffffff191614806108155750610814826126fd565b5b9050919050565b60606000805461082b90614108565b80601f016020809104026020016040519081016040528092919081815260200182805461085790614108565b80156108a45780601f10610879576101008083540402835291602001916108a4565b820191906000526020600020905b81548152906001019060200180831161088757829003601f168201915b5050505050905090565b60006108b9826127df565b6004600083815260200190815260200160002060009054906101000a900473ffffffffffffffffffffffffffffffffffffffff169050919050565b60006108ff82611299565b90508073ffffffffffffffffffffffffffffffffffffffff168373ffffffffffffffffffffffffffffffffffffffff160361096f576040517f08c379a0000000000000000000000000000000000000000000000000000000008152600401610966906141ab565b60405180910390fd5b8073ffffffffffffffffffffffffffffffffffffffff1661098e61282a565b73ffffffffffffffffffffffffffffffffffffffff1614806109bd57506109bc816109b761282a565b612369565b5b6109fc576040517f08c379a00000000000000000000000000000000000000000000000000000000081526004016109f39061423d565b60405180910390fd5b610a068383612832565b505050565b3373ffffffffffffffffffffffffffffffffffffffff16600b600084815260200190815260200160002060020160009054906101000a900473ffffffffffffffffffffffffffffffffffffffff1673ffffffffffffffffffffffffffffffffffffffff161480610ac857503373ffffffffffffffffffffffffffffffffffffffff16600960009054906101000a900473ffffffffffffffffffffffffffffffffffffffff1673ffffffffffffffffffffffffffffffffffffffff16145b610b07576040517f08c379a0000000000000000000000000000000000000000000000000000000008152600401610afe906142a9565b60405180910390fd5b610b118183612832565b5050565b610b26610b2061282a565b826128eb565b610b65576040517f08c379a0000000000000000000000000000000000000000000000000000000008152600401610b5c9061433b565b60405180910390fd5b610b70838383612980565b505050565b600a543414610bb9576040517f08c379a0000000000000000000000000000000000000000000000000000000008152600401610bb0906143cd565b60405180910390fd5b3373ffffffffffffffffffffffffffffffffffffffff16610bd983611299565b73ffffffffffffffffffffffffffffffffffffffff1614610c2f576040517f08c379a0000000000000000000000000000000000000000000000000000000008152600401610c2690614439565b60405180910390fd5b600b600083815260200190815260200160002060040160009054906101000a900460ff1615610c93576040517f08c379a0000000000000000000000000000000000000000000000000000000008152600401610c8a906144a5565b60405180910390fd5b610c9e333084612980565b81600b60008481526020019081526020016000206000018190555080600b6000848152602001908152602001600020600301819055506001600b600084815260200190815260200160002060040160006101000a81548160ff02191690831515021790555033600b600084815260200190815260200160002060020160006101000a81548173ffffffffffffffffffffffffffffffffffffffff021916908373ffffffffffffffffffffffffffffffffffffffff16021790555030600b600084815260200190815260200160002060010160006101000a81548173ffffffffffffffffffffffffffffffffffffffff021916908373ffffffffffffffffffffffffffffffffffffffff1602179055505050565b610dcc83838360405180602001604052806000815250611cef565b505050565b6000610ddd6007612c79565b905090565b60606000610df06007612c79565b9050600080600080600090505b84811015610e9d573373ffffffffffffffffffffffffffffffffffffffff16600b6000600184610e2d91906144f4565b815260200190815260200160002060010160009054906101000a900473ffffffffffffffffffffffffffffffffffffffff1673ffffffffffffffffffffffffffffffffffffffff1603610e8a57600184610e8791906144f4565b93505b8080610e9590614528565b915050610dfd565b5060008367ffffffffffffffff811115610eba57610eb9613c92565b5b604051908082528060200260200182016040528015610ef357816020015b610ee06136dd565b815260200190600190039081610ed85790505b50905060005b858110156110c5573373ffffffffffffffffffffffffffffffffffffffff16600b6000600184610f2991906144f4565b815260200190815260200160002060010160009054906101000a900473ffffffffffffffffffffffffffffffffffffffff1673ffffffffffffffffffffffffffffffffffffffff16036110b257600181610f8391906144f4565b92506000600b60008581526020019081526020016000209050806040518060a0016040529081600082015481526020016001820160009054906101000a900473ffffffffffffffffffffffffffffffffffffffff1673ffffffffffffffffffffffffffffffffffffffff1673ffffffffffffffffffffffffffffffffffffffff1681526020016002820160009054906101000a900473ffffffffffffffffffffffffffffffffffffffff1673ffffffffffffffffffffffffffffffffffffffff1673ffffffffffffffffffffffffffffffffffffffff168152602001600382015481526020016004820160009054906101000a900460ff16151515158152505083868151811061109657611095614570565b5b60200260200101819052506001856110ae91906144f4565b9450505b80806110bd90614528565b915050610ef9565b50809550505050505090565b600b600083815260200190815260200160002060040160009054906101000a900460ff16611134576040517f08c379a000000000000000000000000000000000000000000000000000000000815260040161112b906145eb565b60405180910390fd5b600960009054906101000a900473ffffffffffffffffffffffffffffffffffffffff1673ffffffffffffffffffffffffffffffffffffffff163373ffffffffffffffffffffffffffffffffffffffff1614806111f157503373ffffffffffffffffffffffffffffffffffffffff16600b600084815260200190815260200160002060020160009054906101000a900473ffffffffffffffffffffffffffffffffffffffff1673ffffffffffffffffffffffffffffffffffffffff16145b8061122757508073ffffffffffffffffffffffffffffffffffffffff163373ffffffffffffffffffffffffffffffffffffffff16145b611266576040517f08c379a000000000000000000000000000000000000000000000000000000000815260040161125d906142a9565b60405180910390fd5b6000600b600084815260200190815260200160002060040160006101000a81548160ff0219169083151502179055505050565b6000806112a583612c87565b9050600073ffffffffffffffffffffffffffffffffffffffff168173ffffffffffffffffffffffffffffffffffffffff1603611316576040517f08c379a000000000000000000000000000000000000000000000000000000000815260040161130d90614657565b60405180910390fd5b80915050919050565b6000600a54905090565b60008073ffffffffffffffffffffffffffffffffffffffff168273ffffffffffffffffffffffffffffffffffffffff1603611399576040517f08c379a0000000000000000000000000000000000000000000000000000000008152600401611390906146e9565b60405180910390fd5b600360008373ffffffffffffffffffffffffffffffffffffffff1673ffffffffffffffffffffffffffffffffffffffff168152602001908152602001600020549050919050565b80600b600084815260200190815260200160002060010160006101000a81548173ffffffffffffffffffffffffffffffffffffffff021916908373ffffffffffffffffffffffffffffffffffffffff1602179055505050565b600080821161147d576040517f08c379a000000000000000000000000000000000000000000000000000000000815260040161147490614755565b60405180910390fd5b6114876007612cc4565b60006114936007612c79565b905061149f3382612cda565b6114a98185612cf8565b6040518060a001604052808281526020013373ffffffffffffffffffffffffffffffffffffffff1681526020013373ffffffffffffffffffffffffffffffffffffffff16815260200184815260200160001515815250600b60008381526020019081526020016000206000820151816000015560208201518160010160006101000a81548173ffffffffffffffffffffffffffffffffffffffff021916908373ffffffffffffffffffffffffffffffffffffffff16021790555060408201518160020160006101000a81548173ffffffffffffffffffffffffffffffffffffffff021916908373ffffffffffffffffffffffffffffffffffffffff1602179055506060820151816003015560808201518160040160006101000a81548160ff0219169083151502179055509050508091505092915050565b80600b6000848152602001908152602001600020600301819055505050565b6116086136dd565b600b60008381526020019081526020016000206040518060a0016040529081600082015481526020016001820160009054906101000a900473ffffffffffffffffffffffffffffffffffffffff1673ffffffffffffffffffffffffffffffffffffffff1673ffffffffffffffffffffffffffffffffffffffff1681526020016002820160009054906101000a900473ffffffffffffffffffffffffffffffffffffffff1673ffffffffffffffffffffffffffffffffffffffff1673ffffffffffffffffffffffffffffffffffffffff168152602001600382015481526020016004820160009054906101000a900460ff1615151515815250509050919050565b60606001805461171790614108565b80601f016020809104026020016040519081016040528092919081815260200182805461174390614108565b80156117905780601f1061176557610100808354040283529160200191611790565b820191906000526020600020905b81548152906001019060200180831161177357829003601f168201915b5050505050905090565b6000600b60008381526020019081526020016000206003015490506000600b600084815260200190815260200160002060020160009054906101000a900473ffffffffffffffffffffffffffffffffffffffff169050813414611832576040517f08c379a0000000000000000000000000000000000000000000000000000000008152600401611829906147e7565b60405180910390fd5b6000600b600085815260200190815260200160002060040160006101000a81548160ff02191690831515021790555033600b600085815260200190815260200160002060020160006101000a81548173ffffffffffffffffffffffffffffffffffffffff021916908373ffffffffffffffffffffffffffffffffffffffff1602179055506118c06008612cc4565b6118cb303385612980565b6118d530846108f4565b600960009054906101000a900473ffffffffffffffffffffffffffffffffffffffff1673ffffffffffffffffffffffffffffffffffffffff166108fc600a549081150290604051600060405180830381858888f1935050505015801561193f573d6000803e3d6000fd5b508073ffffffffffffffffffffffffffffffffffffffff166108fc349081150290604051600060405180830381858888f19350505050158015611986573d6000803e3d6000fd5b50505050565b6000600b600083815260200190815260200160002060040160009054906101000a900460ff169050919050565b6119cb6119c461282a565b8383612d9c565b5050565b606060006119dd6007612c79565b9050600080600080600090505b84811015611a8a573373ffffffffffffffffffffffffffffffffffffffff16600b6000600184611a1a91906144f4565b815260200190815260200160002060010160009054906101000a900473ffffffffffffffffffffffffffffffffffffffff1673ffffffffffffffffffffffffffffffffffffffff1603611a7757600184611a7491906144f4565b93505b8080611a8290614528565b9150506119ea565b5060008367ffffffffffffffff811115611aa757611aa6613c92565b5b604051908082528060200260200182016040528015611ae057816020015b611acd6136dd565b815260200190600190039081611ac55790505b50905060005b85811015611ce1573373ffffffffffffffffffffffffffffffffffffffff16600b6000600184611b1691906144f4565b815260200190815260200160002060010160009054906101000a900473ffffffffffffffffffffffffffffffffffffffff1673ffffffffffffffffffffffffffffffffffffffff1603611ccd57600181611b7091906144f4565b92506000600b6000858152602001908152602001600020905088158015611bac5750600015158160040160009054906101000a900460ff161515145b15611bb75750611cce565b806040518060a0016040529081600082015481526020016001820160009054906101000a900473ffffffffffffffffffffffffffffffffffffffff1673ffffffffffffffffffffffffffffffffffffffff1673ffffffffffffffffffffffffffffffffffffffff1681526020016002820160009054906101000a900473ffffffffffffffffffffffffffffffffffffffff1673ffffffffffffffffffffffffffffffffffffffff1673ffffffffffffffffffffffffffffffffffffffff168152602001600382015481526020016004820160009054906101000a900460ff161515151581525050838681518110611cb157611cb0614570565b5b6020026020010181905250600185611cc991906144f4565b9450505b5b8080611cd990614528565b915050611ae6565b508095505050505050919050565b611d00611cfa61282a565b836128eb565b611d3f576040517f08c379a0000000000000000000000000000000000000000000000000000000008152600401611d369061433b565b60405180910390fd5b611d4b84848484612f08565b50505050565b3373ffffffffffffffffffffffffffffffffffffffff16600960009054906101000a900473ffffffffffffffffffffffffffffffffffffffff1673ffffffffffffffffffffffffffffffffffffffff1614611de1576040517f08c379a0000000000000000000000000000000000000000000000000000000008152600401611dd890614879565b60405180910390fd5b80600a8190555050565b6060611df6826127df565b6000600660008481526020019081526020016000208054611e1690614108565b80601f0160208091040260200160405190810160405280929190818152602001828054611e4290614108565b8015611e8f5780601f10611e6457610100808354040283529160200191611e8f565b820191906000526020600020905b815481529060010190602001808311611e7257829003601f168201915b505050505090506000611ea0612f64565b90506000815103611eb5578192505050611ef8565b600082511115611eea578082604051602001611ed29291906148d5565b60405160208183030381529060405292505050611ef8565b611ef384612f7b565b925050505b919050565b611f056136dd565b6000611f116007612c79565b9050600b60008281526020019081526020016000206040518060a0016040529081600082015481526020016001820160009054906101000a900473ffffffffffffffffffffffffffffffffffffffff1673ffffffffffffffffffffffffffffffffffffffff1673ffffffffffffffffffffffffffffffffffffffff1681526020016002820160009054906101000a900473ffffffffffffffffffffffffffffffffffffffff1673ffffffffffffffffffffffffffffffffffffffff1673ffffffffffffffffffffffffffffffffffffffff168152602001600382015481526020016004820160009054906101000a900460ff16151515158152505091505090565b8061214057600b600083815260200190815260200160002060040160009054906101000a900460ff161561210c576000600b600084815260200190815260200160002060020160009054906101000a900473ffffffffffffffffffffffffffffffffffffffff169050612086308285612980565b6000600b600085815260200190815260200160002060040160006101000a81548160ff02191690831515021790555080600b600085815260200190815260200160002060010160006101000a81548173ffffffffffffffffffffffffffffffffffffffff021916908373ffffffffffffffffffffffffffffffffffffffff160217905550505b6000600b600084815260200190815260200160002060040160006101000a81548160ff02191690831515021790555061216f565b80600b600084815260200190815260200160002060040160006101000a81548160ff0219169083151502179055505b5050565b606060006121816007612c79565b905060008167ffffffffffffffff81111561219f5761219e613c92565b5b6040519080825280602002602001820160405280156121d857816020015b6121c56136dd565b8152602001906001900390816121bd5790505b50905060008080600090505b8481101561235e576001816121f991906144f4565b91506000600b60008481526020019081526020016000209050600015158160040160009054906101000a900460ff16151503612235575061234b565b806040518060a0016040529081600082015481526020016001820160009054906101000a900473ffffffffffffffffffffffffffffffffffffffff1673ffffffffffffffffffffffffffffffffffffffff1673ffffffffffffffffffffffffffffffffffffffff1681526020016002820160009054906101000a900473ffffffffffffffffffffffffffffffffffffffff1673ffffffffffffffffffffffffffffffffffffffff1673ffffffffffffffffffffffffffffffffffffffff168152602001600382015481526020016004820160009054906101000a900460ff16151515158152505085858151811061232f5761232e614570565b5b602002602001018190525060018461234791906144f4565b9350505b808061235690614528565b9150506121e4565b508294505050505090565b6000600560008473ffffffffffffffffffffffffffffffffffffffff1673ffffffffffffffffffffffffffffffffffffffff16815260200190815260200160002060008373ffffffffffffffffffffffffffffffffffffffff1673ffffffffffffffffffffffffffffffffffffffff16815260200190815260200160002060009054906101000a900460ff16905092915050565b60006124096007612c79565b905090565b6060600061241c6007612c79565b9050600080600080600090505b848110156124c9573373ffffffffffffffffffffffffffffffffffffffff16600b600060018461245991906144f4565b815260200190815260200160002060020160009054906101000a900473ffffffffffffffffffffffffffffffffffffffff1673ffffffffffffffffffffffffffffffffffffffff16036124b6576001846124b391906144f4565b93505b80806124c190614528565b915050612429565b5060008367ffffffffffffffff8111156124e6576124e5613c92565b5b60405190808252806020026020018201604052801561251f57816020015b61250c6136dd565b8152602001906001900390816125045790505b50905060005b858110156126f1573373ffffffffffffffffffffffffffffffffffffffff16600b600060018461255591906144f4565b815260200190815260200160002060020160009054906101000a900473ffffffffffffffffffffffffffffffffffffffff1673ffffffffffffffffffffffffffffffffffffffff16036126de576001816125af91906144f4565b92506000600b60008581526020019081526020016000209050806040518060a0016040529081600082015481526020016001820160009054906101000a900473ffffffffffffffffffffffffffffffffffffffff1673ffffffffffffffffffffffffffffffffffffffff1673ffffffffffffffffffffffffffffffffffffffff1681526020016002820160009054906101000a900473ffffffffffffffffffffffffffffffffffffffff1673ffffffffffffffffffffffffffffffffffffffff1673ffffffffffffffffffffffffffffffffffffffff168152602001600382015481526020016004820160009054906101000a900460ff1615151515815250508386815181106126c2576126c1614570565b5b60200260200101819052506001856126da91906144f4565b9450505b80806126e990614528565b915050612525565b50809550505050505090565b60007f80ac58cd000000000000000000000000000000000000000000000000000000007bffffffffffffffffffffffffffffffffffffffffffffffffffffffff1916827bffffffffffffffffffffffffffffffffffffffffffffffffffffffff191614806127c857507f5b5e139f000000000000000000000000000000000000000000000000000000007bffffffffffffffffffffffffffffffffffffffffffffffffffffffff1916827bffffffffffffffffffffffffffffffffffffffffffffffffffffffff1916145b806127d857506127d782612fe3565b5b9050919050565b6127e88161304d565b612827576040517f08c379a000000000000000000000000000000000000000000000000000000000815260040161281e90614657565b60405180910390fd5b50565b600033905090565b816004600083815260200190815260200160002060006101000a81548173ffffffffffffffffffffffffffffffffffffffff021916908373ffffffffffffffffffffffffffffffffffffffff160217905550808273ffffffffffffffffffffffffffffffffffffffff166128a583611299565b73ffffffffffffffffffffffffffffffffffffffff167f8c5be1e5ebec7d5bd14f71427d1e84f3dd0314c0f7b2291e5b200ac8c7c3b92560405160405180910390a45050565b6000806128f783611299565b90508073ffffffffffffffffffffffffffffffffffffffff168473ffffffffffffffffffffffffffffffffffffffff16148061293957506129388185612369565b5b8061297757508373ffffffffffffffffffffffffffffffffffffffff1661295f846108ae565b73ffffffffffffffffffffffffffffffffffffffff16145b91505092915050565b8273ffffffffffffffffffffffffffffffffffffffff166129a082611299565b73ffffffffffffffffffffffffffffffffffffffff16146129f6576040517f08c379a00000000000000000000000000000000000000000000000000000000081526004016129ed9061496b565b60405180910390fd5b600073ffffffffffffffffffffffffffffffffffffffff168273ffffffffffffffffffffffffffffffffffffffff1603612a65576040517f08c379a0000000000000000000000000000000000000000000000000000000008152600401612a5c906149fd565b60405180910390fd5b612a72838383600161308e565b8273ffffffffffffffffffffffffffffffffffffffff16612a9282611299565b73ffffffffffffffffffffffffffffffffffffffff1614612ae8576040517f08c379a0000000000000000000000000000000000000000000000000000000008152600401612adf9061496b565b60405180910390fd5b6004600082815260200190815260200160002060006101000a81549073ffffffffffffffffffffffffffffffffffffffff02191690556001600360008573ffffffffffffffffffffffffffffffffffffffff1673ffffffffffffffffffffffffffffffffffffffff168152602001908152602001600020600082825403925050819055506001600360008473ffffffffffffffffffffffffffffffffffffffff1673ffffffffffffffffffffffffffffffffffffffff16815260200190815260200160002060008282540192505081905550816002600083815260200190815260200160002060006101000a81548173ffffffffffffffffffffffffffffffffffffffff021916908373ffffffffffffffffffffffffffffffffffffffff160217905550808273ffffffffffffffffffffffffffffffffffffffff168473ffffffffffffffffffffffffffffffffffffffff167fddf252ad1be2c89b69c2b068fc378daa952ba7f163c4a11628f55a4df523b3ef60405160405180910390a4612c748383836001613094565b505050565b600081600001549050919050565b60006002600083815260200190815260200160002060009054906101000a900473ffffffffffffffffffffffffffffffffffffffff169050919050565b6001816000016000828254019250508190555050565b612cf482826040518060200160405280600081525061309a565b5050565b612d018261304d565b612d40576040517f08c379a0000000000000000000000000000000000000000000000000000000008152600401612d3790614a8f565b60405180910390fd5b80600660008481526020019081526020016000209081612d609190614c5b565b507ff8e1a15aba9398e019f0b49df1a4fde98ee17ae345cb5f6b5e2c27f5033e8ce782604051612d909190613ac8565b60405180910390a15050565b8173ffffffffffffffffffffffffffffffffffffffff168373ffffffffffffffffffffffffffffffffffffffff1603612e0a576040517f08c379a0000000000000000000000000000000000000000000000000000000008152600401612e0190614d79565b60405180910390fd5b80600560008573ffffffffffffffffffffffffffffffffffffffff1673ffffffffffffffffffffffffffffffffffffffff16815260200190815260200160002060008473ffffffffffffffffffffffffffffffffffffffff1673ffffffffffffffffffffffffffffffffffffffff16815260200190815260200160002060006101000a81548160ff0219169083151502179055508173ffffffffffffffffffffffffffffffffffffffff168373ffffffffffffffffffffffffffffffffffffffff167f17307eab39ab6107e8899845ad3d59bd9653f200f220920489ca2b5937696c3183604051612efb91906137ee565b60405180910390a3505050565b612f13848484612980565b612f1f848484846130f5565b612f5e576040517f08c379a0000000000000000000000000000000000000000000000000000000008152600401612f5590614e0b565b60405180910390fd5b50505050565b606060405180602001604052806000815250905090565b6060612f86826127df565b6000612f90612f64565b90506000815111612fb05760405180602001604052806000815250612fdb565b80612fba8461327c565b604051602001612fcb9291906148d5565b6040516020818303038152906040525b915050919050565b60007f01ffc9a7000000000000000000000000000000000000000000000000000000007bffffffffffffffffffffffffffffffffffffffffffffffffffffffff1916827bffffffffffffffffffffffffffffffffffffffffffffffffffffffff1916149050919050565b60008073ffffffffffffffffffffffffffffffffffffffff1661306f83612c87565b73ffffffffffffffffffffffffffffffffffffffff1614159050919050565b50505050565b50505050565b6130a4838361334a565b6130b160008484846130f5565b6130f0576040517f08c379a00000000000000000000000000000000000000000000000000000000081526004016130e790614e0b565b60405180910390fd5b505050565b60006131168473ffffffffffffffffffffffffffffffffffffffff16613567565b1561326f578373ffffffffffffffffffffffffffffffffffffffff1663150b7a0261313f61282a565b8786866040518563ffffffff1660e01b81526004016131619493929190614e80565b6020604051808303816000875af192505050801561319d57506040513d601f19601f8201168201806040525081019061319a9190614ee1565b60015b61321f573d80600081146131cd576040519150601f19603f3d011682016040523d82523d6000602084013e6131d2565b606091505b506000815103613217576040517f08c379a000000000000000000000000000000000000000000000000000000000815260040161320e90614e0b565b60405180910390fd5b805181602001fd5b63150b7a0260e01b7bffffffffffffffffffffffffffffffffffffffffffffffffffffffff1916817bffffffffffffffffffffffffffffffffffffffffffffffffffffffff191614915050613274565b600190505b949350505050565b60606000600161328b8461358a565b01905060008167ffffffffffffffff8111156132aa576132a9613c92565b5b6040519080825280601f01601f1916602001820160405280156132dc5781602001600182028036833780820191505090505b509050600082602001820190505b60011561333f578080600190039150507f3031323334353637383961626364656600000000000000000000000000000000600a86061a8153600a858161333357613332614f0e565b5b049450600085036132ea575b819350505050919050565b600073ffffffffffffffffffffffffffffffffffffffff168273ffffffffffffffffffffffffffffffffffffffff16036133b9576040517f08c379a00000000000000000000000000000000000000000000000000000000081526004016133b090614f89565b60405180910390fd5b6133c28161304d565b15613402576040517f08c379a00000000000000000000000000000000000000000000000000000000081526004016133f990614ff5565b60405180910390fd5b61341060008383600161308e565b6134198161304d565b15613459576040517f08c379a000000000000000000000000000000000000000000000000000000000815260040161345090614ff5565b60405180910390fd5b6001600360008473ffffffffffffffffffffffffffffffffffffffff1673ffffffffffffffffffffffffffffffffffffffff16815260200190815260200160002060008282540192505081905550816002600083815260200190815260200160002060006101000a81548173ffffffffffffffffffffffffffffffffffffffff021916908373ffffffffffffffffffffffffffffffffffffffff160217905550808273ffffffffffffffffffffffffffffffffffffffff16600073ffffffffffffffffffffffffffffffffffffffff167fddf252ad1be2c89b69c2b068fc378daa952ba7f163c4a11628f55a4df523b3ef60405160405180910390a4613563600083836001613094565b5050565b6000808273ffffffffffffffffffffffffffffffffffffffff163b119050919050565b600080600090507a184f03e93ff9f4daa797ed6e38ed64bf6a1f01000000000000000083106135e8577a184f03e93ff9f4daa797ed6e38ed64bf6a1f01000000000000000083816135de576135dd614f0e565b5b0492506040810190505b6d04ee2d6d415b85acef81000000008310613625576d04ee2d6d415b85acef8100000000838161361b5761361a614f0e565b5b0492506020810190505b662386f26fc10000831061365457662386f26fc10000838161364a57613649614f0e565b5b0492506010810190505b6305f5e100831061367d576305f5e100838161367357613672614f0e565b5b0492506008810190505b61271083106136a257612710838161369857613697614f0e565b5b0492506004810190505b606483106136c557606483816136bb576136ba614f0e565b5b0492506002810190505b600a83106136d4576001810190505b80915050919050565b6040518060a0016040528060008152602001600073ffffffffffffffffffffffffffffffffffffffff168152602001600073ffffffffffffffffffffffffffffffffffffffff168152602001600081526020016000151581525090565b6000604051905090565b600080fd5b600080fd5b60007fffffffff0000000000000000000000000000000000000000000000000000000082169050919050565b6137838161374e565b811461378e57600080fd5b50565b6000813590506137a08161377a565b92915050565b6000602082840312156137bc576137bb613744565b5b60006137ca84828501613791565b91505092915050565b60008115159050919050565b6137e8816137d3565b82525050565b600060208201905061380360008301846137df565b92915050565b600081519050919050565b600082825260208201905092915050565b60005b83811015613843578082015181840152602081019050613828565b60008484015250505050565b6000601f19601f8301169050919050565b600061386b82613809565b6138758185613814565b9350613885818560208601613825565b61388e8161384f565b840191505092915050565b600060208201905081810360008301526138b38184613860565b905092915050565b6000819050919050565b6138ce816138bb565b81146138d957600080fd5b50565b6000813590506138eb816138c5565b92915050565b60006020828403121561390757613906613744565b5b6000613915848285016138dc565b91505092915050565b600073ffffffffffffffffffffffffffffffffffffffff82169050919050565b60006139498261391e565b9050919050565b6139598161393e565b82525050565b60006020820190506139746000830184613950565b92915050565b6139838161393e565b811461398e57600080fd5b50565b6000813590506139a08161397a565b92915050565b600080604083850312156139bd576139bc613744565b5b60006139cb85828601613991565b92505060206139dc858286016138dc565b9150509250929050565b600080604083850312156139fd576139fc613744565b5b6000613a0b858286016138dc565b9250506020613a1c85828601613991565b9150509250929050565b600080600060608486031215613a3f57613a3e613744565b5b6000613a4d86828701613991565b9350506020613a5e86828701613991565b9250506040613a6f868287016138dc565b9150509250925092565b60008060408385031215613a9057613a8f613744565b5b6000613a9e858286016138dc565b9250506020613aaf858286016138dc565b9150509250929050565b613ac2816138bb565b82525050565b6000602082019050613add6000830184613ab9565b92915050565b600081519050919050565b600082825260208201905092915050565b6000819050602082019050919050565b613b18816138bb565b82525050565b6000613b298261391e565b9050919050565b613b3981613b1e565b82525050565b613b48816137d3565b82525050565b60a082016000820151613b646000850182613b0f565b506020820151613b776020850182613b30565b506040820151613b8a6040850182613b30565b506060820151613b9d6060850182613b0f565b506080820151613bb06080850182613b3f565b50505050565b6000613bc28383613b4e565b60a08301905092915050565b6000602082019050919050565b6000613be682613ae3565b613bf08185613aee565b9350613bfb83613aff565b8060005b83811015613c2c578151613c138882613bb6565b9750613c1e83613bce565b925050600181019050613bff565b5085935050505092915050565b60006020820190508181036000830152613c538184613bdb565b905092915050565b600060208284031215613c7157613c70613744565b5b6000613c7f84828501613991565b91505092915050565b600080fd5b600080fd5b7f4e487b7100000000000000000000000000000000000000000000000000000000600052604160045260246000fd5b613cca8261384f565b810181811067ffffffffffffffff82111715613ce957613ce8613c92565b5b80604052505050565b6000613cfc61373a565b9050613d088282613cc1565b919050565b600067ffffffffffffffff821115613d2857613d27613c92565b5b613d318261384f565b9050602081019050919050565b82818337600083830152505050565b6000613d60613d5b84613d0d565b613cf2565b905082815260208101848484011115613d7c57613d7b613c8d565b5b613d87848285613d3e565b509392505050565b600082601f830112613da457613da3613c88565b5b8135613db4848260208601613d4d565b91505092915050565b60008060408385031215613dd457613dd3613744565b5b600083013567ffffffffffffffff811115613df257613df1613749565b5b613dfe85828601613d8f565b9250506020613e0f858286016138dc565b9150509250929050565b60a082016000820151613e2f6000850182613b0f565b506020820151613e426020850182613b30565b506040820151613e556040850182613b30565b506060820151613e686060850182613b0f565b506080820151613e7b6080850182613b3f565b50505050565b600060a082019050613e966000830184613e19565b92915050565b613ea5816137d3565b8114613eb057600080fd5b50565b600081359050613ec281613e9c565b92915050565b60008060408385031215613edf57613ede613744565b5b6000613eed85828601613991565b9250506020613efe85828601613eb3565b9150509250929050565b600060208284031215613f1e57613f1d613744565b5b6000613f2c84828501613eb3565b91505092915050565b600067ffffffffffffffff821115613f5057613f4f613c92565b5b613f598261384f565b9050602081019050919050565b6000613f79613f7484613f35565b613cf2565b905082815260208101848484011115613f9557613f94613c8d565b5b613fa0848285613d3e565b509392505050565b600082601f830112613fbd57613fbc613c88565b5b8135613fcd848260208601613f66565b91505092915050565b60008060008060808587031215613ff057613fef613744565b5b6000613ffe87828801613991565b945050602061400f87828801613991565b9350506040614020878288016138dc565b925050606085013567ffffffffffffffff81111561404157614040613749565b5b61404d87828801613fa8565b91505092959194509250565b600080604083850312156140705761406f613744565b5b600061407e858286016138dc565b925050602061408f85828601613eb3565b9150509250929050565b600080604083850312156140b0576140af613744565b5b60006140be85828601613991565b92505060206140cf85828601613991565b9150509250929050565b7f4e487b7100000000000000000000000000000000000000000000000000000000600052602260045260246000fd5b6000600282049050600182168061412057607f821691505b602082108103614133576141326140d9565b5b50919050565b7f4552433732313a20617070726f76616c20746f2063757272656e74206f776e6560008201527f7200000000000000000000000000000000000000000000000000000000000000602082015250565b6000614195602183613814565b91506141a082614139565b604082019050919050565b600060208201905081810360008301526141c481614188565b9050919050565b7f4552433732313a20617070726f76652063616c6c6572206973206e6f7420746f60008201527f6b656e206f776e6572206f7220617070726f76656420666f7220616c6c000000602082015250565b6000614227603d83613814565b9150614232826141cb565b604082019050919050565b600060208201905081810360008301526142568161421a565b9050919050565b7f4e6f7420617574686f72697a6564000000000000000000000000000000000000600082015250565b6000614293600e83613814565b915061429e8261425d565b602082019050919050565b600060208201905081810360008301526142c281614286565b9050919050565b7f4552433732313a2063616c6c6572206973206e6f7420746f6b656e206f776e6560008201527f72206f7220617070726f76656400000000000000000000000000000000000000602082015250565b6000614325602d83613814565b9150614330826142c9565b604082019050919050565b6000602082019050818103600083015261435481614318565b9050919050565b7f486f706566756c6c792073656e64696e672074686520636f727265637420707260008201527f6963650000000000000000000000000000000000000000000000000000000000602082015250565b60006143b7602383613814565b91506143c28261435b565b604082019050919050565b600060208201905081810360008301526143e6816143aa565b9050919050565b7f4f6e6c79206f776e65722063616e206c697374207468697320746f6b656e0000600082015250565b6000614423601e83613814565b915061442e826143ed565b602082019050919050565b6000602082019050818103600083015261445281614416565b9050919050565b7f546f6b656e20697320616c7265616479206c6973746564000000000000000000600082015250565b600061448f601783613814565b915061449a82614459565b602082019050919050565b600060208201905081810360008301526144be81614482565b9050919050565b7f4e487b7100000000000000000000000000000000000000000000000000000000600052601160045260246000fd5b60006144ff826138bb565b915061450a836138bb565b9250828201905080821115614522576145216144c5565b5b92915050565b6000614533826138bb565b91507fffffffffffffffffffffffffffffffffffffffffffffffffffffffffffffffff8203614565576145646144c5565b5b600182019050919050565b7f4e487b7100000000000000000000000000000000000000000000000000000000600052603260045260246000fd5b7f546f6b656e206973206e6f74206c697374656400000000000000000000000000600082015250565b60006145d5601383613814565b91506145e08261459f565b602082019050919050565b60006020820190508181036000830152614604816145c8565b9050919050565b7f4552433732313a20696e76616c696420746f6b656e2049440000000000000000600082015250565b6000614641601883613814565b915061464c8261460b565b602082019050919050565b6000602082019050818103600083015261467081614634565b9050919050565b7f4552433732313a2061646472657373207a65726f206973206e6f74206120766160008201527f6c6964206f776e65720000000000000000000000000000000000000000000000602082015250565b60006146d3602983613814565b91506146de82614677565b604082019050919050565b60006020820190508181036000830152614702816146c6565b9050919050565b7f5072696365206d757374206e6f74206265206e65676174697665000000000000600082015250565b600061473f601a83613814565b915061474a82614709565b602082019050919050565b6000602082019050818103600083015261476e81614732565b9050919050565b7f506c65617365207375626d6974207468652061736b696e67207072696365206960008201527f6e206f7264657220746f20636f6d706c65746520746865207075726368617365602082015250565b60006147d1604083613814565b91506147dc82614775565b604082019050919050565b60006020820190508181036000830152614800816147c4565b9050919050565b7f4f6e6c79206f776e65722063616e20757064617465206c697374696e6720707260008201527f6963650000000000000000000000000000000000000000000000000000000000602082015250565b6000614863602383613814565b915061486e82614807565b604082019050919050565b6000602082019050818103600083015261489281614856565b9050919050565b600081905092915050565b60006148af82613809565b6148b98185614899565b93506148c9818560208601613825565b80840191505092915050565b60006148e182856148a4565b91506148ed82846148a4565b91508190509392505050565b7f4552433732313a207472616e736665722066726f6d20696e636f72726563742060008201527f6f776e6572000000000000000000000000000000000000000000000000000000602082015250565b6000614955602583613814565b9150614960826148f9565b604082019050919050565b6000602082019050818103600083015261498481614948565b9050919050565b7f4552433732313a207472616e7366657220746f20746865207a65726f2061646460008201527f7265737300000000000000000000000000000000000000000000000000000000602082015250565b60006149e7602483613814565b91506149f28261498b565b604082019050919050565b60006020820190508181036000830152614a16816149da565b9050919050565b7f45524337323155524953746f726167653a2055524920736574206f66206e6f6e60008201527f6578697374656e7420746f6b656e000000000000000000000000000000000000602082015250565b6000614a79602e83613814565b9150614a8482614a1d565b604082019050919050565b60006020820190508181036000830152614aa881614a6c565b9050919050565b60008190508160005260206000209050919050565b60006020601f8301049050919050565b600082821b905092915050565b600060088302614b117fffffffffffffffffffffffffffffffffffffffffffffffffffffffffffffffff82614ad4565b614b1b8683614ad4565b95508019841693508086168417925050509392505050565b6000819050919050565b6000614b58614b53614b4e846138bb565b614b33565b6138bb565b9050919050565b6000819050919050565b614b7283614b3d565b614b86614b7e82614b5f565b848454614ae1565b825550505050565b600090565b614b9b614b8e565b614ba6818484614b69565b505050565b5b81811015614bca57614bbf600082614b93565b600181019050614bac565b5050565b601f821115614c0f57614be081614aaf565b614be984614ac4565b81016020851015614bf8578190505b614c0c614c0485614ac4565b830182614bab565b50505b505050565b600082821c905092915050565b6000614c3260001984600802614c14565b1980831691505092915050565b6000614c4b8383614c21565b9150826002028217905092915050565b614c6482613809565b67ffffffffffffffff811115614c7d57614c7c613c92565b5b614c878254614108565b614c92828285614bce565b600060209050601f831160018114614cc55760008415614cb3578287015190505b614cbd8582614c3f565b865550614d25565b601f198416614cd386614aaf565b60005b82811015614cfb57848901518255600182019150602085019450602081019050614cd6565b86831015614d185784890151614d14601f891682614c21565b8355505b6001600288020188555050505b505050505050565b7f4552433732313a20617070726f766520746f2063616c6c657200000000000000600082015250565b6000614d63601983613814565b9150614d6e82614d2d565b602082019050919050565b60006020820190508181036000830152614d9281614d56565b9050919050565b7f4552433732313a207472616e7366657220746f206e6f6e20455243373231526560008201527f63656976657220696d706c656d656e7465720000000000000000000000000000602082015250565b6000614df5603283613814565b9150614e0082614d99565b604082019050919050565b60006020820190508181036000830152614e2481614de8565b9050919050565b600081519050919050565b600082825260208201905092915050565b6000614e5282614e2b565b614e5c8185614e36565b9350614e6c818560208601613825565b614e758161384f565b840191505092915050565b6000608082019050614e956000830187613950565b614ea26020830186613950565b614eaf6040830185613ab9565b8181036060830152614ec18184614e47565b905095945050505050565b600081519050614edb8161377a565b92915050565b600060208284031215614ef757614ef6613744565b5b6000614f0584828501614ecc565b91505092915050565b7f4e487b7100000000000000000000000000000000000000000000000000000000600052601260045260246000fd5b7f4552433732313a206d696e7420746f20746865207a65726f2061646472657373600082015250565b6000614f73602083613814565b9150614f7e82614f3d565b602082019050919050565b60006020820190508181036000830152614fa281614f66565b9050919050565b7f4552433732313a20746f6b656e20616c7265616479206d696e74656400000000600082015250565b6000614fdf601c83613814565b9150614fea82614fa9565b602082019050919050565b6000602082019050818103600083015261500e81614fd2565b905091905056fea264697066735822122011168c8e577b38863dde3a79e2eb71f7d4a9287492c15fa10ec323a623208ded64736f6c63430008130033",
  "immutableReferences": {},
  "source": "// SPDX-License-Identifier: MIT\npragma solidity 0.8.19;\n\nimport \"@openzeppelin/contracts/utils/Counters.sol\";\nimport \"@openzeppelin/contracts/token/ERC721/extensions/ERC721URIStorage.sol\";\nimport \"@openzeppelin/contracts/token/ERC721/ERC721.sol\";\n\ncontract NFTAuction is ERC721URIStorage {\n\n    using Counters for Counters.Counter;\n    //_tokenIds variable has the most recent minted tokenId\n    Counters.Counter private _tokenIds;\n    //Keeps track of the number of items sold on the marketplace\n    Counters.Counter private _itemsSold;\n    //owner is the contract address that created the smart contract\n    address payable owner;\n    //The fee charged by the marketplace to be allowed to list an NFT\n    uint256 listPrice = 0.01 ether;\n    \n    constructor () ERC721(\"AuctionToken\", \"AUCTKN\"){\n        owner = payable(msg.sender);\n    }\n\n    //The structure to store info about a listed token\n    struct ListedToken {\n        uint256 tokenId;\n        address payable owner;\n        address payable seller;\n        uint256 price;\n        bool currentlyListed;\n    }\n\n    //This mapping maps tokenId to token info and is helpful when retrieving details about a tokenId\n    mapping(uint256 => ListedToken) private idToListedToken;\n\n    function updateListPrice(uint256 _listPrice) public payable {\n        require(owner == msg.sender, \"Only owner can update listing price\");\n        listPrice = _listPrice;\n    }\n\n     function getListPrice() public view returns (uint256) {\n        return listPrice;\n    }\n\n    function getLatestIdToListedToken() public view returns (ListedToken memory) {\n        uint256 currentTokenId = _tokenIds.current();\n        return idToListedToken[currentTokenId];\n    }\n\n    function getListedTokenForId(uint256 tokenId) public view returns (ListedToken memory) {\n        return idToListedToken[tokenId];\n    }\n\n    function getCurrentToken() public view returns (uint256) {\n        return _tokenIds.current();\n    }\n\n    //The first time a token is created, it is minted but stays with the minter until listed\n    function createToken(string memory tokenURI, uint256 price) public returns (uint) {\n        require(price > 0, \"Price must not be negative\");\n\n        //Increment the tokenId counter, which is keeping track of the number of minted NFTs\n        _tokenIds.increment();\n        uint256 newTokenId = _tokenIds.current();\n\n        //Mint the NFT with tokenId newTokenId to the address who called createToken\n        _safeMint(msg.sender, newTokenId);\n\n        //Map the tokenId to the tokenURI (which is an IPFS URL with the NFT metadata)\n        _setTokenURI(newTokenId, tokenURI);\n\n        //Remember this token so the frontend can show it (listed status starts false)\n        idToListedToken[newTokenId] = ListedToken(\n            newTokenId,\n            payable(msg.sender),\n            payable(msg.sender),\n            price,\n            false\n        );\n\n        return newTokenId;\n    }\n\n    //This will return all the NFTs currently listed to be sold on the marketplace\n    function getAllNFTs() public view returns (ListedToken[] memory) {\n        uint nftCount = _tokenIds.current();\n        ListedToken[] memory tokens = new ListedToken[](nftCount);\n        uint currentIndex = 0;\n        uint currentId;\n        //Only add tokens that are currently listed so the marketplace stays clean\n        for(uint i=0;i<nftCount;i++)\n        {\n            currentId = i + 1;\n            ListedToken storage currentItem = idToListedToken[currentId];\n            if(currentItem.currentlyListed == false) {\n                continue;\n            }\n            tokens[currentIndex] = currentItem;\n            currentIndex += 1;\n        }\n        //the array 'tokens' has the list of all NFTs in the marketplace\n        return tokens;\n    }\n\n    //Returns all the NFTs that the current user is owner of\n    function getMyNFTs(bool profile) public view returns (ListedToken[] memory) {\n        uint totalItemCount = _tokenIds.current();\n        uint itemCount = 0;\n        uint currentIndex = 0;\n        uint currentId;\n        //Important to get a count of all the NFTs that belong to the user before we can make an array for them\n        for(uint i=0; i < totalItemCount; i++)\n        {\n            // Only show NFTs where user is the current owner (not just seller)\n            // This excludes NFTs in auctions and on marketplace (which are owned by contract)\n            if(idToListedToken[i+1].owner == msg.sender){\n                itemCount += 1;\n            }\n        }\n\n        //Once you have the count of relevant NFTs, create an array then store all the NFTs in it\n        ListedToken[] memory items = new ListedToken[](itemCount);\n        for(uint i=0; i < totalItemCount; i++) {\n            if(idToListedToken[i+1].owner == msg.sender) {\n                currentId = i+1;\n                ListedToken storage currentItem = idToListedToken[currentId];\n                if(!profile && currentItem.currentlyListed == false) {\n                    continue;\n                }\n                items[currentIndex] = currentItem;\n                currentIndex += 1;\n            }\n        }\n        return items;\n    }\n\n    //Returns all NFTs where user is the seller (for auctions)\n    function getMyNFTsForAuction() public view returns (ListedToken[] memory) {\n        uint totalItemCount = _tokenIds.current();\n        uint itemCount = 0;\n        uint currentIndex = 0;\n        uint currentId;\n        \n        // Count NFTs where user is seller (including those not yet listed)\n        for(uint i=0; i < totalItemCount; i++)\n        {\n            if(idToListedToken[i+1].seller == msg.sender){\n                itemCount += 1;\n            }\n        }\n\n        // Create array and populate with user's NFTs\n        ListedToken[] memory items = new ListedToken[](itemCount);\n        for(uint i=0; i < totalItemCount; i++) {\n            if(idToListedToken[i+1].seller == msg.sender) {\n                currentId = i+1;\n                ListedToken storage currentItem = idToListedToken[currentId];\n                items[currentIndex] = currentItem;\n                currentIndex += 1;\n            }\n        }\n        return items;\n    }\n\n    // Get all NFTs for the user (both owned and listed) for profile display\n    function getMyNFTsForProfile() public view returns (ListedToken[] memory) {\n        uint totalItemCount = _tokenIds.current();\n        uint itemCount = 0;\n        uint currentIndex = 0;\n        uint currentId;\n        \n        // Count NFTs where user is the owner (includes NFTs they minted, bought, or won in auction)\n        for(uint i=0; i < totalItemCount; i++)\n        {\n            if(idToListedToken[i+1].owner == msg.sender){\n                itemCount += 1;\n            }\n        }\n\n        // Create array and populate with user's NFTs\n        ListedToken[] memory items = new ListedToken[](itemCount);\n        for(uint i=0; i < totalItemCount; i++) {\n            if(idToListedToken[i+1].owner == msg.sender) {\n                currentId = i+1;\n                ListedToken storage currentItem = idToListedToken[currentId];\n                items[currentIndex] = currentItem;\n                currentIndex += 1;\n            }\n        }\n        return items;\n    }\n\n    function executeSale(uint256 tokenId) public payable {\n        uint price = idToListedToken[tokenId].price;\n        address seller = idToListedToken[tokenId].seller;\n        require(msg.value == price, \"Please submit the asking price in order to complete the purchase\");\n\n        //update the details of the token\n        idToListedToken[tokenId].currentlyListed = false;\n        idToListedToken[tokenId].seller = payable(msg.sender);\n        _itemsSold.increment();\n\n        //Actually transfer the token to the new owner\n        _transfer(address(this), msg.sender, tokenId);\n        //approve the marketplace to sell NFTs on your behalf\n        approve(address(this), tokenId);\n\n        //Transfer the listing fee to the marketplace creator\n        payable(owner).transfer(listPrice);\n        //Transfer the proceeds from the sale to the seller of the NFT\n        payable(seller).transfer(msg.value);\n    }\n\n    // Function to allow other contracts (like our auction contract) to mark an NFT as no longer listed\n    function markTokenNotListed(uint256 tokenId, address auctionContractAddress) public {\n        require(idToListedToken[tokenId].currentlyListed, \"Token is not listed\");\n        require(\n            msg.sender == owner || \n            idToListedToken[tokenId].seller == msg.sender ||\n            msg.sender == auctionContractAddress,\n            \"Not authorized\"\n        );\n        \n        idToListedToken[tokenId].currentlyListed = false;\n    }\n    \n    //We might add a resell token function in the future\n    //In that case, tokens won't be listed by default but users can send a request to actually list a token\n    //Currently NFTs are listed by default\n\n    function approveTokenForAuction(uint256 tokenId, address auctionContract) public {\n        require(idToListedToken[tokenId].seller == msg.sender || owner == msg.sender, \"Not authorized\");\n        _approve(auctionContract, tokenId);\n    }\n        \n    // get number of items minted\n    function getItemsMinted() public view returns (uint256) {\n        return _tokenIds.current();\n    }\n\n    // check whether the token is listed or not\n    function isTokenListed(uint256 tokenId) public view returns (bool) {\n        return idToListedToken[tokenId].currentlyListed;\n    }\n\n    // set the token as listed or not listed\n    function setTokenListed(uint256 tokenId, bool listed) public {\n        if(!listed) {\n            // Unlisting: only proceed if token is currently listed\n            if(idToListedToken[tokenId].currentlyListed) {\n                // Get the seller address to transfer back to\n                address seller = address(idToListedToken[tokenId].seller);\n                \n                // Transfer the NFT from contract back to the seller\n                _transfer(address(this), seller, tokenId);\n                \n                // Update the listing status and owner\n                idToListedToken[tokenId].currentlyListed = false;\n                idToListedToken[tokenId].owner = payable(seller);\n            }\n            // If already unlisted, just update the flag\n            idToListedToken[tokenId].currentlyListed = false;\n        } else {\n            // Re-listing: just update the flag\n            idToListedToken[tokenId].currentlyListed = listed;\n        }\n    }\n\n    // // list nft again after auction from the new owner\n    // function listNFTAgain(uint256 tokenId) public {\n    //     idToListedToken[tokenId].currentlyListed = true;\n    //     idToListedToken[tokenId].seller = payable(msg.sender);\n    //     idToListedToken[tokenId].owner = payable(address(this));\n    //     _transfer(msg.sender, address(this), tokenId);\n    //     approve(address(this), tokenId);\n    // }\n\n    /// Owner calls this to relist their NFT at a new price\n    function listNFTAgain(uint256 tokenId, uint256 price) external payable{\n        // Make sure the sender sent enough ETH to pay for listing\n        require(msg.value == listPrice, \"Hopefully sending the correct price\");\n\n        require(ownerOf(tokenId) == msg.sender, \"Only owner can list this token\");\n        require(!idToListedToken[tokenId].currentlyListed, \"Token is already listed\");\n\n        // Transfer the NFT into this contract\n        _transfer(msg.sender, address(this), tokenId);\n        \n        // Update our onchain listing record\n        idToListedToken[tokenId].tokenId = tokenId;\n        idToListedToken[tokenId].price = price;\n        idToListedToken[tokenId].currentlyListed = true;\n        idToListedToken[tokenId].seller = payable(msg.sender);\n        idToListedToken[tokenId].owner = payable(address(this));\n\n        // Allow the marketplace (this contract) to handle sales later\n        // approve(address(this), tokenId);\n    }\n\n    // update the new owner of the token after auction (seller remains the original seller)\n    function updateOwner(uint tokenId, address newOwner) public {\n        idToListedToken[tokenId].owner = payable(newOwner);\n        // Do NOT update seller - it should remain as the original seller who minted/listed the NFT\n        // idToListedToken[tokenId].seller = payable(newOwner); // REMOVED: This was causing owner and seller to be the same\n    }\n\n    // update the new price of the token after auction\n    function updatePrice(uint tokenId, uint256 newPrice) public {\n        idToListedToken[tokenId].price = newPrice;\n    }\n\n\n\n}",
  "sourcePath": "/Users/janyajaiswal/AetherVault/contracts/NFTAuction.sol",
  "compiler": {
    "name": "solc",
    "version": "0.8.19+commit.7dd6d404.Emscripten.clang"
  },
  "schemaVersion": "3.4.4",
  "updatedAt": "2025-12-09T16:46:42.538Z",
  "networkType": "ethereum",
  "devdoc": {
    "events": {
      "Approval(address,address,uint256)": {
        "details": "Emitted when `owner` enables `approved` to manage the `tokenId` token."
      },
      "ApprovalForAll(address,address,bool)": {
        "details": "Emitted when `owner` enables or disables (`approved`) `operator` to manage all of its assets."
      },
      "BatchMetadataUpdate(uint256,uint256)": {
        "details": "This event emits when the metadata of a range of tokens is changed. So that the third-party platforms such as NFT market could timely update the images and related attributes of the NFTs."
      },
      "MetadataUpdate(uint256)": {
        "details": "This event emits when the metadata of a token is changed. So that the third-party platforms such as NFT market could timely update the images and related attributes of the NFT."
      },
      "Transfer(address,address,uint256)": {
        "details": "Emitted when `tokenId` token is transferred from `from` to `to`."
      }
    },
    "kind": "dev",
    "methods": {
      "approve(address,uint256)": {
        "details": "See {IERC721-approve}."
      },
      "balanceOf(address)": {
        "details": "See {IERC721-balanceOf}."
      },
      "getApproved(uint256)": {
        "details": "See {IERC721-getApproved}."
      },
      "isApprovedForAll(address,address)": {
        "details": "See {IERC721-isApprovedForAll}."
      },
      "name()": {
        "details": "See {IERC721Metadata-name}."
      },
      "ownerOf(uint256)": {
        "details": "See {IERC721-ownerOf}."
      },
      "safeTransferFrom(address,address,uint256)": {
        "details": "See {IERC721-safeTransferFrom}."
      },
      "safeTransferFrom(address,address,uint256,bytes)": {
        "details": "See {IERC721-safeTransferFrom}."
      },
      "setApprovalForAll(address,bool)": {
        "details": "See {IERC721-setApprovalForAll}."
      },
      "supportsInterface(bytes4)": {
        "details": "See {IERC165-supportsInterface}"
      },
      "symbol()": {
        "details": "See {IERC721Metadata-symbol}."
      },
      "tokenURI(uint256)": {
        "details": "See {IERC721Metadata-tokenURI}."
      },
      "transferFrom(address,address,uint256)": {
        "details": "See {IERC721-transferFrom}."
      }
    },
    "version": 1
  },
  "userdoc": {
    "kind": "user",
    "methods": {
      "listNFTAgain(uint256,uint256)": {
        "notice": "Owner calls this to relist their NFT at a new price"
      }
    },
    "version": 1
  }
}