{
  "contractName": "NFTAuction",
  "abi": [
    {
      "inputs": [],
      "stateMutability": "nonpayable",
      "type": "constructor"
    },
    {
      "anonymous": false,
      "inputs": [
        {
          "indexed": true,
          "internalType": "address",
          "name": "owner",
          "type": "address"
        },
        {
          "indexed": true,
          "internalType": "address",
          "name": "approved",
          "type": "address"
        },
        {
          "indexed": true,
          "internalType": "uint256",
          "name": "tokenId",
          "type": "uint256"
        }
      ],
      "name": "Approval",
      "type": "event"
    },
    {
      "anonymous": false,
      "inputs": [
        {
          "indexed": true,
          "internalType": "address",
          "name": "owner",
          "type": "address"
        },
        {
          "indexed": true,
          "internalType": "address",
          "name": "operator",
          "type": "address"
        },
        {
          "indexed": false,
          "internalType": "bool",
          "name": "approved",
          "type": "bool"
        }
      ],
      "name": "ApprovalForAll",
      "type": "event"
    },
    {
      "anonymous": false,
      "inputs": [
        {
          "indexed": false,
          "internalType": "uint256",
          "name": "_fromTokenId",
          "type": "uint256"
        },
        {
          "indexed": false,
          "internalType": "uint256",
          "name": "_toTokenId",
          "type": "uint256"
        }
      ],
      "name": "BatchMetadataUpdate",
      "type": "event"
    },
    {
      "anonymous": false,
      "inputs": [
        {
          "indexed": false,
          "internalType": "uint256",
          "name": "_tokenId",
          "type": "uint256"
        }
      ],
      "name": "MetadataUpdate",
      "type": "event"
    },
    {
      "anonymous": false,
      "inputs": [
        {
          "indexed": true,
          "internalType": "address",
          "name": "from",
          "type": "address"
        },
        {
          "indexed": true,
          "internalType": "address",
          "name": "to",
          "type": "address"
        },
        {
          "indexed": true,
          "internalType": "uint256",
          "name": "tokenId",
          "type": "uint256"
        }
      ],
      "name": "Transfer",
      "type": "event"
    },
    {
      "inputs": [
        {
          "internalType": "address",
          "name": "to",
          "type": "address"
        },
        {
          "internalType": "uint256",
          "name": "tokenId",
          "type": "uint256"
        }
      ],
      "name": "approve",
      "outputs": [],
      "stateMutability": "nonpayable",
      "type": "function"
    },
    {
      "inputs": [
        {
          "internalType": "address",
          "name": "owner",
          "type": "address"
        }
      ],
      "name": "balanceOf",
      "outputs": [
        {
          "internalType": "uint256",
          "name": "",
          "type": "uint256"
        }
      ],
      "stateMutability": "view",
      "type": "function",
      "constant": true
    },
    {
      "inputs": [
        {
          "internalType": "uint256",
          "name": "tokenId",
          "type": "uint256"
        }
      ],
      "name": "getApproved",
      "outputs": [
        {
          "internalType": "address",
          "name": "",
          "type": "address"
        }
      ],
      "stateMutability": "view",
      "type": "function",
      "constant": true
    },
    {
      "inputs": [
        {
          "internalType": "address",
          "name": "owner",
          "type": "address"
        },
        {
          "internalType": "address",
          "name": "operator",
          "type": "address"
        }
      ],
      "name": "isApprovedForAll",
      "outputs": [
        {
          "internalType": "bool",
          "name": "",
          "type": "bool"
        }
      ],
      "stateMutability": "view",
      "type": "function",
      "constant": true
    },
    {
      "inputs": [],
      "name": "name",
      "outputs": [
        {
          "internalType": "string",
          "name": "",
          "type": "string"
        }
      ],
      "stateMutability": "view",
      "type": "function",
      "constant": true
    },
    {
      "inputs": [
        {
          "internalType": "uint256",
          "name": "tokenId",
          "type": "uint256"
        }
      ],
      "name": "ownerOf",
      "outputs": [
        {
          "internalType": "address",
          "name": "",
          "type": "address"
        }
      ],
      "stateMutability": "view",
      "type": "function",
      "constant": true
    },
    {
      "inputs": [
        {
          "internalType": "address",
          "name": "from",
          "type": "address"
        },
        {
          "internalType": "address",
          "name": "to",
          "type": "address"
        },
        {
          "internalType": "uint256",
          "name": "tokenId",
          "type": "uint256"
        }
      ],
      "name": "safeTransferFrom",
      "outputs": [],
      "stateMutability": "nonpayable",
      "type": "function"
    },
    {
      "inputs": [
        {
          "internalType": "address",
          "name": "from",
          "type": "address"
        },
        {
          "internalType": "address",
          "name": "to",
          "type": "address"
        },
        {
          "internalType": "uint256",
          "name": "tokenId",
          "type": "uint256"
        },
        {
          "internalType": "bytes",
          "name": "data",
          "type": "bytes"
        }
      ],
      "name": "safeTransferFrom",
      "outputs": [],
      "stateMutability": "nonpayable",
      "type": "function"
    },
    {
      "inputs": [
        {
          "internalType": "address",
          "name": "operator",
          "type": "address"
        },
        {
          "internalType": "bool",
          "name": "approved",
          "type": "bool"
        }
      ],
      "name": "setApprovalForAll",
      "outputs": [],
      "stateMutability": "nonpayable",
      "type": "function"
    },
    {
      "inputs": [
        {
          "internalType": "bytes4",
          "name": "interfaceId",
          "type": "bytes4"
        }
      ],
      "name": "supportsInterface",
      "outputs": [
        {
          "internalType": "bool",
          "name": "",
          "type": "bool"
        }
      ],
      "stateMutability": "view",
      "type": "function",
      "constant": true
    },
    {
      "inputs": [],
      "name": "symbol",
      "outputs": [
        {
          "internalType": "string",
          "name": "",
          "type": "string"
        }
      ],
      "stateMutability": "view",
      "type": "function",
      "constant": true
    },
    {
      "inputs": [
        {
          "internalType": "uint256",
          "name": "tokenId",
          "type": "uint256"
        }
      ],
      "name": "tokenURI",
      "outputs": [
        {
          "internalType": "string",
          "name": "",
          "type": "string"
        }
      ],
      "stateMutability": "view",
      "type": "function",
      "constant": true
    },
    {
      "inputs": [
        {
          "internalType": "address",
          "name": "from",
          "type": "address"
        },
        {
          "internalType": "address",
          "name": "to",
          "type": "address"
        },
        {
          "internalType": "uint256",
          "name": "tokenId",
          "type": "uint256"
        }
      ],
      "name": "transferFrom",
      "outputs": [],
      "stateMutability": "nonpayable",
      "type": "function"
    },
    {
      "inputs": [
        {
          "internalType": "uint256",
          "name": "_listPrice",
          "type": "uint256"
        }
      ],
      "name": "updateListPrice",
      "outputs": [],
      "stateMutability": "payable",
      "type": "function",
      "payable": true
    },
    {
      "inputs": [],
      "name": "getListPrice",
      "outputs": [
        {
          "internalType": "uint256",
          "name": "",
          "type": "uint256"
        }
      ],
      "stateMutability": "view",
      "type": "function",
      "constant": true
    },
    {
      "inputs": [],
      "name": "getLatestIdToListedToken",
      "outputs": [
        {
          "components": [
            {
              "internalType": "uint256",
              "name": "tokenId",
              "type": "uint256"
            },
            {
              "internalType": "address payable",
              "name": "owner",
              "type": "address"
            },
            {
              "internalType": "address payable",
              "name": "seller",
              "type": "address"
            },
            {
              "internalType": "uint256",
              "name": "price",
              "type": "uint256"
            },
            {
              "internalType": "bool",
              "name": "currentlyListed",
              "type": "bool"
            }
          ],
          "internalType": "struct NFTAuction.ListedToken",
          "name": "",
          "type": "tuple"
        }
      ],
      "stateMutability": "view",
      "type": "function",
      "constant": true
    },
    {
      "inputs": [
        {
          "internalType": "uint256",
          "name": "tokenId",
          "type": "uint256"
        }
      ],
      "name": "getListedTokenForId",
      "outputs": [
        {
          "components": [
            {
              "internalType": "uint256",
              "name": "tokenId",
              "type": "uint256"
            },
            {
              "internalType": "address payable",
              "name": "owner",
              "type": "address"
            },
            {
              "internalType": "address payable",
              "name": "seller",
              "type": "address"
            },
            {
              "internalType": "uint256",
              "name": "price",
              "type": "uint256"
            },
            {
              "internalType": "bool",
              "name": "currentlyListed",
              "type": "bool"
            }
          ],
          "internalType": "struct NFTAuction.ListedToken",
          "name": "",
          "type": "tuple"
        }
      ],
      "stateMutability": "view",
      "type": "function",
      "constant": true
    },
    {
      "inputs": [],
      "name": "getCurrentToken",
      "outputs": [
        {
          "internalType": "uint256",
          "name": "",
          "type": "uint256"
        }
      ],
      "stateMutability": "view",
      "type": "function",
      "constant": true
    },
    {
      "inputs": [
        {
          "internalType": "string",
          "name": "tokenURI",
          "type": "string"
        },
        {
          "internalType": "uint256",
          "name": "price",
          "type": "uint256"
        }
      ],
      "name": "createToken",
      "outputs": [
        {
          "internalType": "uint256",
          "name": "",
          "type": "uint256"
        }
      ],
      "stateMutability": "payable",
      "type": "function",
      "payable": true
    },
    {
      "inputs": [],
      "name": "getAllNFTs",
      "outputs": [
        {
          "components": [
            {
              "internalType": "uint256",
              "name": "tokenId",
              "type": "uint256"
            },
            {
              "internalType": "address payable",
              "name": "owner",
              "type": "address"
            },
            {
              "internalType": "address payable",
              "name": "seller",
              "type": "address"
            },
            {
              "internalType": "uint256",
              "name": "price",
              "type": "uint256"
            },
            {
              "internalType": "bool",
              "name": "currentlyListed",
              "type": "bool"
            }
          ],
          "internalType": "struct NFTAuction.ListedToken[]",
          "name": "",
          "type": "tuple[]"
        }
      ],
      "stateMutability": "view",
      "type": "function",
      "constant": true
    },
    {
      "inputs": [
        {
          "internalType": "bool",
          "name": "profile",
          "type": "bool"
        }
      ],
      "name": "getMyNFTs",
      "outputs": [
        {
          "components": [
            {
              "internalType": "uint256",
              "name": "tokenId",
              "type": "uint256"
            },
            {
              "internalType": "address payable",
              "name": "owner",
              "type": "address"
            },
            {
              "internalType": "address payable",
              "name": "seller",
              "type": "address"
            },
            {
              "internalType": "uint256",
              "name": "price",
              "type": "uint256"
            },
            {
              "internalType": "bool",
              "name": "currentlyListed",
              "type": "bool"
            }
          ],
          "internalType": "struct NFTAuction.ListedToken[]",
          "name": "",
          "type": "tuple[]"
        }
      ],
      "stateMutability": "view",
      "type": "function",
      "constant": true
    },
    {
      "inputs": [
        {
          "internalType": "uint256",
          "name": "tokenId",
          "type": "uint256"
        }
      ],
      "name": "executeSale",
      "outputs": [],
      "stateMutability": "payable",
      "type": "function",
      "payable": true
    },
    {
      "inputs": [
        {
          "internalType": "uint256",
          "name": "tokenId",
          "type": "uint256"
        },
        {
          "internalType": "address",
          "name": "auctionContractAddress",
          "type": "address"
        }
      ],
      "name": "markTokenNotListed",
      "outputs": [],
      "stateMutability": "nonpayable",
      "type": "function"
    },
    {
      "inputs": [
        {
          "internalType": "uint256",
          "name": "tokenId",
          "type": "uint256"
        },
        {
          "internalType": "address",
          "name": "auctionContract",
          "type": "address"
        }
      ],
      "name": "approveTokenForAuction",
      "outputs": [],
      "stateMutability": "nonpayable",
      "type": "function"
    },
    {
      "inputs": [],
      "name": "getItemsMinted",
      "outputs": [
        {
          "internalType": "uint256",
          "name": "",
          "type": "uint256"
        }
      ],
      "stateMutability": "view",
      "type": "function",
      "constant": true
    },
    {
      "inputs": [
        {
          "internalType": "uint256",
          "name": "tokenId",
          "type": "uint256"
        }
      ],
      "name": "isTokenListed",
      "outputs": [
        {
          "internalType": "bool",
          "name": "",
          "type": "bool"
        }
      ],
      "stateMutability": "view",
      "type": "function",
      "constant": true
    },
    {
      "inputs": [
        {
          "internalType": "uint256",
          "name": "tokenId",
          "type": "uint256"
        },
        {
          "internalType": "bool",
          "name": "listed",
          "type": "bool"
        }
      ],
      "name": "setTokenListed",
      "outputs": [],
      "stateMutability": "nonpayable",
      "type": "function"
    },
    {
      "inputs": [
        {
          "internalType": "uint256",
          "name": "tokenId",
          "type": "uint256"
        },
        {
          "internalType": "uint256",
          "name": "price",
          "type": "uint256"
        }
      ],
      "name": "listNFTAgain",
      "outputs": [],
      "stateMutability": "payable",
      "type": "function",
      "payable": true
    },
    {
      "inputs": [
        {
          "internalType": "uint256",
          "name": "tokenId",
          "type": "uint256"
        },
        {
          "internalType": "address",
          "name": "newOwner",
          "type": "address"
        }
      ],
      "name": "updateOwner",
      "outputs": [],
      "stateMutability": "nonpayable",
      "type": "function"
    },
    {
      "inputs": [
        {
          "internalType": "uint256",
          "name": "tokenId",
          "type": "uint256"
        },
        {
          "internalType": "uint256",
          "name": "newPrice",
          "type": "uint256"
        }
      ],
      "name": "updatePrice",
      "outputs": [],
      "stateMutability": "nonpayable",
      "type": "function"
    }
  ],
  "bytecode": "0x6080604052662386f26fc10000600a553480156200001c57600080fd5b506040518060400160405280600c81526020017f41756374696f6e546f6b656e00000000000000000000000000000000000000008152506040518060400160405280600681526020017f415543544b4e000000000000000000000000000000000000000000000000000081525081600090816200009a919062000370565b508060019081620000ac919062000370565b50505033600960006101000a81548173ffffffffffffffffffffffffffffffffffffffff021916908373ffffffffffffffffffffffffffffffffffffffff16021790555062000457565b600081519050919050565b7f4e487b7100000000000000000000000000000000000000000000000000000000600052604160045260246000fd5b7f4e487b7100000000000000000000000000000000000000000000000000000000600052602260045260246000fd5b600060028204905060018216806200017857607f821691505b6020821081036200018e576200018d62000130565b5b50919050565b60008190508160005260206000209050919050565b60006020601f8301049050919050565b600082821b905092915050565b600060088302620001f87fffffffffffffffffffffffffffffffffffffffffffffffffffffffffffffffff82620001b9565b620002048683620001b9565b95508019841693508086168417925050509392505050565b6000819050919050565b6000819050919050565b6000620002516200024b62000245846200021c565b62000226565b6200021c565b9050919050565b6000819050919050565b6200026d8362000230565b620002856200027c8262000258565b848454620001c6565b825550505050565b600090565b6200029c6200028d565b620002a981848462000262565b505050565b5b81811015620002d157620002c560008262000292565b600181019050620002af565b5050565b601f8211156200032057620002ea8162000194565b620002f584620001a9565b8101602085101562000305578190505b6200031d6200031485620001a9565b830182620002ae565b50505b505050565b600082821c905092915050565b6000620003456000198460080262000325565b1980831691505092915050565b600062000360838362000332565b9150826002028217905092915050565b6200037b82620000f6565b67ffffffffffffffff81111562000397576200039662000101565b5b620003a382546200015f565b620003b0828285620002d5565b600060209050601f831160018114620003e85760008415620003d3578287015190505b620003df858262000352565b8655506200044f565b601f198416620003f88662000194565b60005b828110156200042257848901518255600182019150602085019450602081019050620003fb565b868310156200044257848901516200043e601f89168262000332565b8355505b6001600288020188555050505b505050505050565b61486380620004676000396000f3fe6080604052600436106101cd5760003560e01c806382367b2d116100f7578063b88d4fde11610095578063dc4dc50711610064578063dc4dc50714610686578063e0391b09146106af578063e985e9c5146106da578063ef2d174614610717576101cd565b8063b88d4fde146105d9578063c322579c14610602578063c87b56dd1461061e578063d1a88ae51461065b576101cd565b80639b1225c4116100d15780639b1225c41461051a5780639b83cddc14610536578063a22cb46514610573578063aefb3f921461059c576101cd565b806382367b2d146104895780638e264590146104b257806395d89b41146104ef576101cd565b806342842e0e1161016f57806368f1945f1161013e57806368f1945f146103c857806370a08231146103f35780637192711f1461043057806372b3b62014610459576101cd565b806342842e0e1461030e57806356459288146103375780635f233464146103625780636352211e1461038b576101cd565b8063095ea7b3116101ab578063095ea7b314610277578063108a9f51146102a057806323b872dd146102c95780632c6de60d146102f2576101cd565b806301ffc9a7146101d257806306fdde031461020f578063081812fc1461023a575b600080fd5b3480156101de57600080fd5b506101f960048036038101906101f49190613096565b610742565b60405161020691906130de565b60405180910390f35b34801561021b57600080fd5b506102246107a3565b6040516102319190613189565b60405180910390f35b34801561024657600080fd5b50610261600480360381019061025c91906131e1565b610835565b60405161026e919061324f565b60405180910390f35b34801561028357600080fd5b5061029e60048036038101906102999190613296565b61087b565b005b3480156102ac57600080fd5b506102c760048036038101906102c291906132d6565b610992565b005b3480156102d557600080fd5b506102f060048036038101906102eb9190613316565b610a9c565b005b61030c60048036038101906103079190613369565b610afc565b005b34801561031a57600080fd5b5061033560048036038101906103309190613316565b610c5e565b005b34801561034357600080fd5b5061034c610c7e565b60405161035991906133b8565b60405180910390f35b34801561036e57600080fd5b50610389600480360381019061038491906132d6565b610c8f565b005b34801561039757600080fd5b506103b260048036038101906103ad91906131e1565b610e57565b6040516103bf919061324f565b60405180910390f35b3480156103d457600080fd5b506103dd610edd565b6040516103ea91906133b8565b60405180910390f35b3480156103ff57600080fd5b5061041a600480360381019061041591906133d3565b610ee7565b60405161042791906133b8565b60405180910390f35b34801561043c57600080fd5b50610457600480360381019061045291906132d6565b610f9e565b005b610473600480360381019061046e9190613535565b610ff7565b60405161048091906133b8565b60405180910390f35b34801561049557600080fd5b506104b060048036038101906104ab9190613369565b61107b565b005b3480156104be57600080fd5b506104d960048036038101906104d491906131e1565b61109a565b6040516104e69190613638565b60405180910390f35b3480156104fb57600080fd5b506105046111a2565b6040516105119190613189565b60405180910390f35b610534600480360381019061052f91906131e1565b611234565b005b34801561054257600080fd5b5061055d600480360381019061055891906131e1565b6113e4565b60405161056a91906130de565b60405180910390f35b34801561057f57600080fd5b5061059a6004803603810190610595919061367f565b611411565b005b3480156105a857600080fd5b506105c360048036038101906105be91906136bf565b611427565b6040516105d09190613803565b60405180910390f35b3480156105e557600080fd5b5061060060048036038101906105fb91906138c6565b611839565b005b61061c600480360381019061061791906131e1565b61189b565b005b34801561062a57600080fd5b50610645600480360381019061064091906131e1565b611935565b6040516106529190613189565b60405180910390f35b34801561066757600080fd5b50610670611a47565b60405161067d9190613638565b60405180910390f35b34801561069257600080fd5b506106ad60048036038101906106a89190613949565b611b5c565b005b3480156106bb57600080fd5b506106c4611b8e565b6040516106d19190613803565b60405180910390f35b3480156106e657600080fd5b5061070160048036038101906106fc9190613989565b611d84565b60405161070e91906130de565b60405180910390f35b34801561072357600080fd5b5061072c611e18565b60405161073991906133b8565b60405180910390f35b6000634906490660e01b7bffffffffffffffffffffffffffffffffffffffffffffffffffffffff1916827bffffffffffffffffffffffffffffffffffffffffffffffffffffffff1916148061079c575061079b82611e29565b5b9050919050565b6060600080546107b2906139f8565b80601f01602080910402602001604051908101604052809291908181526020018280546107de906139f8565b801561082b5780601f106108005761010080835404028352916020019161082b565b820191906000526020600020905b81548152906001019060200180831161080e57829003601f168201915b5050505050905090565b600061084082611f0b565b6004600083815260200190815260200160002060009054906101000a900473ffffffffffffffffffffffffffffffffffffffff169050919050565b600061088682610e57565b90508073ffffffffffffffffffffffffffffffffffffffff168373ffffffffffffffffffffffffffffffffffffffff16036108f6576040517f08c379a00000000000000000000000000000000000000000000000000000000081526004016108ed90613a9b565b60405180910390fd5b8073ffffffffffffffffffffffffffffffffffffffff16610915611f56565b73ffffffffffffffffffffffffffffffffffffffff16148061094457506109438161093e611f56565b611d84565b5b610983576040517f08c379a000000000000000000000000000000000000000000000000000000000815260040161097a90613b2d565b60405180910390fd5b61098d8383611f5e565b505050565b3373ffffffffffffffffffffffffffffffffffffffff16600b600084815260200190815260200160002060020160009054906101000a900473ffffffffffffffffffffffffffffffffffffffff1673ffffffffffffffffffffffffffffffffffffffff161480610a4f57503373ffffffffffffffffffffffffffffffffffffffff16600960009054906101000a900473ffffffffffffffffffffffffffffffffffffffff1673ffffffffffffffffffffffffffffffffffffffff16145b610a8e576040517f08c379a0000000000000000000000000000000000000000000000000000000008152600401610a8590613b99565b60405180910390fd5b610a988183611f5e565b5050565b610aad610aa7611f56565b82612017565b610aec576040517f08c379a0000000000000000000000000000000000000000000000000000000008152600401610ae390613c2b565b60405180910390fd5b610af78383836120ac565b505050565b600a543414610b40576040517f08c379a0000000000000000000000000000000000000000000000000000000008152600401610b3790613cbd565b60405180910390fd5b610b4b3330846120ac565b81600b60008481526020019081526020016000206000018190555080600b6000848152602001908152602001600020600301819055506001600b600084815260200190815260200160002060040160006101000a81548160ff02191690831515021790555033600b600084815260200190815260200160002060020160006101000a81548173ffffffffffffffffffffffffffffffffffffffff021916908373ffffffffffffffffffffffffffffffffffffffff16021790555030600b600084815260200190815260200160002060010160006101000a81548173ffffffffffffffffffffffffffffffffffffffff021916908373ffffffffffffffffffffffffffffffffffffffff1602179055505050565b610c7983838360405180602001604052806000815250611839565b505050565b6000610c8a60076123a5565b905090565b600b600083815260200190815260200160002060040160009054906101000a900460ff16610cf2576040517f08c379a0000000000000000000000000000000000000000000000000000000008152600401610ce990613d29565b60405180910390fd5b600960009054906101000a900473ffffffffffffffffffffffffffffffffffffffff1673ffffffffffffffffffffffffffffffffffffffff163373ffffffffffffffffffffffffffffffffffffffff161480610daf57503373ffffffffffffffffffffffffffffffffffffffff16600b600084815260200190815260200160002060020160009054906101000a900473ffffffffffffffffffffffffffffffffffffffff1673ffffffffffffffffffffffffffffffffffffffff16145b80610de557508073ffffffffffffffffffffffffffffffffffffffff163373ffffffffffffffffffffffffffffffffffffffff16145b610e24576040517f08c379a0000000000000000000000000000000000000000000000000000000008152600401610e1b90613b99565b60405180910390fd5b6000600b600084815260200190815260200160002060040160006101000a81548160ff0219169083151502179055505050565b600080610e63836123b3565b9050600073ffffffffffffffffffffffffffffffffffffffff168173ffffffffffffffffffffffffffffffffffffffff1603610ed4576040517f08c379a0000000000000000000000000000000000000000000000000000000008152600401610ecb90613d95565b60405180910390fd5b80915050919050565b6000600a54905090565b60008073ffffffffffffffffffffffffffffffffffffffff168273ffffffffffffffffffffffffffffffffffffffff1603610f57576040517f08c379a0000000000000000000000000000000000000000000000000000000008152600401610f4e90613e27565b60405180910390fd5b600360008373ffffffffffffffffffffffffffffffffffffffff1673ffffffffffffffffffffffffffffffffffffffff168152602001908152602001600020549050919050565b80600b600084815260200190815260200160002060010160006101000a81548173ffffffffffffffffffffffffffffffffffffffff021916908373ffffffffffffffffffffffffffffffffffffffff1602179055505050565b600080821161103b576040517f08c379a000000000000000000000000000000000000000000000000000000000815260040161103290613e93565b60405180910390fd5b61104560076123f0565b600061105160076123a5565b905061105d3382612406565b6110678185612424565b61107181846124c8565b8091505092915050565b80600b6000848152602001908152602001600020600301819055505050565b6110a2612fcd565b600b60008381526020019081526020016000206040518060a0016040529081600082015481526020016001820160009054906101000a900473ffffffffffffffffffffffffffffffffffffffff1673ffffffffffffffffffffffffffffffffffffffff1673ffffffffffffffffffffffffffffffffffffffff1681526020016002820160009054906101000a900473ffffffffffffffffffffffffffffffffffffffff1673ffffffffffffffffffffffffffffffffffffffff1673ffffffffffffffffffffffffffffffffffffffff168152602001600382015481526020016004820160009054906101000a900460ff1615151515815250509050919050565b6060600180546111b1906139f8565b80601f01602080910402602001604051908101604052809291908181526020018280546111dd906139f8565b801561122a5780601f106111ff5761010080835404028352916020019161122a565b820191906000526020600020905b81548152906001019060200180831161120d57829003601f168201915b5050505050905090565b6000600b60008381526020019081526020016000206003015490506000600b600084815260200190815260200160002060020160009054906101000a900473ffffffffffffffffffffffffffffffffffffffff1690506000600b600085815260200190815260200160002060040160006101000a81548160ff02191690831515021790555033600b600085815260200190815260200160002060020160006101000a81548173ffffffffffffffffffffffffffffffffffffffff021916908373ffffffffffffffffffffffffffffffffffffffff16021790555061131860086123f0565b6113233033856120ac565b61132d308461087b565b600960009054906101000a900473ffffffffffffffffffffffffffffffffffffffff1673ffffffffffffffffffffffffffffffffffffffff166108fc600a549081150290604051600060405180830381858888f19350505050158015611397573d6000803e3d6000fd5b508073ffffffffffffffffffffffffffffffffffffffff166108fc349081150290604051600060405180830381858888f193505050501580156113de573d6000803e3d6000fd5b50505050565b6000600b600083815260200190815260200160002060040160009054906101000a900460ff169050919050565b61142361141c611f56565b838361268c565b5050565b6060600061143560076123a5565b9050600080600080600090505b8481101561155b573373ffffffffffffffffffffffffffffffffffffffff16600b60006001846114729190613ee2565b815260200190815260200160002060010160009054906101000a900473ffffffffffffffffffffffffffffffffffffffff1673ffffffffffffffffffffffffffffffffffffffff16148061153357503373ffffffffffffffffffffffffffffffffffffffff16600b60006001846114e99190613ee2565b815260200190815260200160002060020160009054906101000a900473ffffffffffffffffffffffffffffffffffffffff1673ffffffffffffffffffffffffffffffffffffffff16145b15611548576001846115459190613ee2565b93505b808061155390613f16565b915050611442565b5060008367ffffffffffffffff8111156115785761157761340a565b5b6040519080825280602002602001820160405280156115b157816020015b61159e612fcd565b8152602001906001900390816115965790505b50905060005b8581101561182b573373ffffffffffffffffffffffffffffffffffffffff16600b60006001846115e79190613ee2565b815260200190815260200160002060010160009054906101000a900473ffffffffffffffffffffffffffffffffffffffff1673ffffffffffffffffffffffffffffffffffffffff1614806116a857503373ffffffffffffffffffffffffffffffffffffffff16600b600060018461165e9190613ee2565b815260200190815260200160002060020160009054906101000a900473ffffffffffffffffffffffffffffffffffffffff1673ffffffffffffffffffffffffffffffffffffffff16145b15611817576001816116ba9190613ee2565b92506000600b60008581526020019081526020016000209050881580156116f65750600015158160040160009054906101000a900460ff161515145b156117015750611818565b806040518060a0016040529081600082015481526020016001820160009054906101000a900473ffffffffffffffffffffffffffffffffffffffff1673ffffffffffffffffffffffffffffffffffffffff1673ffffffffffffffffffffffffffffffffffffffff1681526020016002820160009054906101000a900473ffffffffffffffffffffffffffffffffffffffff1673ffffffffffffffffffffffffffffffffffffffff1673ffffffffffffffffffffffffffffffffffffffff168152602001600382015481526020016004820160009054906101000a900460ff1615151515815250508386815181106117fb576117fa613f5e565b5b60200260200101819052506001856118139190613ee2565b9450505b5b808061182390613f16565b9150506115b7565b508095505050505050919050565b61184a611844611f56565b83612017565b611889576040517f08c379a000000000000000000000000000000000000000000000000000000000815260040161188090613c2b565b60405180910390fd5b611895848484846127f8565b50505050565b3373ffffffffffffffffffffffffffffffffffffffff16600960009054906101000a900473ffffffffffffffffffffffffffffffffffffffff1673ffffffffffffffffffffffffffffffffffffffff161461192b576040517f08c379a000000000000000000000000000000000000000000000000000000000815260040161192290613fff565b60405180910390fd5b80600a8190555050565b606061194082611f0b565b6000600660008481526020019081526020016000208054611960906139f8565b80601f016020809104026020016040519081016040528092919081815260200182805461198c906139f8565b80156119d95780601f106119ae576101008083540402835291602001916119d9565b820191906000526020600020905b8154815290600101906020018083116119bc57829003601f168201915b5050505050905060006119ea612854565b905060008151036119ff578192505050611a42565b600082511115611a34578082604051602001611a1c92919061405b565b60405160208183030381529060405292505050611a42565b611a3d8461286b565b925050505b919050565b611a4f612fcd565b6000611a5b60076123a5565b9050600b60008281526020019081526020016000206040518060a0016040529081600082015481526020016001820160009054906101000a900473ffffffffffffffffffffffffffffffffffffffff1673ffffffffffffffffffffffffffffffffffffffff1673ffffffffffffffffffffffffffffffffffffffff1681526020016002820160009054906101000a900473ffffffffffffffffffffffffffffffffffffffff1673ffffffffffffffffffffffffffffffffffffffff1673ffffffffffffffffffffffffffffffffffffffff168152602001600382015481526020016004820160009054906101000a900460ff16151515158152505091505090565b80600b600084815260200190815260200160002060040160006101000a81548160ff0219169083151502179055505050565b60606000611b9c60076123a5565b905060008167ffffffffffffffff811115611bba57611bb961340a565b5b604051908082528060200260200182016040528015611bf357816020015b611be0612fcd565b815260200190600190039081611bd85790505b50905060008080600090505b84811015611d7957600181611c149190613ee2565b91506000600b60008481526020019081526020016000209050600015158160040160009054906101000a900460ff16151503611c505750611d66565b806040518060a0016040529081600082015481526020016001820160009054906101000a900473ffffffffffffffffffffffffffffffffffffffff1673ffffffffffffffffffffffffffffffffffffffff1673ffffffffffffffffffffffffffffffffffffffff1681526020016002820160009054906101000a900473ffffffffffffffffffffffffffffffffffffffff1673ffffffffffffffffffffffffffffffffffffffff1673ffffffffffffffffffffffffffffffffffffffff168152602001600382015481526020016004820160009054906101000a900460ff161515151581525050858581518110611d4a57611d49613f5e565b5b6020026020010181905250600184611d629190613ee2565b9350505b8080611d7190613f16565b915050611bff565b508294505050505090565b6000600560008473ffffffffffffffffffffffffffffffffffffffff1673ffffffffffffffffffffffffffffffffffffffff16815260200190815260200160002060008373ffffffffffffffffffffffffffffffffffffffff1673ffffffffffffffffffffffffffffffffffffffff16815260200190815260200160002060009054906101000a900460ff16905092915050565b6000611e2460076123a5565b905090565b60007f80ac58cd000000000000000000000000000000000000000000000000000000007bffffffffffffffffffffffffffffffffffffffffffffffffffffffff1916827bffffffffffffffffffffffffffffffffffffffffffffffffffffffff19161480611ef457507f5b5e139f000000000000000000000000000000000000000000000000000000007bffffffffffffffffffffffffffffffffffffffffffffffffffffffff1916827bffffffffffffffffffffffffffffffffffffffffffffffffffffffff1916145b80611f045750611f03826128d3565b5b9050919050565b611f148161293d565b611f53576040517f08c379a0000000000000000000000000000000000000000000000000000000008152600401611f4a90613d95565b60405180910390fd5b50565b600033905090565b816004600083815260200190815260200160002060006101000a81548173ffffffffffffffffffffffffffffffffffffffff021916908373ffffffffffffffffffffffffffffffffffffffff160217905550808273ffffffffffffffffffffffffffffffffffffffff16611fd183610e57565b73ffffffffffffffffffffffffffffffffffffffff167f8c5be1e5ebec7d5bd14f71427d1e84f3dd0314c0f7b2291e5b200ac8c7c3b92560405160405180910390a45050565b60008061202383610e57565b90508073ffffffffffffffffffffffffffffffffffffffff168473ffffffffffffffffffffffffffffffffffffffff16148061206557506120648185611d84565b5b806120a357508373ffffffffffffffffffffffffffffffffffffffff1661208b84610835565b73ffffffffffffffffffffffffffffffffffffffff16145b91505092915050565b8273ffffffffffffffffffffffffffffffffffffffff166120cc82610e57565b73ffffffffffffffffffffffffffffffffffffffff1614612122576040517f08c379a0000000000000000000000000000000000000000000000000000000008152600401612119906140f1565b60405180910390fd5b600073ffffffffffffffffffffffffffffffffffffffff168273ffffffffffffffffffffffffffffffffffffffff1603612191576040517f08c379a000000000000000000000000000000000000000000000000000000000815260040161218890614183565b60405180910390fd5b61219e838383600161297e565b8273ffffffffffffffffffffffffffffffffffffffff166121be82610e57565b73ffffffffffffffffffffffffffffffffffffffff1614612214576040517f08c379a000000000000000000000000000000000000000000000000000000000815260040161220b906140f1565b60405180910390fd5b6004600082815260200190815260200160002060006101000a81549073ffffffffffffffffffffffffffffffffffffffff02191690556001600360008573ffffffffffffffffffffffffffffffffffffffff1673ffffffffffffffffffffffffffffffffffffffff168152602001908152602001600020600082825403925050819055506001600360008473ffffffffffffffffffffffffffffffffffffffff1673ffffffffffffffffffffffffffffffffffffffff16815260200190815260200160002060008282540192505081905550816002600083815260200190815260200160002060006101000a81548173ffffffffffffffffffffffffffffffffffffffff021916908373ffffffffffffffffffffffffffffffffffffffff160217905550808273ffffffffffffffffffffffffffffffffffffffff168473ffffffffffffffffffffffffffffffffffffffff167fddf252ad1be2c89b69c2b068fc378daa952ba7f163c4a11628f55a4df523b3ef60405160405180910390a46123a08383836001612984565b505050565b600081600001549050919050565b60006002600083815260200190815260200160002060009054906101000a900473ffffffffffffffffffffffffffffffffffffffff169050919050565b6001816000016000828254019250508190555050565b61242082826040518060200160405280600081525061298a565b5050565b61242d8261293d565b61246c576040517f08c379a000000000000000000000000000000000000000000000000000000000815260040161246390614215565b60405180910390fd5b8060066000848152602001908152602001600020908161248c91906143e1565b507ff8e1a15aba9398e019f0b49df1a4fde98ee17ae345cb5f6b5e2c27f5033e8ce7826040516124bc91906133b8565b60405180910390a15050565b600a54341461250c576040517f08c379a000000000000000000000000000000000000000000000000000000000815260040161250390613cbd565b60405180910390fd5b6000811161254f576040517f08c379a000000000000000000000000000000000000000000000000000000000815260040161254690614525565b60405180910390fd5b6040518060a001604052808381526020013073ffffffffffffffffffffffffffffffffffffffff1681526020013373ffffffffffffffffffffffffffffffffffffffff16815260200182815260200160011515815250600b60008481526020019081526020016000206000820151816000015560208201518160010160006101000a81548173ffffffffffffffffffffffffffffffffffffffff021916908373ffffffffffffffffffffffffffffffffffffffff16021790555060408201518160020160006101000a81548173ffffffffffffffffffffffffffffffffffffffff021916908373ffffffffffffffffffffffffffffffffffffffff1602179055506060820151816003015560808201518160040160006101000a81548160ff0219169083151502179055509050506126883330846120ac565b5050565b8173ffffffffffffffffffffffffffffffffffffffff168373ffffffffffffffffffffffffffffffffffffffff16036126fa576040517f08c379a00000000000000000000000000000000000000000000000000000000081526004016126f190614591565b60405180910390fd5b80600560008573ffffffffffffffffffffffffffffffffffffffff1673ffffffffffffffffffffffffffffffffffffffff16815260200190815260200160002060008473ffffffffffffffffffffffffffffffffffffffff1673ffffffffffffffffffffffffffffffffffffffff16815260200190815260200160002060006101000a81548160ff0219169083151502179055508173ffffffffffffffffffffffffffffffffffffffff168373ffffffffffffffffffffffffffffffffffffffff167f17307eab39ab6107e8899845ad3d59bd9653f200f220920489ca2b5937696c31836040516127eb91906130de565b60405180910390a3505050565b6128038484846120ac565b61280f848484846129e5565b61284e576040517f08c379a000000000000000000000000000000000000000000000000000000000815260040161284590614623565b60405180910390fd5b50505050565b606060405180602001604052806000815250905090565b606061287682611f0b565b6000612880612854565b905060008151116128a057604051806020016040528060008152506128cb565b806128aa84612b6c565b6040516020016128bb92919061405b565b6040516020818303038152906040525b915050919050565b60007f01ffc9a7000000000000000000000000000000000000000000000000000000007bffffffffffffffffffffffffffffffffffffffffffffffffffffffff1916827bffffffffffffffffffffffffffffffffffffffffffffffffffffffff1916149050919050565b60008073ffffffffffffffffffffffffffffffffffffffff1661295f836123b3565b73ffffffffffffffffffffffffffffffffffffffff1614159050919050565b50505050565b50505050565b6129948383612c3a565b6129a160008484846129e5565b6129e0576040517f08c379a00000000000000000000000000000000000000000000000000000000081526004016129d790614623565b60405180910390fd5b505050565b6000612a068473ffffffffffffffffffffffffffffffffffffffff16612e57565b15612b5f578373ffffffffffffffffffffffffffffffffffffffff1663150b7a02612a2f611f56565b8786866040518563ffffffff1660e01b8152600401612a519493929190614698565b6020604051808303816000875af1925050508015612a8d57506040513d601f19601f82011682018060405250810190612a8a91906146f9565b60015b612b0f573d8060008114612abd576040519150601f19603f3d011682016040523d82523d6000602084013e612ac2565b606091505b506000815103612b07576040517f08c379a0000000000000000000000000000000000000000000000000000000008152600401612afe90614623565b60405180910390fd5b805181602001fd5b63150b7a0260e01b7bffffffffffffffffffffffffffffffffffffffffffffffffffffffff1916817bffffffffffffffffffffffffffffffffffffffffffffffffffffffff191614915050612b64565b600190505b949350505050565b606060006001612b7b84612e7a565b01905060008167ffffffffffffffff811115612b9a57612b9961340a565b5b6040519080825280601f01601f191660200182016040528015612bcc5781602001600182028036833780820191505090505b509050600082602001820190505b600115612c2f578080600190039150507f3031323334353637383961626364656600000000000000000000000000000000600a86061a8153600a8581612c2357612c22614726565b5b04945060008503612bda575b819350505050919050565b600073ffffffffffffffffffffffffffffffffffffffff168273ffffffffffffffffffffffffffffffffffffffff1603612ca9576040517f08c379a0000000000000000000000000000000000000000000000000000000008152600401612ca0906147a1565b60405180910390fd5b612cb28161293d565b15612cf2576040517f08c379a0000000000000000000000000000000000000000000000000000000008152600401612ce99061480d565b60405180910390fd5b612d0060008383600161297e565b612d098161293d565b15612d49576040517f08c379a0000000000000000000000000000000000000000000000000000000008152600401612d409061480d565b60405180910390fd5b6001600360008473ffffffffffffffffffffffffffffffffffffffff1673ffffffffffffffffffffffffffffffffffffffff16815260200190815260200160002060008282540192505081905550816002600083815260200190815260200160002060006101000a81548173ffffffffffffffffffffffffffffffffffffffff021916908373ffffffffffffffffffffffffffffffffffffffff160217905550808273ffffffffffffffffffffffffffffffffffffffff16600073ffffffffffffffffffffffffffffffffffffffff167fddf252ad1be2c89b69c2b068fc378daa952ba7f163c4a11628f55a4df523b3ef60405160405180910390a4612e53600083836001612984565b5050565b6000808273ffffffffffffffffffffffffffffffffffffffff163b119050919050565b600080600090507a184f03e93ff9f4daa797ed6e38ed64bf6a1f0100000000000000008310612ed8577a184f03e93ff9f4daa797ed6e38ed64bf6a1f0100000000000000008381612ece57612ecd614726565b5b0492506040810190505b6d04ee2d6d415b85acef81000000008310612f15576d04ee2d6d415b85acef81000000008381612f0b57612f0a614726565b5b0492506020810190505b662386f26fc100008310612f4457662386f26fc100008381612f3a57612f39614726565b5b0492506010810190505b6305f5e1008310612f6d576305f5e1008381612f6357612f62614726565b5b0492506008810190505b6127108310612f92576127108381612f8857612f87614726565b5b0492506004810190505b60648310612fb55760648381612fab57612faa614726565b5b0492506002810190505b600a8310612fc4576001810190505b80915050919050565b6040518060a0016040528060008152602001600073ffffffffffffffffffffffffffffffffffffffff168152602001600073ffffffffffffffffffffffffffffffffffffffff168152602001600081526020016000151581525090565b6000604051905090565b600080fd5b600080fd5b60007fffffffff0000000000000000000000000000000000000000000000000000000082169050919050565b6130738161303e565b811461307e57600080fd5b50565b6000813590506130908161306a565b92915050565b6000602082840312156130ac576130ab613034565b5b60006130ba84828501613081565b91505092915050565b60008115159050919050565b6130d8816130c3565b82525050565b60006020820190506130f360008301846130cf565b92915050565b600081519050919050565b600082825260208201905092915050565b60005b83811015613133578082015181840152602081019050613118565b60008484015250505050565b6000601f19601f8301169050919050565b600061315b826130f9565b6131658185613104565b9350613175818560208601613115565b61317e8161313f565b840191505092915050565b600060208201905081810360008301526131a38184613150565b905092915050565b6000819050919050565b6131be816131ab565b81146131c957600080fd5b50565b6000813590506131db816131b5565b92915050565b6000602082840312156131f7576131f6613034565b5b6000613205848285016131cc565b91505092915050565b600073ffffffffffffffffffffffffffffffffffffffff82169050919050565b60006132398261320e565b9050919050565b6132498161322e565b82525050565b60006020820190506132646000830184613240565b92915050565b6132738161322e565b811461327e57600080fd5b50565b6000813590506132908161326a565b92915050565b600080604083850312156132ad576132ac613034565b5b60006132bb85828601613281565b92505060206132cc858286016131cc565b9150509250929050565b600080604083850312156132ed576132ec613034565b5b60006132fb858286016131cc565b925050602061330c85828601613281565b9150509250929050565b60008060006060848603121561332f5761332e613034565b5b600061333d86828701613281565b935050602061334e86828701613281565b925050604061335f868287016131cc565b9150509250925092565b600080604083850312156133805761337f613034565b5b600061338e858286016131cc565b925050602061339f858286016131cc565b9150509250929050565b6133b2816131ab565b82525050565b60006020820190506133cd60008301846133a9565b92915050565b6000602082840312156133e9576133e8613034565b5b60006133f784828501613281565b91505092915050565b600080fd5b600080fd5b7f4e487b7100000000000000000000000000000000000000000000000000000000600052604160045260246000fd5b6134428261313f565b810181811067ffffffffffffffff821117156134615761346061340a565b5b80604052505050565b600061347461302a565b90506134808282613439565b919050565b600067ffffffffffffffff8211156134a05761349f61340a565b5b6134a98261313f565b9050602081019050919050565b82818337600083830152505050565b60006134d86134d384613485565b61346a565b9050828152602081018484840111156134f4576134f3613405565b5b6134ff8482856134b6565b509392505050565b600082601f83011261351c5761351b613400565b5b813561352c8482602086016134c5565b91505092915050565b6000806040838503121561354c5761354b613034565b5b600083013567ffffffffffffffff81111561356a57613569613039565b5b61357685828601613507565b9250506020613587858286016131cc565b9150509250929050565b61359a816131ab565b82525050565b60006135ab8261320e565b9050919050565b6135bb816135a0565b82525050565b6135ca816130c3565b82525050565b60a0820160008201516135e66000850182613591565b5060208201516135f960208501826135b2565b50604082015161360c60408501826135b2565b50606082015161361f6060850182613591565b50608082015161363260808501826135c1565b50505050565b600060a08201905061364d60008301846135d0565b92915050565b61365c816130c3565b811461366757600080fd5b50565b60008135905061367981613653565b92915050565b6000806040838503121561369657613695613034565b5b60006136a485828601613281565b92505060206136b58582860161366a565b9150509250929050565b6000602082840312156136d5576136d4613034565b5b60006136e38482850161366a565b91505092915050565b600081519050919050565b600082825260208201905092915050565b6000819050602082019050919050565b60a08201600082015161372e6000850182613591565b50602082015161374160208501826135b2565b50604082015161375460408501826135b2565b5060608201516137676060850182613591565b50608082015161377a60808501826135c1565b50505050565b600061378c8383613718565b60a08301905092915050565b6000602082019050919050565b60006137b0826136ec565b6137ba81856136f7565b93506137c583613708565b8060005b838110156137f65781516137dd8882613780565b97506137e883613798565b9250506001810190506137c9565b5085935050505092915050565b6000602082019050818103600083015261381d81846137a5565b905092915050565b600067ffffffffffffffff8211156138405761383f61340a565b5b6138498261313f565b9050602081019050919050565b600061386961386484613825565b61346a565b90508281526020810184848401111561388557613884613405565b5b6138908482856134b6565b509392505050565b600082601f8301126138ad576138ac613400565b5b81356138bd848260208601613856565b91505092915050565b600080600080608085870312156138e0576138df613034565b5b60006138ee87828801613281565b94505060206138ff87828801613281565b9350506040613910878288016131cc565b925050606085013567ffffffffffffffff81111561393157613930613039565b5b61393d87828801613898565b91505092959194509250565b600080604083850312156139605761395f613034565b5b600061396e858286016131cc565b925050602061397f8582860161366a565b9150509250929050565b600080604083850312156139a05761399f613034565b5b60006139ae85828601613281565b92505060206139bf85828601613281565b9150509250929050565b7f4e487b7100000000000000000000000000000000000000000000000000000000600052602260045260246000fd5b60006002820490506001821680613a1057607f821691505b602082108103613a2357613a226139c9565b5b50919050565b7f4552433732313a20617070726f76616c20746f2063757272656e74206f776e6560008201527f7200000000000000000000000000000000000000000000000000000000000000602082015250565b6000613a85602183613104565b9150613a9082613a29565b604082019050919050565b60006020820190508181036000830152613ab481613a78565b9050919050565b7f4552433732313a20617070726f76652063616c6c6572206973206e6f7420746f60008201527f6b656e206f776e6572206f7220617070726f76656420666f7220616c6c000000602082015250565b6000613b17603d83613104565b9150613b2282613abb565b604082019050919050565b60006020820190508181036000830152613b4681613b0a565b9050919050565b7f4e6f7420617574686f72697a6564000000000000000000000000000000000000600082015250565b6000613b83600e83613104565b9150613b8e82613b4d565b602082019050919050565b60006020820190508181036000830152613bb281613b76565b9050919050565b7f4552433732313a2063616c6c6572206973206e6f7420746f6b656e206f776e6560008201527f72206f7220617070726f76656400000000000000000000000000000000000000602082015250565b6000613c15602d83613104565b9150613c2082613bb9565b604082019050919050565b60006020820190508181036000830152613c4481613c08565b9050919050565b7f486f706566756c6c792073656e64696e672074686520636f727265637420707260008201527f6963650000000000000000000000000000000000000000000000000000000000602082015250565b6000613ca7602383613104565b9150613cb282613c4b565b604082019050919050565b60006020820190508181036000830152613cd681613c9a565b9050919050565b7f546f6b656e206973206e6f74206c697374656400000000000000000000000000600082015250565b6000613d13601383613104565b9150613d1e82613cdd565b602082019050919050565b60006020820190508181036000830152613d4281613d06565b9050919050565b7f4552433732313a20696e76616c696420746f6b656e2049440000000000000000600082015250565b6000613d7f601883613104565b9150613d8a82613d49565b602082019050919050565b60006020820190508181036000830152613dae81613d72565b9050919050565b7f4552433732313a2061646472657373207a65726f206973206e6f74206120766160008201527f6c6964206f776e65720000000000000000000000000000000000000000000000602082015250565b6000613e11602983613104565b9150613e1c82613db5565b604082019050919050565b60006020820190508181036000830152613e4081613e04565b9050919050565b7f5072696365206d757374206e6f74206265206e65676174697665000000000000600082015250565b6000613e7d601a83613104565b9150613e8882613e47565b602082019050919050565b60006020820190508181036000830152613eac81613e70565b9050919050565b7f4e487b7100000000000000000000000000000000000000000000000000000000600052601160045260246000fd5b6000613eed826131ab565b9150613ef8836131ab565b9250828201905080821115613f1057613f0f613eb3565b5b92915050565b6000613f21826131ab565b91507fffffffffffffffffffffffffffffffffffffffffffffffffffffffffffffffff8203613f5357613f52613eb3565b5b600182019050919050565b7f4e487b7100000000000000000000000000000000000000000000000000000000600052603260045260246000fd5b7f4f6e6c79206f776e65722063616e20757064617465206c697374696e6720707260008201527f6963650000000000000000000000000000000000000000000000000000000000602082015250565b6000613fe9602383613104565b9150613ff482613f8d565b604082019050919050565b6000602082019050818103600083015261401881613fdc565b9050919050565b600081905092915050565b6000614035826130f9565b61403f818561401f565b935061404f818560208601613115565b80840191505092915050565b6000614067828561402a565b9150614073828461402a565b91508190509392505050565b7f4552433732313a207472616e736665722066726f6d20696e636f72726563742060008201527f6f776e6572000000000000000000000000000000000000000000000000000000602082015250565b60006140db602583613104565b91506140e68261407f565b604082019050919050565b6000602082019050818103600083015261410a816140ce565b9050919050565b7f4552433732313a207472616e7366657220746f20746865207a65726f2061646460008201527f7265737300000000000000000000000000000000000000000000000000000000602082015250565b600061416d602483613104565b915061417882614111565b604082019050919050565b6000602082019050818103600083015261419c81614160565b9050919050565b7f45524337323155524953746f726167653a2055524920736574206f66206e6f6e60008201527f6578697374656e7420746f6b656e000000000000000000000000000000000000602082015250565b60006141ff602e83613104565b915061420a826141a3565b604082019050919050565b6000602082019050818103600083015261422e816141f2565b9050919050565b60008190508160005260206000209050919050565b60006020601f8301049050919050565b600082821b905092915050565b6000600883026142977fffffffffffffffffffffffffffffffffffffffffffffffffffffffffffffffff8261425a565b6142a1868361425a565b95508019841693508086168417925050509392505050565b6000819050919050565b60006142de6142d96142d4846131ab565b6142b9565b6131ab565b9050919050565b6000819050919050565b6142f8836142c3565b61430c614304826142e5565b848454614267565b825550505050565b600090565b614321614314565b61432c8184846142ef565b505050565b5b8181101561435057614345600082614319565b600181019050614332565b5050565b601f8211156143955761436681614235565b61436f8461424a565b8101602085101561437e578190505b61439261438a8561424a565b830182614331565b50505b505050565b600082821c905092915050565b60006143b86000198460080261439a565b1980831691505092915050565b60006143d183836143a7565b9150826002028217905092915050565b6143ea826130f9565b67ffffffffffffffff8111156144035761440261340a565b5b61440d82546139f8565b614418828285614354565b600060209050601f83116001811461444b5760008415614439578287015190505b61444385826143c5565b8655506144ab565b601f19841661445986614235565b60005b828110156144815784890151825560018201915060208501945060208101905061445c565b8683101561449e578489015161449a601f8916826143a7565b8355505b6001600288020188555050505b505050505050565b7f4d616b652073757265207468652070726963652069736e2774206e656761746960008201527f7665000000000000000000000000000000000000000000000000000000000000602082015250565b600061450f602283613104565b915061451a826144b3565b604082019050919050565b6000602082019050818103600083015261453e81614502565b9050919050565b7f4552433732313a20617070726f766520746f2063616c6c657200000000000000600082015250565b600061457b601983613104565b915061458682614545565b602082019050919050565b600060208201905081810360008301526145aa8161456e565b9050919050565b7f4552433732313a207472616e7366657220746f206e6f6e20455243373231526560008201527f63656976657220696d706c656d656e7465720000000000000000000000000000602082015250565b600061460d603283613104565b9150614618826145b1565b604082019050919050565b6000602082019050818103600083015261463c81614600565b9050919050565b600081519050919050565b600082825260208201905092915050565b600061466a82614643565b614674818561464e565b9350614684818560208601613115565b61468d8161313f565b840191505092915050565b60006080820190506146ad6000830187613240565b6146ba6020830186613240565b6146c760408301856133a9565b81810360608301526146d9818461465f565b905095945050505050565b6000815190506146f38161306a565b92915050565b60006020828403121561470f5761470e613034565b5b600061471d848285016146e4565b91505092915050565b7f4e487b7100000000000000000000000000000000000000000000000000000000600052601260045260246000fd5b7f4552433732313a206d696e7420746f20746865207a65726f2061646472657373600082015250565b600061478b602083613104565b915061479682614755565b602082019050919050565b600060208201905081810360008301526147ba8161477e565b9050919050565b7f4552433732313a20746f6b656e20616c7265616479206d696e74656400000000600082015250565b60006147f7601c83613104565b9150614802826147c1565b602082019050919050565b60006020820190508181036000830152614826816147ea565b905091905056fea2646970667358221220581e5e80a6df99c5d25a8340ece7c924460808d63efe11d23c22bb792ec934e364736f6c63430008130033",
  "immutableReferences": {},
  "source": "// SPDX-License-Identifier: MIT\npragma solidity 0.8.19;\n\nimport \"@openzeppelin/contracts/utils/Counters.sol\";\nimport \"@openzeppelin/contracts/token/ERC721/extensions/ERC721URIStorage.sol\";\nimport \"@openzeppelin/contracts/token/ERC721/ERC721.sol\";\n\ncontract NFTAuction is ERC721URIStorage {\n\n    using Counters for Counters.Counter;\n    //_tokenIds variable has the most recent minted tokenId\n    Counters.Counter private _tokenIds;\n    //Keeps track of the number of items sold on the marketplace\n    Counters.Counter private _itemsSold;\n    //owner is the contract address that created the smart contract\n    address payable owner;\n    //The fee charged by the marketplace to be allowed to list an NFT\n    uint256 listPrice = 0.01 ether;\n    \n    constructor () ERC721(\"AuctionToken\", \"AUCTKN\"){\n        owner = payable(msg.sender);\n    }\n\n    //The structure to store info about a listed token\n    struct ListedToken {\n        uint256 tokenId;\n        address payable owner;\n        address payable seller;\n        uint256 price;\n        bool currentlyListed;\n    }\n\n    //This mapping maps tokenId to token info and is helpful when retrieving details about a tokenId\n    mapping(uint256 => ListedToken) private idToListedToken;\n\n    function updateListPrice(uint256 _listPrice) public payable {\n        require(owner == msg.sender, \"Only owner can update listing price\");\n        listPrice = _listPrice;\n    }\n\n     function getListPrice() public view returns (uint256) {\n        return listPrice;\n    }\n\n    function getLatestIdToListedToken() public view returns (ListedToken memory) {\n        uint256 currentTokenId = _tokenIds.current();\n        return idToListedToken[currentTokenId];\n    }\n\n    function getListedTokenForId(uint256 tokenId) public view returns (ListedToken memory) {\n        return idToListedToken[tokenId];\n    }\n\n    function getCurrentToken() public view returns (uint256) {\n        return _tokenIds.current();\n    }\n\n    //The first time a token is created, it is listed here\n    function createToken(string memory tokenURI, uint256 price) public payable returns (uint) {\n        require(price > 0, \"Price must not be negative\");\n\n        //Increment the tokenId counter, which is keeping track of the number of minted NFTs\n        _tokenIds.increment();\n        uint256 newTokenId = _tokenIds.current();\n\n        //Mint the NFT with tokenId newTokenId to the address who called createToken\n        _safeMint(msg.sender, newTokenId);\n\n        //Map the tokenId to the tokenURI (which is an IPFS URL with the NFT metadata)\n        _setTokenURI(newTokenId, tokenURI);\n\n        //Helper function to update Global variables and emit an event\n        createListedToken(newTokenId, price);\n\n        return newTokenId;\n    }\n\n    function createListedToken(uint256 tokenId, uint256 price) private {\n        //Make sure the sender sent enough ETH to pay for listing\n        require(msg.value == listPrice, \"Hopefully sending the correct price\");\n        //Just sanity check\n        require(price > 0, \"Make sure the price isn't negative\");\n\n        //Update the mapping of tokenId's to Token details, useful for retrieval functions\n        idToListedToken[tokenId] = ListedToken(\n            tokenId,\n            payable(address(this)),\n            payable(msg.sender),\n            price,\n            true\n        );\n\n        _transfer(msg.sender, address(this), tokenId);\n        //Emit the event for successful transfer. The frontend parses this message and updates the end user\n        // emit TokenListedSuccess(\n        //     tokenId,\n        //     address(this),\n        //     msg.sender,\n        //     price,\n        //     true\n        // );\n    }\n\n    //This will return all the NFTs currently listed to be sold on the marketplace\n    function getAllNFTs() public view returns (ListedToken[] memory) {\n        uint nftCount = _tokenIds.current();\n        ListedToken[] memory tokens = new ListedToken[](nftCount);\n        uint currentIndex = 0;\n        uint currentId;\n        //at the moment currentlyListed is true for all, if it becomes false in the future we will \n        //filter out currentlyListed == false over here\n        for(uint i=0;i<nftCount;i++)\n        {\n            currentId = i + 1;\n            ListedToken storage currentItem = idToListedToken[currentId];\n            if(currentItem.currentlyListed == false) {\n                continue;\n            }\n            tokens[currentIndex] = currentItem;\n            currentIndex += 1;\n        }\n        //the array 'tokens' has the list of all NFTs in the marketplace\n        return tokens;\n    }\n\n    //Returns all the NFTs that the current user is owner or seller in\n    function getMyNFTs(bool profile) public view returns (ListedToken[] memory) {\n        uint totalItemCount = _tokenIds.current();\n        uint itemCount = 0;\n        uint currentIndex = 0;\n        uint currentId;\n        //Important to get a count of all the NFTs that belong to the user before we can make an array for them\n        for(uint i=0; i < totalItemCount; i++)\n        {\n            if(idToListedToken[i+1].owner == msg.sender || idToListedToken[i+1].seller == msg.sender){\n                itemCount += 1;\n            }\n        }\n\n        //Once you have the count of relevant NFTs, create an array then store all the NFTs in it\n        ListedToken[] memory items = new ListedToken[](itemCount);\n        for(uint i=0; i < totalItemCount; i++) {\n            if(idToListedToken[i+1].owner == msg.sender || idToListedToken[i+1].seller == msg.sender) {\n                currentId = i+1;\n                ListedToken storage currentItem = idToListedToken[currentId];\n                if(!profile && currentItem.currentlyListed == false) {\n                    continue;\n                }\n                items[currentIndex] = currentItem;\n                currentIndex += 1;\n            }\n        }\n        return items;\n    }\n\n    function executeSale(uint256 tokenId) public payable {\n        uint price = idToListedToken[tokenId].price;\n        address seller = idToListedToken[tokenId].seller;\n        // require(msg.value == price, \"Please submit the asking price in order to complete the purchase\");\n\n        //update the details of the token\n        idToListedToken[tokenId].currentlyListed = false;\n        idToListedToken[tokenId].seller = payable(msg.sender);\n        _itemsSold.increment();\n\n        //Actually transfer the token to the new owner\n        _transfer(address(this), msg.sender, tokenId);\n        //approve the marketplace to sell NFTs on your behalf\n        approve(address(this), tokenId);\n\n        //Transfer the listing fee to the marketplace creator\n        payable(owner).transfer(listPrice);\n        //Transfer the proceeds from the sale to the seller of the NFT\n        payable(seller).transfer(msg.value);\n    }\n\n    // Function to allow other contracts (like our auction contract) to mark an NFT as no longer listed\n    function markTokenNotListed(uint256 tokenId, address auctionContractAddress) public {\n        require(idToListedToken[tokenId].currentlyListed, \"Token is not listed\");\n        require(\n            msg.sender == owner || \n            idToListedToken[tokenId].seller == msg.sender ||\n            msg.sender == auctionContractAddress,\n            \"Not authorized\"\n        );\n        \n        idToListedToken[tokenId].currentlyListed = false;\n    }\n    \n    //We might add a resell token function in the future\n    //In that case, tokens won't be listed by default but users can send a request to actually list a token\n    //Currently NFTs are listed by default\n\n    function approveTokenForAuction(uint256 tokenId, address auctionContract) public {\n        require(idToListedToken[tokenId].seller == msg.sender || owner == msg.sender, \"Not authorized\");\n        _approve(auctionContract, tokenId);\n    }\n        \n    // get number of items minted\n    function getItemsMinted() public view returns (uint256) {\n        return _tokenIds.current();\n    }\n\n    // check whether the token is listed or not\n    function isTokenListed(uint256 tokenId) public view returns (bool) {\n        return idToListedToken[tokenId].currentlyListed;\n    }\n\n    // set the token as listed or not listed\n    function setTokenListed(uint256 tokenId, bool listed) public {\n        // require(idToListedToken[tokenId].seller == msg.sender || owner == msg.sender, \"Not authorized\");\n        idToListedToken[tokenId].currentlyListed = listed;\n    }\n\n    // // list nft again after auction from the new owner\n    // function listNFTAgain(uint256 tokenId) public {\n    //     idToListedToken[tokenId].currentlyListed = true;\n    //     idToListedToken[tokenId].seller = payable(msg.sender);\n    //     idToListedToken[tokenId].owner = payable(address(this));\n    //     _transfer(msg.sender, address(this), tokenId);\n    //     approve(address(this), tokenId);\n    // }\n\n    /// Owner calls this to relist their NFT at a new price\n    function listNFTAgain(uint256 tokenId, uint256 price) external payable{\n        // Make sure the sender sent enough ETH to pay for listing\n        require(msg.value == listPrice, \"Hopefully sending the correct price\");\n\n        // Transfer the NFT into this contract\n        _transfer(msg.sender, address(this), tokenId);\n        \n        // Update our onchain listing record\n        idToListedToken[tokenId].tokenId = tokenId;\n        idToListedToken[tokenId].price = price;\n        idToListedToken[tokenId].currentlyListed = true;\n        idToListedToken[tokenId].seller = payable(msg.sender);\n        idToListedToken[tokenId].owner = payable(address(this));\n\n        // Allow the marketplace (this contract) to handle sales later\n        // approve(address(this), tokenId);\n    }\n\n    // update the new owner of the token after auction (seller remains the original seller)\n    function updateOwner(uint tokenId, address newOwner) public {\n        idToListedToken[tokenId].owner = payable(newOwner);\n        // Do NOT update seller - it should remain as the original seller who minted/listed the NFT\n        // idToListedToken[tokenId].seller = payable(newOwner); // REMOVED: This was causing owner and seller to be the same\n    }\n\n    // update the new price of the token after auction\n    function updatePrice(uint tokenId, uint256 newPrice) public {\n        idToListedToken[tokenId].price = newPrice;\n    }\n\n\n\n}",
  "sourcePath": "/Users/janyajaiswal/AetherVault/contracts/NFTAuction.sol",
  "compiler": {
    "name": "solc",
    "version": "0.8.19+commit.7dd6d404.Emscripten.clang"
  },
  "schemaVersion": "3.4.4",
  "updatedAt": "2025-12-08T00:30:57.063Z",
  "networkType": "ethereum",
  "devdoc": {
    "events": {
      "Approval(address,address,uint256)": {
        "details": "Emitted when `owner` enables `approved` to manage the `tokenId` token."
      },
      "ApprovalForAll(address,address,bool)": {
        "details": "Emitted when `owner` enables or disables (`approved`) `operator` to manage all of its assets."
      },
      "BatchMetadataUpdate(uint256,uint256)": {
        "details": "This event emits when the metadata of a range of tokens is changed. So that the third-party platforms such as NFT market could timely update the images and related attributes of the NFTs."
      },
      "MetadataUpdate(uint256)": {
        "details": "This event emits when the metadata of a token is changed. So that the third-party platforms such as NFT market could timely update the images and related attributes of the NFT."
      },
      "Transfer(address,address,uint256)": {
        "details": "Emitted when `tokenId` token is transferred from `from` to `to`."
      }
    },
    "kind": "dev",
    "methods": {
      "approve(address,uint256)": {
        "details": "See {IERC721-approve}."
      },
      "balanceOf(address)": {
        "details": "See {IERC721-balanceOf}."
      },
      "getApproved(uint256)": {
        "details": "See {IERC721-getApproved}."
      },
      "isApprovedForAll(address,address)": {
        "details": "See {IERC721-isApprovedForAll}."
      },
      "name()": {
        "details": "See {IERC721Metadata-name}."
      },
      "ownerOf(uint256)": {
        "details": "See {IERC721-ownerOf}."
      },
      "safeTransferFrom(address,address,uint256)": {
        "details": "See {IERC721-safeTransferFrom}."
      },
      "safeTransferFrom(address,address,uint256,bytes)": {
        "details": "See {IERC721-safeTransferFrom}."
      },
      "setApprovalForAll(address,bool)": {
        "details": "See {IERC721-setApprovalForAll}."
      },
      "supportsInterface(bytes4)": {
        "details": "See {IERC165-supportsInterface}"
      },
      "symbol()": {
        "details": "See {IERC721Metadata-symbol}."
      },
      "tokenURI(uint256)": {
        "details": "See {IERC721Metadata-tokenURI}."
      },
      "transferFrom(address,address,uint256)": {
        "details": "See {IERC721-transferFrom}."
      }
    },
    "version": 1
  },
  "userdoc": {
    "kind": "user",
    "methods": {
      "listNFTAgain(uint256,uint256)": {
        "notice": "Owner calls this to relist their NFT at a new price"
      }
    },
    "version": 1
  }
}